:020000040800F2
:1000000098070020AD02000805050008FD0400085F
:1000100001050008490400089D05000800000000D3
:1000200000000000000000000000000009050008BA
:100030004D04000800000000070500080B0500083B
:10004000C7020008C7020008C7020008C70200086C
:10005000C7020008C7020008C7020008C70200085C
:10006000C7020008C7020008C702000851040008C0
:10007000C7020008C7020008C7020008C70200083C
:10008000C7020008C7020008C7020008C70200082C
:10009000C7020008C7020008C7020008C70200081C
:1000A000C7020008C7020008C7020008C70200080C
:1000B000C7020008C7020008C7020008C7020008FC
:1000C000C7020008C7020008C7020008C7020008EC
:1000D000C7020008C7020008C7020008C7020008DC
:1000E000C7020008C7020008C7020008C7020008CC
:1000F000C7020008C7020008C7020008C7020008BC
:10010000C7020008C7020008C7020008C7020008AB
:10011000C7020008C7020008C7020008C70200089B
:10012000C7020008C7020008C7020008C70200088B
:10013000C7020008C7020008C7020008C70200087B
:10014000C7020008C7020008C7020008C70200086B
:10015000C7020008C702000800000000C70200082C
:10016000C7020008C70200080000000000000000ED
:10017000C7020008C7020008C7020008000000000C
:1001800000000000C7020008C7020008C7020008FC
:10019000C70200080000000000000000000000008E
:1001A000000000000000000000000000C70200087E
:1001B000C702000800000000C7020008000000009D
:1001C000000000000000000000000000000000002F
:1001D0000000000000000000C7020008C70200087D
:1001E000C7020008C7020008C7020008C7020008CB
:1001F000C7020008C7020008C7020008C7020008BB
:10020000C7020008C7020008C702000800F002F891
:1002100000F03CF80AA090E8000C82448344AAF164
:100220000107DA4501D100F031F8AFF2090EBAE862
:100230000F0013F0010F18BFFB1A43F0010318471A
:100240005412000074120000103A24BF78C878C11C
:10025000FAD8520724BF30C830C144BF04680C60CC
:10026000704700000023002400250026103A28BF14
:1002700078C1FBD8520728BF30C148BF0B60704718
:100280001FB501F0E3F81FBD10B510BD00F0AAF8CE
:100290001146FFF7F5FF00F070FF00F0C8F803B457
:1002A000FFF7F2FF03BC00F07BF90000094880472C
:1002B00009480047FEE7FEE7FEE7FEE7FEE7FEE748
:1002C000FEE7FEE7FEE7FEE704480549054A064B60
:1002D000704700000D0500080D020008980100207D
:1002E000980700209803002098030020704753EAE5
:1002F000020C00F069802DE9F04B4FF00006002B56
:100300001FBFB3FA83F503FA05F424FA05F65E403D
:1003100012BF1643B2FA82F502FA05F4C5F12005C0
:100320001EBF22FA05FC44EA0C04203556EA044CB0
:100330004FEA144418BF641C4FF000084FF0000946
:10034000904271EB030C39D3002919BFB1FA81F740
:1003500001FA07F6B0FA80F700FA07F6C7F12007AE
:100360001EBF20FA07FC46EA0C062037B6FBF4FC59
:10037000A7EB0507103F07F01F0BCBF120060CFA87
:100380000BFB2CFA06F644BFB3460026202FA4BF71
:100390005E464FF0000B5BEA060C08BF4FF0010B06
:1003A00019EB0B09ABFB027C48EB0608C01B06FBF4
:1003B00002CC0BFB03CC71EB0C01C1E70B460246F0
:1003C00041464846BDE8F08B13B54FF000004FF0B2
:1003D0000001AFF30080BDE81C40704770477047D4
:1003E00070477047754600F02BF8AE460500694629
:1003F000534620F00700854618B020B5FFF764FF8C
:10040000BDE820404FF000064FF000074FF0000815
:100410004FF0000B21F00701AC46ACE8C009ACE896
:10042000C009ACE8C009ACE8C0098D46704710B5FA
:100430000446AFF300802046BDE81040FFF72FBF11
:10044000004870473801002000BFFEE770470000F9
:1004500010B5234800F03EFB00283FD0214800683B
:1004600090B920222049214800F022F9012802D128
:100470001C49086008E0002000F0F2F8012000F0BC
:10048000EFF8022000F0ECF816480068012822D1AD
:1004900020221749174800F00BF9012812D100203B
:1004A00000F0F2F8012000F0EFF8022000F0ECF884
:1004B0000021114800F076FB00210F48183000F0B1
:1004C00071FB08E0002000F0CBF8012000F0C8F834
:1004D000022000F0C5F8024800F0EEFA10BD00005E
:1004E0002000001080000020B80000200000002044
:1004F000F8000020400000201060024000BFFEE72E
:1005000000BFFEE770477047704770471F4800689C
:1005100040F470001D4908601D48006820F001008B
:10052000401C1B49086000BF19480068C0F3400028
:100530000028F9D016480830006820F0030014495C
:100540000831086000BF124808300068C0F381001D
:100550000028F8D10E49083108600D4800680D499F
:1005600008400B4908600C48091D08600020084934
:10057000A03108604FF41F0005490C3108604FF0AE
:1005800000600249803908607047000088ED00E093
:1005900000380240FFFFF2FE0230030000BFFEE71A
:1005A00000BF704710B500F03FFA002000F030F8AF
:1005B000012000F02DF8022000F02AF8002000F0C1
:1005C0004FF8012000F04CF8022000F049F800F04C
:1005D00001F810BD1CB501214FF4401000F098F94E
:1005E000684600F079FB01208DF8070000208DF8A7
:1005F00004008DF806000120009002208DF805000F
:100600006946024800F072FB1CBD00000000024079
:100610001CB504460F4951F82400012100F078F977
:10062000684600F059FB01208DF8070000208DF886
:10063000040001208DF80600074830F814000090EF
:1006400000208DF80500054951F82400694600F0A6
:100650004DFB1CBD9800002090000020840000206D
:10066000022800DD7047064931F8101031B1044905
:1006700031F81010034A52F82020916100BFF1E7D1
:100680009000002084000020022800DD7047064909
:1006900031F8101031B1044931F81010034A52F802
:1006A0002020916200BFF1E790000020840000202C
:1006B00010B5034607E018880C88A04201D000203E
:1006C00010BD9B1C891C101EA2F10104A2B2F2D124
:1006D0000120F5E70349096860F30711014A116039
:1006E00070470000083802400349096860F38C2114
:1006F000014A116070470000083802400349096848
:1007000060F34F31014A1160704700000838024021
:10071000012807D10749096821F030013031054A25
:10072000116005E00349096821F03001014A1160B8
:1007300070470000A438024005282BD2DFE800F003
:10074000030A11182100154A126861F30002134BC5
:100750001A6020E0114A126861F310420F4B1A60D0
:1007600019E00E4A126861F318620C4B1A6012E02D
:100770000A4A7032126861F30002084B70331A6043
:1007800009E0064A7432126861F30002034B7433C5
:100790001A6000E000BF00BF704700000038024050
:1007A0002DE9FE4F04464FF00009CA46CB46002013
:1007B000029001900025002600F02EF9009000988C
:1007C00020B1012812D002283FD112E03148006840
:1007D000C0F3803038B12F480068C0F3003010B14A
:1007E0002D48206001E02D48206031E02B4820603A
:1007F0002EE028489C380068C0F3805002902548BD
:100800009C380068C0F3881922489C38006800F0C2
:100810000F0A20489C380068C0F30240204911F8B4
:1008200000B0029810B91D48019001E01B480190EA
:100830000AFB0BFC0198A0FB0970014662460023ED
:100840003846FFF754FD206002E01448206000BFE6
:1008500000BF104898380068C0F303151148465D82
:100860002068F04060600B4898380068C0F382252B
:100870000D48465D6068F040E060064898380068C2
:10088000C0F342350948465D6068F040A060BDE8AD
:10089000FE8F0000A0380240006CDC0200127A00DB
:1008A0007614000856140008661400086E14000838
:1008B00010B501460020094B03EB1142D2F8002885
:1008C00001F01F040123A3401A4001F01F0401237B
:1008D000A3409A4200D000E0012010BD0030024049
:1008E00030B50024002500E0641C1120FFF7E0FF74
:1008F000012802D0B4F5405FF6D31120FFF7D8FFEE
:10090000012801D0002500E00125284630BD000067
:1009100010B501290FD1104B03EB1042D2F800287B
:1009200000F01F040123A3401A430B4C04EB1043B7
:10093000C3F800280EE0084B03EB1042D2F8002861
:1009400000F01F040123A3409A43034C04EB10431F
:10095000C3F8002810BD00000030024030B50B4C39
:10096000246860F39654094D2C602C46246861F38A
:100970008E142C602C46246862F303042C602C46F1
:10098000246863F312442C6030BD00000438024038
:100990001948006820F00100401C1749086000BF9A
:1009A00015480068C0F340000028F9D0124808300C
:1009B000006820F0030010490831086000BF0E48AD
:1009C00008300068C0F381000028F8D10A490831D6
:1009D0000860094800680949084007490860084854
:1009E000091D086000200449A03108604FF41F0071
:1009F00001490C310860704700380240FFFFF2FEE9
:100A0000023003000349096860F30101014A1160E3
:100A1000704700000838024002480068C0F38100B7
:100A2000704700000838024010B5042000F0FAFCBE
:100A3000074800680749B0FBF1F00749086008461D
:100A400000684FF47A7148430449086010BD000003
:100A5000B400002040420F00A4000020A8000020A5
:100A60000021418101740172C1748174416001757A
:100A7000C1734173016041758173017341747047A3
:100A800031B1026822F4802202F58022026003E084
:100A9000026822F480220260704732B1036823F4B6
:100AA000002303F50023036003E0036823F400231D
:100AB0000360016170470000B0F1005F04D920F0CD
:100AC0007041034AD16001E001498860704700002D
:100AD000006002400146B1F1005F02D9054842685A
:100AE00001E00448026802EA010008B101207047F1
:100AF0000020FCE7006002400B7A026863F3871273
:100B000002600B7B026863F3492202604B7B026840
:100B100063F38A2202608B7B026863F3CC2202605B
:100B2000CB7B026863F34E3202600B7C026863F396
:100B3000082202604B7C026863F3114202600B7D65
:100B4000026863F3D85202604B7D026863F3565229
:100B500002608B7C426963F382024261CB7C426912
:100B600063F3010242614A8942600A6882604A680E
:100B7000C260704701F080034BB122B1436943F07A
:100B80008003436103E0436923F0800343618029CC
:100B900007D01AB103680B43036002E003688B437C
:100BA00003607047026861F3000202607047000052
:100BB0000349096860F30001024AC2F83C1170471A
:100BC0003C61024000600240026861F3060202607C
:100BD000704700001CB501214FF44010FFF798FE4C
:100BE00001213948FFF794FE01213748401CFFF7E7
:100BF0008FFE00208DF8040001208DF805000220F2
:100C00008DF8060001208DF807001020009069463D
:100C10002E4800F06BF8062204212C4800F0A3F8BF
:100C200002208DF80500400200906946284800F037
:100C30005DF806220A21264800F095F801208DF87B
:100C40000500000300906946214800F04FF8062295
:100C50000C211F4800F087F801208DF80500802046
:100C6000009069461A4800F041F80622072118480A
:100C700000F079F801208DF80500009069461548CC
:100C800000F034F807220021124800F06CF802202E
:100C90008DF80500009069460E4800F027F80622FE
:100CA00001210C4800F05FF801208DF805001020AC
:100CB00000906946074800F019F80622042105480B
:100CC00000F051F81CBD000002003000000002409E
:100CD00000080240000C02404FF6FF710160002145
:100CE0008171017141710121C171704770B50A466E
:100CF00000211488A3B233E003F001046CB304684C
:100D00004E000325B540AC43046094794D00AC40DF
:100D100005682C430460446801258D40AC43446061
:100D2000446815798D402C43446084684E00032547
:100D3000B540AC438460D4794D00AC4085682C4309
:100D40008460C4684E000325B540AC43C460547948
:100D50004D00AC40C5682C43C4605B104C1CA1B274
:100D6000002BC9DC70BDF0B5002300244D07ED0E4B
:100D700002FA05F3CD105DB1456A4E07F70E0F2656
:100D8000BE40B5434562456A45EA030444620AE051
:100D9000056A4E07F70E0F26BE40B5430562056A89
:100DA00045EA03040462F0BD00B589B0012157484B
:100DB000FFF7AEFD03A8FFF753FE00208DF81400E7
:100DC0002020ADF8160001208DF81A00504803903D
:100DD00000208DF8180001208DF81B004D4804906C
:100DE00001208DF8190000208DF821008DF82000D9
:100DF0008DF81E008DF81F0002208DF81D000120C7
:100E00008DF81C0003A94448FFF776FE00224349F1
:100E10004148FFF742FE01213F48FFF731FE012024
:100E20008DF814003E4803903E48049003A93A48C8
:100E30001830FFF761FE00223B4937481830FFF7B2
:100E40002CFE012134481830FFF71AFE0122102130
:100E50003148FFF78FFE002201210B2000F09AF9A4
:100E60000120FFF7A5FE0C213048FFF7ADFE0F2152
:100E70002E48001DFFF7A8FE01212D48FFF748FD71
:100E800001212B48401EFFF743FD684600F052F851
:100E900000208DF8010002208DF8080001208DF857
:100EA0000A004BF68030019000208DF809000220E6
:100EB0008DF8000069461A480C3800F04BF8012004
:100EC0008DF80000694612480C3800F043F8012103
:100ED0001148FFF767FE01210F481830FFF762FE47
:100EE00001210B480C3800F0CDF901210C480C38D9
:100EF00000F0CDF9012106480C3800F026F8012158
:100F000007480C3800F021F809B000BD150030008A
:100F10000C380040B800002010600240F8000020AB
:100F20000C3C0040000000204000002040610240D6
:100F30000F00400000210170417002214160012139
:100F400001720021417281727047C26961F38A2285
:100F5000C26170472DE9FF4704460D464FF0000877
:100F600002274FF0000900266868022801D100BF5F
:100F700051E06846FFF714FCDDF80080687803282C
:100F800002D06878042823D1A87A012809D14FEA31
:100F9000D81000EB800040006968B0FBF1F0461DFE
:100FA00039E0287A012809D14FEA181000EB8000B7
:100FB00040006968B0FBF1F0461D2CE04FEA581084
:100FC00000EB800040006968B0FBF1F0461D22E0B4
:100FD000A87A012809D14FEA182000EB80004000D0
:100FE0006968B0FBF1F0461D15E0287A012809D1A7
:100FF0004FEA581000EB800040006968B0FBF1F048
:10100000461D08E04FEA981000EB80004000696838
:10101000B0FBF1F0461D0A20B6FBF0F606F0010920
:10102000A6EB09004708022F02D3B7F5806F02D361
:101030004FF000090227206A69F308202062FF2F81
:1010400009D9390A206A61F38B202062206A67F38C
:101050000700206207E0206A20F440602062206AD6
:1010600067F307002062687804280AD1E06920F05D
:1010700080008030E061E06920F030003030E061D5
:1010800030E06878032809D1E06920F08000E06151
:10109000E06920F030003030E06123E06878022819
:1010A00009D1E06920F08000E061E06920F03000C3
:1010B0002030E06116E06878012809D1E06920F06D
:1010C0008000E061E06920F030001030E06109E06C
:1010D000687838B9E06920F08000E061E06920F0CC
:1010E0003000E061287A012808D1E06920F0010091
:1010F000E061E06920F00600E06127E0287A02283C
:1011000009D1E06920F00100401CE061E06920F0B5
:101110000600E0611AE0287A03280AD1E06920F08D
:101120000100401CE061E06920F00600801CE061E5
:101130000CE0287A042809D1E06920F00100401C65
:10114000E061E06920F00600001DE061697AE06975
:1011500061F3C300E061A97A206A61F3492020624B
:101160002978E06961F30920E061E06920F400601A
:1011700000F50060E061BDE8FF87032000F06EF835
:1011800000F08AF8FFF70EFAFFF724FDFFF70CFED8
:1011900000BFFEE72DE9F0470B4614464FF0000C68
:1011A00000BF2C4A1268C2F302211D4626460A4699
:1011B000C2F10709B9F1040F02D94FF0040901E0A7
:1011C000C2F10709C84602F10409B9F1070F02D2BA
:1011D0004FF0000901E0A2F103094F464FF0010969
:1011E00009FA08F9A9F1010909EA050909FA07F953
:1011F0004FF0010A0AFA07FAAAF1010A0AEA060AF6
:1012000049EA0A09CC4601466246002904DB150773
:101210002E0E114D6E5407E015072F0E0D4D0C3597
:1012200001F00F06361FAF5500BF014600290DDB48
:1012300000BF00BF01F01F050122AA404D09AD000B
:1012400005F1E025C5F8002100BF00BF00BFBDE8E3
:10125000F08700000CED00E000E400E000BF00F0CB
:101260000702064B19684FF6FF031940044B0B4366
:1012700043EA0221014B196000BF70470CED00E00A
:101280000000FA05426861F300024260704742685C
:1012900061F341024260704710B501212248FFF717
:1012A00037FB2248006920F00700401C1F490861F5
:1012B0001F48006820F00300401C1D490860FFF72C
:1012C00067FB01210846FFF737FA00BFFFF708FB6D
:1012D0000028FBD001231A4648211846FFF73EFBA1
:1012E00001210220FFF728FA00BF1920FFF7E0FADA
:1012F0000128FAD10020FFF7EDF90420FFF7FEF9ED
:101300000420FFF7F1F90120FFF702FA0220FFF7AE
:1013100079FB00BFFFF780FB0228FBD10020FFF71D
:10132000F7F900F007F810BD1C0040000070004005
:10133000603C02402DE9FC5F002400250026A14608
:10134000A246A34600200190FFF766FB009000989C
:1013500020B1012814D0022841D115E02B480068A3
:10136000C0F3803040B129480068C0F3003018B1A4
:1013700027482849086002E027482649086032E0EB
:101380002548244908602EE020489C380068C0F3B6
:1013900080591E489C380068C0F388141B489C384C
:1013A000006800F00F0519489C380068C0F302403F
:1013B0001A490E5CB9F1000F02D1DFF85CA001E020
:1013C000DFF854A005FB06FCAAFB04700146624648
:1013D00000233846FEF78BFF0E49086003E00E48F5
:1013E0000C49086000BF00BF084898380068C0F387
:1013F000031B0B4810F80B00019006480068019988
:10140000C84004490860BDE8FC9F0000A0380240C5
:10141000006CDC02B400002000127A008C1400087A
:101420007C140008042808D14FF0E021096941F03C
:1014300004014FF0E022116107E04FF0E02109695B
:1014400021F004014FF0E022116170474FF040702D
:10145000E1EE100A704700000000000000000102E9
:10146000030406070809000000000102030400004D
:101470000000010203040102040810200000000023
:101480000000000001020304060708090102040825
:1014900010200000B414000800000020B800000074
:1014A000480200086C150008B8000020E0060000A3
:1014B0006402000802010403060508070A090C0B70
:1014C0000E0D100F12111413161518171A191C1BD4
:1014D0001E1D201F22212423262528272A292C2BC4
:1014E0002E2D302F32313433363538373A393C3BB4
:1014F0003E3D403F42414443464548474A494C4BA4
:101500004E4D504F52515453565558575A595C5B93
:101510005E5D605F62616463666568676A696C6B83
:101520006E6D706F72717473767578777A797C7B73
:101530007E7D807F00000000000C0240000C024015
:10154000000C02400020004000800000030030003A
:101550000300300003003000000000000000000025
:0C156000000000000100000000127A00F2
:040000050800020DE0
:00000001FF
