:020000040800F2
:10000000A8060020AD020008570400084F040008AD
:10001000530400084904000811050008000000000E
:100020000000000000000000000000005B04000869
:100030004D04000800000000590400085D04000899
:10004000C7020008C7020008C7020008C70200086C
:10005000C7020008C7020008C7020008C70200085C
:10006000C7020008C7020008C7020008C70200084C
:10007000C7020008C7020008C7020008C70200083C
:10008000C7020008C7020008C7020008C70200082C
:10009000C7020008C7020008C7020008C70200081C
:1000A000C7020008F1040008C7020008C7020008E0
:1000B000C7020008C7020008C7020008C7020008FC
:1000C000C7020008C7020008C7020008C7020008EC
:1000D000C7020008C7020008C7020008C7020008DC
:1000E000C7020008C7020008C7020008C7020008CC
:1000F000C7020008C7020008C7020008C7020008BC
:10010000C7020008C7020008C7020008C7020008AB
:10011000C7020008C7020008C7020008C70200089B
:10012000C7020008C7020008C7020008C70200088B
:10013000C7020008C7020008C7020008C70200087B
:10014000C7020008C7020008C7020008C70200086B
:10015000C7020008C702000800000000C70200082C
:10016000C7020008C70200080000000000000000ED
:10017000C7020008C7020008C7020008000000000C
:1001800000000000C7020008C7020008C7020008FC
:10019000C70200080000000000000000000000008E
:1001A000000000000000000000000000C70200087E
:1001B000C702000800000000C7020008000000009D
:1001C000000000000000000000000000000000002F
:1001D0000000000000000000C7020008C70200087D
:1001E000C7020008C7020008C7020008C7020008CB
:1001F000C7020008C7020008C7020008C7020008BB
:10020000C7020008C7020008C702000800F002F891
:1002100000F03CF80AA090E8000C82448344AAF164
:100220000107DA4501D100F031F8AFF2090EBAE862
:100230000F0013F0010F18BFFB1A43F0010318471A
:10024000EC0B00000C0C0000103A24BF78C878C1F9
:10025000FAD8520724BF30C830C144BF04680C60CC
:10026000704700000023002400250026103A28BF14
:1002700078C1FBD8520728BF30C148BF0B60704718
:100280001FB500F0B0FD1FBD10B510BD00F0AAF8FD
:100290001146FFF7F5FF00F0EDFB00F0C8F803B4DE
:1002A000FFF7F2FF03BC00F035F900000948804772
:1002B00009480047FEE7FEE7FEE7FEE7FEE7FEE748
:1002C000FEE7FEE7FEE7FEE704480549054A064B60
:1002D00070470000610400080D020008A80000201B
:1002E000A8060020A8020020A8020020704753EAB8
:1002F000020C00F069802DE9F04B4FF00006002B56
:100300001FBFB3FA83F503FA05F424FA05F65E403D
:1003100012BF1643B2FA82F502FA05F4C5F12005C0
:100320001EBF22FA05FC44EA0C04203556EA044CB0
:100330004FEA144418BF641C4FF000084FF0000946
:10034000904271EB030C39D3002919BFB1FA81F740
:1003500001FA07F6B0FA80F700FA07F6C7F12007AE
:100360001EBF20FA07FC46EA0C062037B6FBF4FC59
:10037000A7EB0507103F07F01F0BCBF120060CFA87
:100380000BFB2CFA06F644BFB3460026202FA4BF71
:100390005E464FF0000B5BEA060C08BF4FF0010B06
:1003A00019EB0B09ABFB027C48EB0608C01B06FBF4
:1003B00002CC0BFB03CC71EB0C01C1E70B460246F0
:1003C00041464846BDE8F08B13B54FF000004FF0B2
:1003D0000001AFF30080BDE81C40704770477047D4
:1003E00070477047754600F02BF8AE460500694629
:1003F000534620F00700854618B020B5FFF764FF8C
:10040000BDE820404FF000064FF000074FF0000815
:100410004FF0000B21F00701AC46ACE8C009ACE896
:10042000C009ACE8C009ACE8C0098D46704710B5FA
:100430000446AFF300802046BDE81040FFF72FBF11
:10044000004870474400002000BFFEE7704700BF2F
:10045000FEE700BFFEE77047704770477047000037
:100460001F48006840F470001D4908601D4800687E
:1004700020F00100401C1B49086000BF19480068BB
:10048000C0F340000028F9D016480830006820F07A
:10049000030014490831086000BF124808300068A2
:1004A000C0F381000028F8D10E49083108600D48DA
:1004B00000680D4908400B4908600C48091D086098
:1004C00000200849A03108604FF41F0005490C3195
:1004D00008604FF0006002498039086070470000F2
:1004E00088ED00E000380240FFFFF2FE023003001A
:1004F00010B50121054800F062FC012805D100F08B
:1005000091F80121014800F057FC10BD00000140A6
:1005100000BFFEE700BF704710B500F047FA0020AB
:1005200000F030F8012000F02DF8022000F02AF849
:10053000002000F04FF8012000F04CF8022000F0FD
:1005400049F800F001F810BD1CB501214FF440102E
:1005500000F0A0F9684600F045FA01208DF8070088
:1005600000208DF804008DF8060001200090022084
:100570008DF805006946024800F03EFA1CBD0000F7
:10058000000002401CB504460F4951F82400012127
:1005900000F080F9684600F025FA01208DF8070088
:1005A00000208DF8040001208DF80600074830F87F
:1005B0001400009000208DF80500054951F8240032
:1005C000694600F019FA1CBD140000200C00002040
:1005D00000000020022800DD7047064931F81010A5
:1005E00031B1044931F81010034A52F820209161CA
:1005F00000BFF1E70C00002000000020022800DD11
:100600007047064931F8101031B1044931F8101023
:10061000034A52F82020916200BFF1E70C0000204D
:1006200000000020022800DD7047094931F8101051
:1006300059B1084951F820104969054A32F810208B
:100640005140044A52F82020516100BFECE70000FD
:100650000C000020000000200349096860F3071126
:10066000014A1160704700000838024003490968D8
:1006700060F38C21014A1160704700000838024085
:100680000349096860F34F31014A11607047000067
:1006900008380240012807D10749096821F03001D4
:1006A0003031054A116005E00349096821F0300145
:1006B000014A116070470000A438024005282BD27F
:1006C000DFE800F0030A11182100154A126861F3EF
:1006D0000002134B1A6020E0114A126861F31042C5
:1006E0000F4B1A6019E00E4A126861F318620C4B46
:1006F0001A6012E00A4A7032126861F30002084B75
:1007000070331A6009E0064A7432126861F300021D
:10071000034B74331A6000E000BF00BF7047000055
:10072000003802402DE9FE4F04464FF00009CA464A
:10073000CB460020029001900025002600F02EF903
:100740000090009820B1012812D002283FD112E079
:1007500031480068C0F3803038B12F480068C0F3DA
:10076000003010B12D48206001E02D48206031E0BC
:100770002B4820602EE028489C380068C0F3805049
:10078000029025489C380068C0F3881922489C389C
:10079000006800F00F0A20489C380068C0F302404F
:1007A000204911F800B0029810B91D48019001E0ED
:1007B0001B4801900AFB0BFC0198A0FB0970014645
:1007C000624600233846FFF792FD206002E014489D
:1007D000206000BF00BF104898380068C0F30315C0
:1007E0001148465D2068F04060600B48983800680A
:1007F000C0F382250D48465D6068F040E060064821
:1008000098380068C0F342350948465D6068F0409A
:10081000A060BDE8FE8F0000A0380240006CDC0242
:1008200000127A00100E0008F00D0008000E0008FB
:10083000080E000810B501460020094B03EB1142D9
:10084000D2F8002801F01F040123A3401A4001F050
:100850001F040123A3409A4200D000E0012010BDF4
:100860000030024030B50024002500E0641C112057
:10087000FFF7E0FF012802D0B4F5405FF6D3112066
:10088000FFF7D8FF012801D0002500E00125284608
:1008900030BD000010B501290FD1104B03EB104201
:1008A000D2F8002800F01F040123A3401A430B4C88
:1008B00004EB1043C3F800280EE0084B03EB104292
:1008C000D2F8002800F01F040123A3409A43034CF0
:1008D00004EB1043C3F8002810BD000000300240B4
:1008E00030B50B4C246860F39654094D2C602C46AF
:1008F000246861F38E142C602C46246862F3030490
:100900002C602C46246863F312442C6030BD000038
:10091000043802401948006820F00100401C1749C3
:10092000086000BF15480068C0F340000028F9D0F7
:1009300012480830006820F00300104908310860B0
:1009400000BF0E4808300068C0F381000028F8D1CD
:100950000A49083108600948006809490840074900
:1009600008600848091D086000200449A03108609B
:100970004FF41F0001490C310860704700380240F5
:10098000FFFFF2FE023003000349096860F3010132
:10099000014A1160704700000838024002480068B0
:1009A000C0F38100704700000838024010B50420F1
:1009B00000F0DCF9074800680749B0FBF1F007498F
:1009C0000860084600684FF47A714843044908609B
:1009D00010BD00003000002040420F002000002029
:1009E000240000204FF6FF71016000218171017128
:1009F00041710121C171704770B50A460021148808
:100A0000A3B233E003F001046CB304684E00032585
:100A1000B540AC43046094794D00AC4005682C436C
:100A20000460446801258D40AC43446044681579F6
:100A30008D402C43446084684E000325B540AC4390
:100A40008460D4794D00AC4085682C438460C468D0
:100A50004E000325B540AC43C46054794D00AC4012
:100A6000C5682C43C4605B104C1CA1B2002BC9DCD0
:100A700070BD000000F0B4F8FFF74EFD1A48FFF714
:100A800051FE0020FFF7BAFD0120FFF7B7FD02205D
:100A9000FFF7B4FD01214FF48800FFF7FBFE124879
:100AA0008068400042F21071B0FBF1F0441E224613
:100AB000491E0E4800F06EF900210C4800F072F952
:100AC00001221146094800F083F9032000F074F870
:100AD00000220121192000F00BF80121034800F049
:100AE00066F900BFFEE7000034000020000001406E
:100AF0002DE9F0470B4614464FF0000C00BF2C4A7E
:100B00001268C2F302211D4626460A46C2F10709B1
:100B1000B9F1040F02D94FF0040901E0C2F107094D
:100B2000C84602F10409B9F1070F02D24FF00009DB
:100B300001E0A2F103094F464FF0010909FA08F953
:100B4000A9F1010909EA050909FA07F94FF0010AB3
:100B50000AFA07FAAAF1010A0AEA060A49EA0A09A0
:100B6000CC4601466246002904DB15072E0E114DC6
:100B70006E5407E015072F0E0D4D0C3501F00F06D2
:100B8000361FAF5500BF014600290DDB00BF00BF77
:100B900001F01F050122AA404D09AD0005F1E02535
:100BA000C5F8002100BF00BF00BFBDE8F08700000E
:100BB0000CED00E000E400E000BF00F00702064B8F
:100BC00019684FF6FF031940044B0B4343EA022117
:100BD000014B196000BF70470CED00E00000FA0502
:100BE00010B501212248FFF755FE2248006920F088
:100BF0000700401C1F4908611F48006820F00300DF
:100C0000401C1D490860FFF785FE01210846FFF7DB
:100C100055FD00BFFFF726FE0028FBD001231A4632
:100C200048211846FFF75CFE01210220FFF746FD30
:100C300000BF1920FFF7FEFD0128FAD10020FFF7C1
:100C40000BFD0420FFF71CFD0420FFF70FFD012022
:100C5000FFF720FD0220FFF797FE00BFFFF79EFE83
:100C60000228FBD10020FFF715FD00F007F810BDAA
:100C70001C00400000700040603C02402DE9FC5F19
:100C8000002400250026A146A246A346002001908C
:100C9000FFF784FE0090009820B1012814D00228AC
:100CA00041D115E02B480068C0F3803040B129489D
:100CB0000068C0F3003018B127482849086002E0F6
:100CC00027482649086032E02548244908602EE07C
:100CD00020489C380068C0F380591E489C38006842
:100CE000C0F388141B489C38006800F00F051948B1
:100CF0009C380068C0F302401A490E5CB9F1000F3D
:100D000002D1DFF85CA001E0DFF854A005FB06FC8F
:100D1000AAFB04700146624600233846FFF7E7FA53
:100D20000E49086003E00E480C49086000BF00BF90
:100D3000084898380068C0F3031B0B4810F80B00F4
:100D40000190064800680199C84004490860BDE860
:100D5000FC9F0000A0380240006CDC023000002044
:100D600000127A00260E0008160E0008042808D18A
:100D70004FF0E021096941F004014FF0E0221161D8
:100D800007E04FF0E021096921F004014FF0E02273
:100D900011617047C1628262436923F001035B1CE9
:100DA00043617047026861F306120260704702688F
:100DB00061F3000202607047CA4302617047024655
:100DC000002013690B400BB1012000E000207047A8
:100DD000012A03D1C3680B43C36003E012B9C3689F
:100DE0008B43C36070474FF04070E1EE100A7047CC
:100DF00000000000000000000102030406070809CB
:100E000000000000010203040000000001020304CE
:100E10000102040810200000000000000000010290
:100E20000304060708090102040810204C0E0008FC
:100E3000000000203400000048020008800E000876
:100E4000340000207406000064020008000C024018
:100E5000000C0240000C0240002000400080000016
:100E600003003000030030000300300000000000E9
:100E700000000000000000000100000000127A00E5
:040000050800020DE0
:00000001FF
