:020000040800F2
:1000000048070020AD020008570400084F0400080C
:100010005304000849040008F1040008000000002F
:100020000000000000000000000000005B04000869
:100030004D04000800000000590400085D04000899
:10004000C7020008C7020008C7020008C70200086C
:10005000C7020008C7020008C7020008C70200085C
:10006000C7020008C7020008C7020008C70200084C
:10007000C7020008C7020008C7020008C70200083C
:10008000C7020008C7020008C7020008C70200082C
:10009000C7020008C7020008C7020008C70200081C
:1000A000C7020008C7020008C7020008C70200080C
:1000B000C7020008C7020008C7020008C7020008FC
:1000C000C7020008C7020008C7020008C7020008EC
:1000D000C7020008C7020008C7020008C7020008DC
:1000E000C7020008C7020008C7020008C7020008CC
:1000F000C7020008C7020008C7020008C7020008BC
:10010000C7020008C7020008C7020008C7020008AB
:10011000C7020008C7020008C7020008C70200089B
:10012000C7020008C7020008C7020008C70200088B
:10013000C7020008C7020008C7020008C70200087B
:10014000C7020008C7020008C7020008C70200086B
:10015000C7020008C702000800000000C70200082C
:10016000C7020008C70200080000000000000000ED
:10017000C7020008C7020008C7020008000000000C
:1001800000000000C7020008C7020008C7020008FC
:10019000C70200080000000000000000000000008E
:1001A000000000000000000000000000C70200087E
:1001B000C702000800000000C7020008000000009D
:1001C000000000000000000000000000000000002F
:1001D0000000000000000000C7020008C70200087D
:1001E000C7020008C7020008C7020008C7020008CB
:1001F000C7020008C7020008C7020008C7020008BB
:10020000C7020008C7020008C702000800F002F891
:1002100000F03CF80AA090E8000C82448344AAF164
:100220000107DA4501D100F031F8AFF2090EBAE862
:100230000F0013F0010F18BFFB1A43F0010318471A
:100240000C0E00002C0E0000103A24BF78C878C1B4
:10025000FAD8520724BF30C830C144BF04680C60CC
:10026000704700000023002400250026103A28BF14
:1002700078C1FBD8520728BF30C148BF0B60704718
:100280001FB500F0A0FE1FBD10B510BD00F0AAF80C
:100290001146FFF7F5FF00F0D3FC00F0C8F803B4F7
:1002A000FFF7F2FF03BC00F025F900000948804782
:1002B00009480047FEE7FEE7FEE7FEE7FEE7FEE748
:1002C000FEE7FEE7FEE7FEE704480549054A064B60
:1002D00070470000610400080D020008480100207A
:1002E000480700204803002048030020704753EAD5
:1002F000020C00F069802DE9F04B4FF00006002B56
:100300001FBFB3FA83F503FA05F424FA05F65E403D
:1003100012BF1643B2FA82F502FA05F4C5F12005C0
:100320001EBF22FA05FC44EA0C04203556EA044CB0
:100330004FEA144418BF641C4FF000084FF0000946
:10034000904271EB030C39D3002919BFB1FA81F740
:1003500001FA07F6B0FA80F700FA07F6C7F12007AE
:100360001EBF20FA07FC46EA0C062037B6FBF4FC59
:10037000A7EB0507103F07F01F0BCBF120060CFA87
:100380000BFB2CFA06F644BFB3460026202FA4BF71
:100390005E464FF0000B5BEA060C08BF4FF0010B06
:1003A00019EB0B09ABFB027C48EB0608C01B06FBF4
:1003B00002CC0BFB03CC71EB0C01C1E70B460246F0
:1003C00041464846BDE8F08B13B54FF000004FF0B2
:1003D0000001AFF30080BDE81C40704770477047D4
:1003E00070477047754600F02BF8AE460500694629
:1003F000534620F00700854618B020B5FFF764FF8C
:10040000BDE820404FF000064FF000074FF0000815
:100410004FF0000B21F00701AC46ACE8C009ACE896
:10042000C009ACE8C009ACE8C0098D46704710B5FA
:100430000446AFF300802046BDE81040FFF72FBF11
:1004400000487047E400002000BFFEE7704700BF8F
:10045000FEE700BFFEE77047704770477047000037
:100460001F48006840F470001D4908601D4800687E
:1004700020F00100401C1B49086000BF19480068BB
:10048000C0F340000028F9D016480830006820F07A
:10049000030014490831086000BF124808300068A2
:1004A000C0F381000028F8D10E49083108600D48DA
:1004B00000680D4908400B4908600C48091D086098
:1004C00000200849A03108604FF41F0005490C3195
:1004D00008604FF0006002498039086070470000F2
:1004E00088ED00E000380240FFFFF2FE023003001A
:1004F00000BFFEE700BF704710B500F0C3FA002050
:1005000000F030F8012000F02DF8022000F02AF869
:10051000002000F04FF8012000F04CF8022000F01D
:1005200049F800F001F810BD1CB501214FF440104E
:1005300000F086F9684600F03BFB01208DF80700CB
:1005400000208DF804008DF80600012000900220A4
:100550008DF805006946024800F034FB1CBD000020
:10056000000002401CB504460F4951F82400012147
:1005700000F066F9684600F01BFB01208DF80700CB
:1005800000208DF8040001208DF80600074830F89F
:100590001400009000208DF80500054951F8240052
:1005A000694600F00FFB1CBD200000201800002051
:1005B0000C000020022800DD7047064931F81010B9
:1005C00031B1044931F81010034A52F820209161EA
:1005D00000BFF1E7180000200C000020022800DD19
:1005E0007047064931F8101031B1044931F8101044
:1005F000034A52F82020916200BFF1E71800002062
:100600000C0000200349096860F30711014A1160DA
:1006100070470000083802400349096860F38C21E4
:10062000014A116070470000083802400349096818
:1006300060F34F31014A11607047000008380240F2
:10064000012807D10749096821F030013031054AF6
:10065000116005E00349096821F03001014A116089
:1006600070470000A438024005282BD2DFE800F0D4
:10067000030A11182100154A126861F30002134B96
:100680001A6020E0114A126861F310420F4B1A60A1
:1006900019E00E4A126861F318620C4B1A6012E0FE
:1006A0000A4A7032126861F30002084B70331A6014
:1006B00009E0064A7432126861F30002034B743396
:1006C0001A6000E000BF00BF704700000038024021
:1006D0002DE9FE4F04464FF00009CA46CB460020E4
:1006E000029001900025002600F02EF9009000985D
:1006F00020B1012812D002283FD112E03148006811
:10070000C0F3803038B12F480068C0F3003010B11A
:100710002D48206001E02D48206031E02B4820600A
:100720002EE028489C380068C0F38050029025488D
:100730009C380068C0F3881922489C38006800F093
:100740000F0A20489C380068C0F30240204911F885
:1007500000B0029810B91D48019001E01B480190BB
:100760000AFB0BFC0198A0FB0970014662460023BE
:100770003846FFF7BCFD206002E01448206000BF4F
:1007800000BF104898380068C0F303151148465D53
:100790002068F04060600B4898380068C0F38225FC
:1007A0000D48465D6068F040E06006489838006893
:1007B000C0F342350948465D6068F040A060BDE87E
:1007C000FE8F0000A0380240006CDC0200127A00AC
:1007D0003010000810100008201000082810000831
:1007E00010B501460020094B03EB1142D2F8002856
:1007F00001F01F040123A3401A4001F01F0401234C
:10080000A3409A4200D000E0012010BD0030024019
:1008100030B50024002500E0641C1120FFF7E0FF44
:10082000012802D0B4F5405FF6D31120FFF7D8FFBE
:10083000012801D0002500E00125284630BD000038
:1008400010B501290FD1104B03EB1042D2F800284C
:1008500000F01F040123A3401A430B4C04EB104388
:10086000C3F800280EE0084B03EB1042D2F8002832
:1008700000F01F040123A3409A43034C04EB1043F0
:10088000C3F8002810BD00000030024030B50B4C0A
:10089000246860F39654094D2C602C46246861F35B
:1008A0008E142C602C46246862F303042C602C46C2
:1008B000246863F312442C6030BD00000438024009
:1008C0001948006820F00100401C1749086000BF6B
:1008D00015480068C0F340000028F9D012480830DD
:1008E000006820F0030010490831086000BF0E487E
:1008F00008300068C0F381000028F8D10A490831A7
:100900000860094800680949084007490860084824
:10091000091D086000200449A03108604FF41F0041
:1009200001490C310860704700380240FFFFF2FEB9
:10093000023003000349096860F30101014A1160B4
:10094000704700000838024002480068C0F3810088
:100950007047000008380240012802D002280ED15A
:1009600006E0084A126861F30C32064B1A6007E091
:10097000044A126861F31C72024B1A6000E000BF67
:1009800000BF704700740040012802D002280ED139
:1009900006E0084A126861F30002064B1A6007E09D
:1009A000044A126861F31042024B1A6000E000BF73
:1009B00000BF70470074004009B9012200E0002226
:1009C0001146012802D002280ED106E0084A12681A
:1009D00061F34102064B1A6007E0054A126861F3B1
:1009E0005142034B1A6000E000BF00BF7047000097
:1009F00000740040012802D002280ED106E0084A07
:100A0000126861F38202064B1A6007E0044A12681A
:100A100061F39242024B1A6000E000BF00BF7047D2
:100A200000740040012802D002280ED106E0084AD6
:100A3000126861F3C502064B1A6007E0044A1268A7
:100A400061F3D542024B1A6000E000BF00BF70475F
:100A500000740040012802D002280ED106E0084AA6
:100A6000126861F38712064B1A6007E0044A1268A5
:100A700061F39752024B1A6000E000BF00BF70475D
:100A80000074004010B5042000F072FA07480068B6
:100A90000749B0FBF1F007490860084600684FF4C9
:100AA0007A7148430449086010BD00003C000020F2
:100AB00040420F002C00002030000020026861F34B
:100AC00000020260704702684BF6EF731A40026042
:100AD00002680B891A4302604B7C026863F30D3293
:100AE0000260CB7B026863F38B2202608B7B02681F
:100AF00063F3092202604B7B026863F3C712026052
:100B00000B7B026863F3861202600B7C026863F35E
:100B1000451202604B89426863F30F0242600A6823
:100B200082604A68C26070470021026822F00102B8
:100B300002600022026042608260C260014640F2B0
:100B4000FF620A40B2F5C16F0DD2CAB2083A14234F
:100B5000B2FBF3F293000F229A400D4B1B681A432D
:100B60000B4B1A6012E040F2FF620A40B2F5D16FFF
:100B70000CD2CAB2083A1423B2FBF3F293000F224C
:100B80009A40044B1B681A43024B1A6070470000DE
:100B90000464024004660240D0F8002161F30002C0
:100BA000C0F800217047026861F3060202607047D6
:100BB0004FF6FF71016000218171017141710121C6
:100BC000C171704770B50A4600211488A3B233E0A2
:100BD00003F001046CB304684E000325B540AC4338
:100BE000046094794D00AC4005682C43046044686F
:100BF00001258D40AC434460446815798D402C43F9
:100C0000446084684E000325B540AC438460D479C9
:100C10004D00AC4085682C438460C4684E000325B9
:100C2000B540AC43C46054794D00AC40C5682C431A
:100C3000C4605B104C1CA1B2002BC9DC70BD00006D
:100C400000F0D0F8FFF758FC0020FFF7C7FC0120A8
:100C5000FFF7C4FC0220FFF7C1FC01215548FFF754
:100C6000EFFD01215448FFF7EBFD01218805FFF757
:100C7000E7FD01214FF44010FFF7E2FD30204F491E
:100C80000860032088710020087148710120C87134
:100C90004B48FFF797FF4B48FFF71AFD494800689C
:100CA0004949B0FBF1F0441E224663214FF08040D9
:100CB00000F072F900214FF0804000F075F9022138
:100CC000480700F07BF904210120FFF7ABFE042167
:100CD0000220FFF7A7FE01210846FFF78BFE012146
:100CE0000220FFF787FE00210120FFF7B3FE00215D
:100CF0000220FFF7AFFE00210120FFF75DFE00217B
:100D00000220FFF759FE01210846FFF725FE0121C9
:100D10000220FFF721FE00202C49086010E02C483B
:100D20002A49096830F8110000EB00412948274A98
:100D3000126840F8221025480068401C23490860CA
:100D4000224800682028EAD32348FFF7EDFE202040
:100D500022494881102008811E4848600220C8733B
:100D6000012048731E480860022088730020087321
:100D70000120487408741848FFF7A5FE01211648A1
:100D80000838FFF709FF29211348FC30FFF70BFF54
:100D900001211148FFF792FE01210846FFF7F4FDFB
:100DA00001210220FFF7F0FD0121880700F001F981
:100DB00000BFFEE7160030001D00400000000020CC
:100DC000000002405400002040420F0008000020B4
:100DD000D00F00086400002008640240400000209A
:100DE0002074004010B501212248FFF729FD224858
:100DF000006920F00700401C1F4908611F48006877
:100E000020F00300401C1D490860FFF759FD012137
:100E10000846FFF729FC00BFFFF7FAFC0028FBD0CB
:100E200001231A4648211846FFF730FD0121022010
:100E3000FFF71AFC00BF1920FFF7D2FC0128FAD1F6
:100E40000020FFF7DFFB0420FFF7F0FB0420FFF793
:100E5000E3FB0120FFF7F4FB0220FFF76BFD00BF6F
:100E6000FFF772FD0228FBD10020FFF7E9FB00F03D
:100E700007F810BD1C00400000700040603C0240BC
:100E80002DE9FC5F002400250026A146A246A346CA
:100E900000200190FFF758FD0090009820B1012834
:100EA00014D0022841D115E02B480068C0F38030EF
:100EB00040B129480068C0F3003018B127482849DC
:100EC000086002E027482649086032E025482449A6
:100ED00008602EE020489C380068C0F380591E4806
:100EE0009C380068C0F388141B489C38006800F0E8
:100EF0000F0519489C380068C0F302401A490E5C7F
:100F0000B9F1000F02D1DFF85CA001E0DFF854A0D6
:100F100005FB06FCAAFB0470014662460023384626
:100F2000FFF7E5F90E49086003E00E480C49086038
:100F300000BF00BF084898380068C0F3031B0B4887
:100F400010F80B000190064800680199C840044958
:100F50000860BDE8FC9F0000A0380240006CDC0285
:100F60003C00002000127A004610000836100008ED
:100F7000042808D14FF0E021096941F004014FF045
:100F8000E022116107E04FF0E021096921F004013E
:100F90004FF0E02211617047C1628262436923F021
:100FA00001035B1C43617047026861F30612026033
:100FB0007047026861F3000202607047426861F3A3
:100FC0000612426070474FF04070E1EE100A704721
:100FD000FF078F090F0B710CAA0DA60E630FD80F18
:100FE000FF0FD80F630FA60EA70D710C0F0B8F0903
:100FF000FF076F06EF048D03570258019B00260080
:10100000000026009B00580157028D03EF046F0675
:1010100000000000000000000102030406070809A8
:1010200000000000010203040000000001020304AC
:10103000010204081020000000000000000001026E
:101040000304060708090102040810206C100008B8
:10105000000000204000000048020008AC1000081A
:1010600040000020080700006402000800000000A3
:101070000000000000000000000C0240000C0240D4
:10108000000C0240002000400080000003003000FF
:1010900003003000030030000000000000000000EA
:0C10A000000000000100000000127A00B7
:040000050800020DE0
:00000001FF
