:020000040800F2
:1000000008070020AD020008750400086D04000810
:1000100071040008490400080D05000800000000F4
:10002000000000000000000000000000790400084B
:100030005504000800000000770400087B04000855
:10004000C7020008C7020008C7020008C70200086C
:10005000C7020008C7020008C7020008C70200085C
:10006000C7020008C7020008C7020008C70200084C
:10007000C7020008C702000857040008C7020008AA
:10008000C7020008C7020008C7020008C70200082C
:10009000C7020008C7020008C7020008C70200081C
:1000A000C7020008C7020008C7020008C70200080C
:1000B000C7020008C7020008C7020008C7020008FC
:1000C000C7020008C7020008C7020008C7020008EC
:1000D000C7020008C7020008C7020008C7020008DC
:1000E000C7020008C7020008C7020008C7020008CC
:1000F000C7020008C7020008C7020008C7020008BC
:10010000C7020008C7020008C7020008C7020008AB
:10011000C7020008C7020008C7020008C70200089B
:10012000C7020008C7020008C7020008C70200088B
:10013000C7020008C7020008C7020008C70200087B
:10014000C7020008C7020008C7020008C70200086B
:10015000C7020008C702000800000000C70200082C
:10016000C7020008C70200080000000000000000ED
:10017000C7020008C70200084D0400080000000084
:1001800000000000C7020008C7020008C7020008FC
:10019000C70200080000000000000000000000008E
:1001A000000000000000000000000000C70200087E
:1001B000C702000800000000C7020008000000009D
:1001C000000000000000000000000000000000002F
:1001D0000000000000000000C7020008C70200087D
:1001E000C7020008C7020008C7020008C7020008CB
:1001F000C7020008C7020008C7020008C7020008BB
:10020000C7020008C7020008C702000800F002F891
:1002100000F03CF80AA090E8000C82448344AAF164
:100220000107DA4501D100F031F8AFF2090EBAE862
:100230000F0013F0010F18BFFB1A43F0010318471A
:100240004C8300006C830000103A24BF78C878C14A
:10025000FAD8520724BF30C830C144BF04680C60CC
:10026000704700000023002400250026103A28BF14
:1002700078C1FBD8520728BF30C148BF0B60704718
:100280001FB502F04CFB1FBD10B510BD00F0AAF861
:100290001146FFF7F5FF01F05BFC00F0C8F803B46E
:1002A000FFF7F2FF03BC00F033F900000948804774
:1002B00009480047FEE7FEE7FEE7FEE7FEE7FEE748
:1002C000FEE7FEE7FEE7FEE704480549054A064B60
:1002D000704700007D0400080D020008080100209E
:1002E000080700200803002008030020704753EA95
:1002F000020C00F069802DE9F04B4FF00006002B56
:100300001FBFB3FA83F503FA05F424FA05F65E403D
:1003100012BF1643B2FA82F502FA05F4C5F12005C0
:100320001EBF22FA05FC44EA0C04203556EA044CB0
:100330004FEA144418BF641C4FF000084FF0000946
:10034000904271EB030C39D3002919BFB1FA81F740
:1003500001FA07F6B0FA80F700FA07F6C7F12007AE
:100360001EBF20FA07FC46EA0C062037B6FBF4FC59
:10037000A7EB0507103F07F01F0BCBF120060CFA87
:100380000BFB2CFA06F644BFB3460026202FA4BF71
:100390005E464FF0000B5BEA060C08BF4FF0010B06
:1003A00019EB0B09ABFB027C48EB0608C01B06FBF4
:1003B00002CC0BFB03CC71EB0C01C1E70B460246F0
:1003C00041464846BDE8F08B13B54FF000004FF0B2
:1003D0000001AFF30080BDE81C40704770477047D4
:1003E00070477047754600F02BF8AE460500694629
:1003F000534620F00700854618B020B5FFF764FF8C
:10040000BDE820404FF000064FF000074FF0000815
:100410004FF0000B21F00701AC46ACE8C009ACE896
:10042000C009ACE8C009ACE8C0098D46704710B5FA
:100430000446AFF300802046BDE81040FFF72FBF11
:1004400000487047A800002000BFFEE710B500F08C
:10045000D5FB10BD704710B54FF0C05000F010FD37
:1004600018B14FF0C05000F0FDFC10BD00BFFEE71A
:1004700000BFFEE770477047704770471F4800682D
:1004800040F470001D4908601D48006820F001001C
:10049000401C1B49086000BF19480068C0F34000B9
:1004A0000028F9D016480830006820F003001449ED
:1004B0000831086000BF124808300068C0F38100AE
:1004C0000028F8D10E49083108600D4800680D4930
:1004D00008400B4908600C48091D086000200849C5
:1004E000A03108604FF41F0005490C3108604FF03F
:1004F00000600249803908607047000088ED00E024
:1005000000380240FFFFF2FE0230030000BFFEE7AA
:1005100000BF704710B500F0D1F9002000F030F8AE
:10052000012000F02DF8022000F02AF8002000F051
:100530004FF8012000F04CF8022000F049F800F0DC
:1005400001F810BD1CB501214FF4401000F004F972
:10055000684600F070FD01208DF8070000208DF83E
:1005600004008DF806000120009002208DF805009F
:100570006946024800F069FD1CBD00000000024011
:100580001CB504460F4951F82400012100F0E4F89D
:10059000684600F050FD01208DF8070000208DF81E
:1005A000040001208DF80600074830F81400009080
:1005B00000208DF80500054951F82400694600F037
:1005C00044FD1CBD18000020100000200400002085
:1005D000022800DD7047064931F8101031B1044996
:1005E00031F81010034A52F82020916100BFF1E762
:1005F0001000002004000020022800DD7047094997
:1006000031F8101059B1084951F820104969054ACC
:1006100032F810205140044A52F82020516100BFA6
:10062000ECE70000100000200400002003490968E6
:1006300060F30711014A116070470000083802405A
:100640000349096860F38C21014A1160704700007A
:10065000083802400349096860F34F31014A1160CC
:100660007047000008380240012807D1074909688F
:1006700021F030013031054A116005E00349096875
:1006800021F03001014A116070470000A438024097
:1006900005282BD2DFE800F0030A11182100154AC3
:1006A000126861F30002134B1A6020E0114A1268CD
:1006B00061F310420F4B1A6019E00E4A126861F3A1
:1006C00018620C4B1A6012E00A4A7032126861F329
:1006D0000002084B70331A6009E0064A743212684F
:1006E00061F30002034B74331A6000E000BF00BFE7
:1006F000704700000038024010B501460020094B49
:1007000003EB1142D2F8002801F01F040123A3409B
:100710001A4001F01F040123A3409A4200D000E0D8
:10072000012010BD0030024030B50024002500E05B
:10073000641C1120FFF7E0FF012802D0B4F5405FF0
:10074000F6D31120FFF7D8FF012801D0002500E0E3
:100750000125284630BD000010B501290FD1104BEE
:1007600003EB1042D2F8002800F01F040123A3403D
:100770001A430B4C04EB1043C3F800280EE0084B5F
:1007800003EB1042D2F8002800F01F040123A3401D
:100790009A43034C04EB1043C3F8002810BD00003B
:1007A0000030024010B501290FD1104B03EB10426D
:1007B000D2F8002800F01F040123A3401A430B4C79
:1007C00004EB1043C3F800280EE0084B03EB104283
:1007D000D2F8002800F01F040123A3409A43034CE1
:1007E00004EB1043C3F8002810BD000000300240A5
:1007F00030B50B4C246860F39654094D2C602C46A0
:10080000246861F38E142C602C46246862F3030480
:100810002C602C46246863F312442C6030BD000029
:10082000043802401948006820F00100401C1749B4
:10083000086000BF15480068C0F340000028F9D0E8
:1008400012480830006820F00300104908310860A1
:1008500000BF0E4808300068C0F381000028F8D1BE
:100860000A490831086009480068094908400749F1
:1008700008600848091D086000200449A03108608C
:100880004FF41F0001490C310860704700380240E6
:10089000FFFFF2FE023003000349096860F3010123
:1008A000014A1160704700000838024002480068A1
:1008B000C0F38100704700000838024010B50420E2
:1008C00001F062FE074800680749B0FBF1F00749F4
:1008D0000860084600684FF47A714843044908608C
:1008E00010BD00005800002040420F0024000020EE
:1008F00028000020002131E032280ADD194A126860
:1009000032235A434FF0E0235A61A0F1320290B2F1
:1009100006E0144A126842434FF0E0235A61002077
:1009200000224FF0E0239A611A46126942F0010258
:100930001A6100BF4FF0E022116901F001021AB103
:1009400001F48032002AF5D04FF0E022126922F043
:1009500001024FF0E0231A6100229A610028CBD1F6
:10096000704700002800002002684BF6EF731A4021
:10097000026002680B891A4302604B7C026863F3D1
:100980000D320260CB7B026863F38B2202608B7BAB
:10099000026863F3092202604B7B026863F3C712AB
:1009A00002600B7B026863F3861202600B7C0268B4
:1009B00063F3451202604B89426863F30F024260A1
:1009C0000A6882604A68C2607047000000210268BD
:1009D00022F0010202600022026042608260C26076
:1009E000014640F2FF620A40B2F5C16F0DD2CAB2B1
:1009F000083A1423B2FBF3F293000F229A400D4BF6
:100A00001B681A430B4B1A6012E040F2FF620A4067
:100A1000B2F5D16F0CD2CAB2083A1423B2FBF3F28A
:100A200093000F229A40044B1B681A43024B1A6032
:100A3000704700000464024004660240D0F80021C0
:100A400061F30002C0F800217047026861F30602FA
:100A5000026070470349096860F30001014A1160B0
:100A600070470000000005500349096860F3410128
:100A7000014A1160704700000000055010B500F0F9
:100A8000FFF8002211464E2001F0FAF80020FFF78F
:100A9000EBFF012000F0A8F8002000F099F90020F9
:100AA00000F062F900231A461946184600F0A4F92E
:100AB000002000F097F9002000F060F9002000F01D
:100AC0007DF901211F2000F0CBF8012000F04EF845
:100AD00010BD000070B506460C46154601211F48A2
:100AE000FFF73AFE1E481F490860084646604581E8
:100AF0000020087208734873022088730120C873AD
:100B0000087402204874012088740320C8740020EF
:100B100008754875144800F01BFA1249124800F095
:100B2000C1F9012000F072FA69210F48F43000F099
:100B300079FA44B1002221460B4800F084F90121E2
:100B4000094800F073F901221021074800F0E8F984
:100B5000002211460E2001F093F870BD1500300000
:100B6000280005505C0000205860024003490968D5
:100B700060F38E31014A116070470000000005509B
:100B800020F0004001494861704700000000055016
:100B90000146002001F000423AB1084A12690A40B9
:100BA0000AB1012008E0002006E0044A92680A40E9
:100BB0000AB1012000E0002070470000000005504D
:100BC00010B507480068F0234FF4A0720021C468F4
:100BD0000846A04703480078401C0249087010BD31
:100BE00054000020340000200349096860F3861196
:100BF000014A1160704700000000055010B5174809
:100C0000FFF7C6FF10B11548FFF7BAFF1348801E63
:100C1000FFF7BEFF18B11148801EFFF7B1FF0F4864
:100C20000C30FFF7B5FF18B10C480C30FFF7A8FFE8
:100C30000A48001DFFF7ACFF18B10848001DFFF778
:100C40009FFF0648C01EFFF7A3FF28B10348C01E40
:100C5000FFF796FFFFF7B4FF10BD0000040000800F
:100C6000012905D1054AD2680243044BDA6004E049
:100C7000024AD2688243014BDA6070470000055097
:100C80001CB501214FF45010FFF766FD01214FF410
:100C90004010FFF761FD01212F48FFF75DFD0121A5
:100CA0002D48C01CFFF758FD0D2204212B4800F0F1
:100CB00009FA0D220621294800F004FA0D22092123
:100CC000264800F0FFF90D220A21244800F0FAF925
:100CD0000D220B21214800F0F5F90D220C211F48AF
:100CE00000F0F0F90D2204211D4800F0EBF90D226F
:100CF00007211B4800F0E6F90D220921184800F0F1
:100D0000E1F90D220421174800F0DCF90D2205213C
:100D1000144800F0D7F941F65060009002208DF899
:100D2000060000208DF8040001208DF805008DF8E4
:100D300007006946094800F088F94FF424700090D4
:100D40006946074800F081F930200090694605485F
:100D500000F07BF91CBD00000100300000000240E3
:100D600000040240001002400349096860F3451185
:100D7000014A1160704700000000055003490968EE
:100D800060F38B21014A116070470000000005509C
:100D900010B508480068F0234FF4A0720021C46821
:100DA0000846A0470121044800F02AF90120FFF776
:100DB00051FE10BD540000205860024003490968EC
:100DC00060F30411014A11607047000000000550F3
:100DD0000349096860F3C711014A116070470000B8
:100DE000000005500349096C60F3C301014A116416
:100DF000704700000000055030B50B4C246860F3CC
:100E00001144094D2C602C46246861F392442C60F7
:100E10002C46246862F3D3442C602C46246863F388
:100E200014542C6030BD00000000055031B1026840
:100E300022F4802202F58022026003E0026822F49C
:100E400080220260704732B1036823F4002303F567
:100E50000023036003E0036823F4002303600161BF
:100E600070470000B0F1005F04D920F07041034AE0
:100E7000D16001E0014988607047000000600240D5
:100E80000146B1F1005F02D90548426801E004481B
:100E9000026802EA010008B1012070470020FCE767
:100EA000006002400B7A026863F3871202600B7BDA
:100EB000026863F3492202604B7B026863F38A2273
:100EC00002608B7B026863F3CC220260CB7B0268FA
:100ED00063F34E3202600B7C026863F30822026007
:100EE0004B7C026863F3114202600B7D026863F37E
:100EF000D85202604B7D026863F3565202608B7CCD
:100F0000426963F382024261CB7C426963F301026E
:100F100042614A8942600A6882604A68C2607047DA
:100F200001F080034BB122B1436943F08003436178
:100F300003E0436923F080034361802907D01AB19D
:100F400003680B43036002E003688B430360704750
:100F5000016821F0010101600021016041608160B0
:100F6000C160016121214161234A811A904228D048
:100F700009DC2249014469B1182910D0302914D064
:100F8000482935D117E0182920D0302924D0482904
:100F90002ED127E03D21184A703A916029E04FF4A4
:100FA0007461154A703A916023E04FF47411124A4B
:100FB000703A91601DE04FF074610F4A703A916091
:100FC00017E03D210C4A703AD16012E04FF4746191
:100FD000094A703AD1600CE04FF47411064A703A35
:100FE000D16006E04FF07461034A703AD16000E0CE
:100FF00000BF00BF7047000070600240F09FFDBF5F
:10100000026861F30002026070470000034909684A
:1010100060F30001024AC2F83C1170473C61024093
:1010200000600240026861F306020260704781625C
:101030007047816170474FF6FF7101600021817137
:10104000017141710121C171704770B50A460021DB
:101050001488A3B233E003F001046CB304684E00BB
:101060000325B540AC43046094794D00AC4005685D
:101070002C430460446801258D40AC4344604468BF
:1010800015798D402C43446084684E000325B5409B
:10109000AC438460D4794D00AC4085682C438460B7
:1010A000C4684E000325B540AC43C46054794D007C
:1010B000AC40C5682C43C4605B104C1CA1B2002B33
:1010C000C9DC70BDF0B5002300244D07ED0E02FA17
:1010D00005F3CD105DB1456A4E07F70E0F26BE40F1
:1010E000B5434562456A45EA030444620AE0056A7D
:1010F0004E07F70E0F26BE40B5430562056A45EA66
:1011000003040462F0BD10B50446206800F08CF9B9
:10111000204600F025F80121206800F007F810BDF6
:101120000146486AC0B2704781627047026861F345
:10113000000202607047C161704702469069084032
:1011400008B1012070470020FCE7036823F0010389
:1011500003600261036861F30B23036070470000C2
:101160001CB5044601214548FFF7F6FA0121444821
:10117000FFF7F2FA012142480F30FFF7EDFA04229F
:1011800002214048FFF79EFF042203213D48FFF75C
:1011900099FF6846FFF74FFF01208DF807000220F6
:1011A0008DF8060001208DF804008DF8050004205C
:1011B000009069463348FFF748FF082000906946D1
:1011C0003048FFF742FF00221146212000F058FD71
:1011D00000221146222000F053FD00221146382043
:1011E00000F04EFD00221146392000F049FDA069B3
:1011F000FFF7ECFBE069FFF7E9FB2348A061224819
:101200001430E061206828302062002161621021E2
:1012100021854FF6FF71618500212C2001550121A8
:101220002D20015500212E2001552F200155302061
:1012300001553120015504F12001A069FFF794FB0D
:1012400004F12001E069FFF78FFB11210E48FC300B
:10125000FFF7FBFB10210D48FFF7F7FB01210A48C0
:101260000838FFF7EBFB0A4A00212068FFF76DFF03
:10127000A0220021206800F0C7F81CBD1600400025
:1012800007003000001C024008640240086502406C
:101290009252F0302DE9F8430446884616461F4620
:1012A000089D666067810020207500230122D1031C
:1012B0002046009500F038F910B10120BDE8F88310
:1012C0004FF410524146204600F0FFF829E0012378
:1012D000002204212046009500F026F908B10220E2
:1012E000ECE72068FFF71CFF6268511C616010701A
:1012F0006089401E60812089401E2081208980B93C
:10130000608970B100231A4680212046009500F0C4
:101310000BF908B10320D1E700224146204600F036
:10132000D4F860890028D2DC012300222021204645
:10133000009500F0F9F808B10420BFE720212068EB
:10134000FFF7F9FE204600F0A1F80020B6E72DE9EE
:10135000F8430446884616461F46089D6660678126
:101360000020207500230122D1032046009500F0C3
:10137000DBF810B10120BDE8F8834FF4005241467C
:10138000204600F0A2F829E0012300220221204695
:10139000009500F0C9F808B10220ECE763685A1C18
:1013A000626019782068FFF7BFFE2089401E208107
:1013B0006089401E6081208980B9608970B10123F5
:1013C000002280212046009500F0AEF808B10320ED
:1013D000D1E700224146204600F077F860890028D6
:1013E000D2DC0123002220212046009500F09CF849
:1013F00008B10420BFE720212068FFF79CFE2046AB
:1014000000F044F80020B6E7836861F38A23836024
:10141000836862F309038360836823F4004303F560
:10142000004383607047000010B5044613488442AF
:1014300008D101211248FFF7B5F900211048FFF744
:10144000B1F91AE00F4884420AD101210C48401C2E
:10145000FFF7A8F900210A48401CFFF7A3F90CE0A8
:101460000948844209D101210548801CFFF79AF9F7
:1014700000210348801CFFF795F910BD005400407F
:101480001500200000580040005C004001684968D9
:101490006FF30901026851600168496821F48051C5
:1014A000026851600168496821F47F010268516057
:1014B0000168496821F080710268516001684968DB
:1014C00021F48061026851607047F8B504460E4609
:1014D00015466089FF280BDDFF20208100952189BA
:1014E000CAB24FF080733146206800F00DF80AE070
:1014F0006089208100952189CAB24FF0007331467E
:10150000206800F001F8F8BD70B50446049D6068DD
:10151000044E304041EA03062E43304340EA024085
:10152000606070BD009800FC2DE9F04104460F4654
:1015300016461D46DDF8188029E005F0010060B16F
:101540002068806900F0100038B110212068FFF792
:10155000F2FD11202075BDE8F08105F0020070B1A8
:101560002068806900F0200048B120212068FFF742
:10157000E2FD2046FFF78AFF10202075EBE7B8F167
:101580000000A8F1010802D112202075E3E73946D6
:101590002068FFF7D2FDB042CFD00020DBE700008B
:1015A0002DE9F84F80460F4616461C46BB4620469E
:1015B000E31704EB5373DB1021464FEAE47C04EBA2
:1015C0005C7C4FEAEC0CA4EBCC0CBCF1000F02D01D
:1015D0004FF0010C01E04FF0000C6344224604EB95
:1015E000D27C4FEA6C0C03FB0CF3DBB20093A6F148
:1015F0002000C6B200255BE00C2C07D106EB4600AC
:101600002E4901EB800010F805901BE0102C05D14D
:101610002B4800EB061010F8059013E0182C07D1AA
:1016200006EBC600274901EB800010F8059009E0A1
:10163000202C05D1244800EBC61010F8059001E0DD
:10164000BDE8F88F4FF0000A2CE009F0800030B1BF
:101650004FF478423946404600F050F807E00A98C7
:1016600028B94FF6FF723946404600F047F84FEA76
:1016700049604FEA1069781C87B2F02F00DBDFE782
:10168000A7EB0B00A04209D15F4608F101001FFA49
:1016900080F8B8F5A07F00DBD2E706E00AF1010090
:1016A00000F0FF0ABAF1080FCFDB00BF681CC5B21B
:1016B00000988542A0DB00BFC2E70000353E00086D
:1016C000A942000899480008F555000870B505467C
:1016D00009480068F0234FF4A0720021C66808464C
:1016E000B047002403E0284600F02CFA641CB4F54F
:1016F000963FF8D370BD0000540000202DE9F04162
:1017000004460D461646064800682B4622462946E2
:10171000C7682046B847304600F014FABDE8F081AB
:10172000540000202DE9F04704460D4616461F469A
:10173000DDF82090301B791B00FB01FA0A48006895
:101740003B4632462946D0F80CC02046E0474FF0D1
:10175000000804E0484600F0F5F908F10108D0451A
:10176000F8D3BDE8F08700005400002010B5BF4951
:101770000968486880473220FFF7BCF8002000F075
:10178000D7F90520FFF7B6F800F074F9B7490968F2
:101790000880D32000F0CCF900F06CF9B349096857
:1017A000088000F067F9B1490968088000F062F923
:1017B000AE490968088000F05DF9AC490968088005
:1017C000AA48006800884FF6FF7101EA0020A74987
:1017D0000968088000F04EF9A4490968098808439F
:1017E000A24909680880CF2000F0A2F9002000F08B
:1017F000A3F9C12000F0A0F9302000F09DF9ED2000
:1018000000F096F9642000F097F9032000F094F9B5
:10181000122000F091F9812000F08EF9E82000F00C
:1018200087F9852000F088F9102000F085F97A20EA
:1018300000F082F9CB2000F07BF9392000F07CF930
:101840002C2000F079F9002000F076F9342000F027
:1018500073F9022000F070F9F72000F069F92020F8
:1018600000F06AF9EA2000F063F9002000F064F962
:10187000002000F061F9C02000F05AF91B2000F0B0
:101880005BF9C12000F054F9012000F055F9C520A2
:1018900000F04EF9302000F04FF9302000F04CF904
:1018A000C72000F045F9B72000F046F9362000F0D7
:1018B0003FF9482000F040F93A2000F039F955206E
:1018C00000F03AF9B12000F033F9002000F034F9CB
:1018D0001A2000F031F9B62000F02AF90A2000F0B1
:1018E0002BF9A22000F028F9F22000F021F90020C5
:1018F00000F022F9262000F01BF9012000F01CF96D
:10190000E02000F015F90F2000F016F92A2000F071
:1019100013F9282000F010F9082000F00DF90E202E
:1019200000F00AF9082000F007F9542000F004F94B
:10193000A92000F001F9432000F0FEF80A2000F091
:10194000FBF80F2000F0F8F8002000F0F5F8002078
:1019500000F0F2F8002000F0EFF8002000F0ECF8C2
:10196000E12000F0E5F8002000F0E6F8152000F096
:10197000E3F8172000F0E0F8072000F0DDF8112070
:1019800000F0DAF8062000F0D7F82B2000F0D4F8A9
:10199000562000F0D1F83C2000F0CEF8052000F0F1
:1019A000CBF8102000F0C8F80F2000F0C5F83F2059
:1019B00000F0C2F83F2000F0BFF80F2000F0BCF8A4
:1019C0002B2000F0B5F8002000F0B6F8002000F061
:1019D000B3F8012000F0B0F83F2000F0ADF82A2065
:1019E00000F0A6F8002000F0A7F8002000F0A4F80E
:1019F000002000F0A1F8EF2000F09EF8112000F088
:101A000097F87820FEF776FF292000F091F836202D
:101A100000F08EF8082000F08FF82A2000F088F8F7
:101A2000002000F089F8002000F086F8002000F087
:101A300083F8EF2000F080F82B2000F079F80020E8
:101A400000F07AF8002000F077F8012000F074F838
:101A50003F2000F071F8362000F06AF8682000F0AE
:101A60006BF801210248FFF7E4FA10BD5400002092
:101A70000008024001490888704700000008006C17
:101A800030B505460C462A2000F052F8281200F026
:101A900053F8284600F050F8101200F04DF81046A8
:101AA00000F04AF82B2000F043F8201200F044F830
:101AB000204600F041F8181200F03EF8184600F0F9
:101AC0003BF82C2000F034F830BD2DE9F84F0446E7
:101AD0000D4690469946DDE90A6704F0FF0A08EBD7
:101AE00004001FFA80F809EB05001FFA80F916E0E0
:101AF000444502DB5446A81985B24D4500DB14E08D
:101B0000002000903A78334629462046FFF748FDEA
:101B1000304606EBD07104EB61018CB27F1C387843
:101B20007E2802DC38782028E2DA00BFBDE8F88F92
:101B30004FF0D84108807047014908807047000085
:101B40000008006C00B502461046FFF7F5FF00BD27
:101B50001CB536483649086000F03EFCFEF7DAFC5A
:101B6000032000F0F1F832490968886880474FF691
:101B7000FF70304908802E48006841692D48008870
:101B800088472DA010210B46C822CDE90010322134
:101B90001E20FFF79AFF2EA010210B46C822CDE988
:101BA000001046211E20FFF790FF2CA010210B46AD
:101BB000C822CDE900105A211E20FFF786FF4FF4FE
:101BC000FA70FEF797FE1BE027A010210B46F022CB
:101BD000CDE9001082211E20FFF777FFC820FEF715
:101BE00089FE4FF6FF70AA23EF22822100901E206B
:101BF000FFF798FDC820FEF77DFE0020FEF7FCFCF5
:101C000000F084FA0128DFD11AA010210B46C82267
:101C1000CDE9001082211E20FFF757FF4FF4FA7024
:101C2000FEF768FE00F0D2F800BFFEE73C0000209F
:101C30005400002002000020417274657279204136
:101C4000543332463433352F4634333700000000E6
:101C50004F563536343020544553540032303231EB
:101C60002F362F32310000004F56353634302045A4
:101C7000525200004F5635363430204F4B00000092
:101C80002DE9F0470B4614464FF0000C00BF2C4ADC
:101C90001268C2F302211D4626460A46C2F1070910
:101CA000B9F1040F02D94FF0040901E0C2F10709AC
:101CB000C84602F10409B9F1070F02D24FF000093A
:101CC00001E0A2F103094F464FF0010909FA08F9B2
:101CD000A9F1010909EA050909FA07F94FF0010A12
:101CE0000AFA07FAAAF1010A0AEA060A49EA0A09FF
:101CF000CC4601466246002904DB15072E0E114D25
:101D00006E5407E015072F0E0D4D0C3501F00F0630
:101D1000361FAF5500BF014600290DDB00BF00BFD5
:101D200001F01F050122AA404D09AD0005F1E02593
:101D3000C5F8002100BF00BF00BFBDE8F08700006C
:101D40000CED00E000E400E000BF00F00702064BED
:101D500019684FF6FF031940044B0B4343EA022175
:101D6000014B196000BF70470CED00E00000FA0560
:101D700070B50446042C03DAC4F10400C5B201E0D6
:101D8000201FC5B2032143F2122000F0B3FA280746
:101D9000010E45F2875000F0ADFA042C05DA092156
:101DA00045F2885000F0A6FA04E0012145F288507F
:101DB00000F0A0FA132143F2122000F09BFAA321B5
:101DC00043F2122000F096FA70BD00000EB500201C
:101DD00002904FF6FF70FFF779FC26A010210B460A
:101DE000C822CDE9001032211E20FFF76EFE27A089
:101DF00010210B46C822CDE9001046211E20FFF716
:101E000064FE27A010210B46C822CDE900105A21FC
:101E10001E20FFF75AFE00F08DFA00F00BF90020AB
:101E200000F0DEF9032000F047F80420FFF7A0FFE0
:101E3000032000F07FF8212000F090FA00F0B6F8BF
:101E4000FEF71CFE4FF4164200211A48FEF742FE30
:101E50006420FEF74FFDF0234FF4A07200210846E6
:101E600000F0E2F902A944F2307000F01DFAFEF72A
:101E70008FFF0EBD41727465727920415433324632
:101E80003433352F46343337000000004F56353693
:101E9000343020524742353635204D6F646500009E
:101EA00044565020496E697469616C697A696E673D
:101EB0002E2E2E000008006C70B50546032143F25B
:101EC000122000F017FA1C2145F2813000F012FABE
:101ED0005A2145F2823000F00DFA062145F2833096
:101EE00000F008FA00240CE005EB4502104B03EB70
:101EF0004202115D45F28432A01800F0FBF9601C2B
:101F0000C4B2062CF0DB982145F28B3000F0F2F9D8
:101F1000012145F28A3000F0EDF9132143F212203D
:101F200000F0E8F9A32143F2122000F0E3F970BDBC
:101F3000F63D000870B5044600252026072C1AD26D
:101F4000DFE804F004080C191013160014200546ED
:101F5000064610E01820054606460CE01C20054603
:101F6000064608E01025242605E01825282602E06C
:101F70001C252C2600BF00BF032143F2122000F0D5
:101F8000B9F9294645F2855000F0B4F9314645F2D9
:101F9000865000F0AFF9132143F2122000F0AAF9A5
:101FA000A32143F2122000F0A5F970BD38B500203E
:101FB00000900024012143F2230000F09BF9082146
:101FC00043F2220000F096F900BF694643F2230075
:101FD00000F06AF9601C84B2B4F57A7F01DD00205C
:101FE00038BD0520FEF786FC9DF800000028ECD1E6
:101FF000012143F2230000F07DF9042143F2220085
:1020000000F078F9002400BF694643F2230000F095
:102010004BF9601C84B2B4F57A7F01DD0020DFE764
:102020000520FEF767FC9DF800000028ECD1012098
:10203000D6E7000038B54FF400458F2000902021EE
:102040004FF4405000F056F9002408E02848015DA4
:10205000284600F04FF9681C85B2601C84B240F637
:10206000ED708442F2D3002143F2220000F042F9E5
:10207000002143F2230000F03DF9002143F2240047
:1020800000F038F9002143F2250000F033F9002177
:1020900043F2260000F02EF9002143F2270000F061
:1020A00029F9002143F2280000F024F97F2143F2AE
:1020B000290000F01FF900214FF4405000F01AF9F8
:1020C000002400BF694643F2290000F0EDF8052026
:1020D000FEF710FC601C84B2B4F57A7F01DD0020AD
:1020E00038BD9DF800007028ECD10120F8E7000011
:1020F000BC2D000810B50348034908600846FFF7E7
:1021000002F810BD00580040740000203EB50024C5
:102110000020029001212F48FEF71EFB6846FEF7C3
:102120008AFF0820009001208DF8060000208DF81D
:10213000040001208DF805008DF807006946264847
:10214000FEF783FF08212448FEF771FF6420FEF7A5
:10215000D1FB08212048FEF76CFF1420FEF7CAFBD4
:10216000FFF7C8FF0520FEF7C5FB02A943F20A00EE
:1021700000F09AF89DF80800050202A943F20B004E
:1021800000F092F89DF80800054345F24060854252
:1021900001D000203EBD112143F2031000F0AAF847
:1021A000822143F2080000F0A5F80A20FEF7A2FB06
:1021B00000240AE0094A02EB84029178074A32F8C7
:1021C000240000F097F8601C84B2CF2CF2D30120D9
:1021D000E0E700000200300000080240802A00080A
:1021E00070B50546032143F2122000F083F8002465
:1021F0000AE0C5EBC5020B4B1A44115D04F55050C3
:1022000000F078F8601CC4B2072CF2DB132143F213
:10221000122000F06FF8A32143F2122000F06AF8B8
:1022200070BD0000D33D00082DE9F04104460D4685
:1022300016461F46032143F2122000F05BF83112CC
:1022400043F6080000F056F8F1B243F6090000F03A
:1022500051F8391243F60A0000F04CF8F9B243F68F
:102260000B0000F047F8211243F6100000F042F88E
:10227000E1B243F6110000F03DF8291243F61200D6
:1022800000F038F8E9B243F6130000F033F81321F8
:1022900043F2122000F02EF8A32143F2122000F0A6
:1022A00029F8BDE8F08100007CB504460D462012F7
:1022B0008DF80400E0B28DF8050042F210700223A0
:1022C00001AA782100900A48FFF741F808B10020E0
:1022D0007CBD42F2107001232A4678210090044808
:1022E000FEF7D8FF08B10020F2E70120F0E7000078
:1022F000740000207CB504460D4620128DF80400C1
:10230000E0B28DF805008DF806500748032301AAB6
:10231000782100900548FFF71AF80549087008B1C0
:1023200000207CBD0120FCE740420F00740000202B
:102330003500002010B5002400BF0AE0064A02EB79
:1023400084029178044A32F82400FFF7D3FF601C1E
:1023500084B22D2CF2D310BDCC29000810B5044650
:10236000212C0ADA652145F20830FFF7C3FF214628
:1023700045F20230FFF7BEFF2CE0252145F2083080
:10238000FFF7B8FF08214FF4A640FFF7B3FF302155
:1023900045F20130FFF7AEFF102145F20230FFF7A2
:1023A000A9FF002145F20330FFF7A4FF082145F201
:1023B0000930FFF79FFF302145F20A30FFF79AFFFF
:1023C000042145F20B30FFF795FF062145F20C3052
:1023D000FFF790FF10BD000010B501212B48FEF75C
:1023E000BBF92B48006920F00700401C2849086110
:1023F0002848006820F00300401C26490860FEF7CA
:1024000011FA01210846FEF743F900BFFEF78CF9E7
:102410000028FBD001231A4648211846FEF7E8F9A8
:1024200001210220FEF734F900BF1920FEF764F9FC
:102430000128FAD10020FEF7F9F80420FEF70AF986
:102440000420FEF7FDF80120FEF70EF90220FEF74A
:1024500023FA00BFFEF72AFA0228FBD10020FEF77C
:1024600003F90C48006820F003000A490860084698
:10247000006840F00100086000BF0648006800F0F6
:1024800030001028F9D100F007F810BD1C00400002
:1024900000700040603C02402DE9FC5F00240025F4
:1024A0000026A146A246A34600200190FEF7FEF9B1
:1024B0000090009820B1012814D0022841D115E0E5
:1024C0002B480068C0F3803040B129480068C0F351
:1024D000003018B127482849086002E027482649FB
:1024E000086032E02548244908602EE020489C38E6
:1024F0000068C0F380591E489C380068C0F38814F7
:102500001B489C38006800F00F0519489C3800688B
:10251000C0F302401A490E5CB9F1000F02D1DFF896
:102520005CA001E0DFF854A005FB06FCAAFB0470E8
:102530000146624600233846FDF7D9FE0E49086081
:1025400003E00E480C49086000BF00BF08489838F7
:102550000068C0F3031B0B4810F80B0001900648FD
:1025600000680199C84004490860BDE8FC9F00006C
:10257000A0380240006CDC025800002000127A00F3
:102580008585000875850008042808D14FF0E021F2
:10259000096941F004014FF0E022116107E04FF0BA
:1025A000E021096921F004014FF0E0221161704738
:1025B00000B599B000201790189001218048FEF7CF
:1025C000CBF801217E48401CFEF7C6F801217C486B
:1025D000801CFEF7C1F801214FF46010FEF7BCF833
:1025E0000E2202217748FEF76DFD0E220421754868
:1025F000FEF768FD0E2205217248FEF763FD0E22EC
:102600000B217048FEF75EFD0E220C216D48FEF78F
:1026100059FD0A2205216C48FEF754FD0C220821C1
:102620006948FEF74FFD0C2209216748FEF74AFD75
:102630000C220A216448FEF745FD0C220E21624857
:10264000FEF740FD0C220F215F48FEF73BFD0C22F8
:1026500007215E48FEF736FD0C2208215B48FEF795
:1026600031FD0C2209215948FEF72CFD0C220A21CC
:102670005648FEF727FD0C220B215448FEF722FD99
:102680000C2211465148FEF71DFD0C220D214F482A
:10269000FEF718FD0C220E214C48FEF713FD0C220C
:1026A0000F214A48FEF70EFD41F634001790022034
:1026B0008DF8620000208DF860008DF86100012027
:1026C0008DF8630017A93F48FEF7BFFC4CF220705D
:1026D000179017A93C48FEF7B8FC4FF6807017908A
:1026E00017A93A48FEF7B1FC11A800F0E7F803205B
:1026F0008DF8440000208DF845008DF8460010202C
:102700008DF847000020ADF84800ADF84A00ADF85C
:102710004C00ADF84E00ADF850004FF48050ADF8CD
:1027200052000020ADF854004FF48040ADF8560040
:102730000020169011A800F056F801A909A800F091
:10274000D2F803208DF824004FF48040ADF8260025
:1027500002200A9000200B9002200C9000200D9087
:102760000E900F90109003208DF804004FF48040DD
:10277000ADF8060002200290002003900220049091
:102780000020059006900790089001A909A800F084
:1027900057F80121032000F01BF8012017908DF855
:1027A000620000208DF860008DF8610001208DF836
:1027B000630017A90348FEF748FC19B000BD0000EC
:1027C0000200300000080240000C024000100240ED
:1027D000C200A2F1C042126861F30002C300A3F17B
:1027E000C0431A607047417882781143C278114320
:1027F00082881143C28811430289114342891143DF
:1028000082891143C2891143028A1143428A1143CA
:10281000426911430278D200A2F1C042116081786E
:1028200008290CD10178C900A1F1C041096821F043
:10283000400140310278D200A2F1C04211607047DD
:1028400010B5D0E9012342EA0312C36842EA032229
:10285000038A42EA0342838A42EA0352037E42EA3F
:102860000362C3691A4303784FF0204404EBC303A7
:102870005A604288B2F5804F16D1D1E9012342EA6D
:102880000312CB6842EA03220B8A42EA03428B8A94
:1028900042EA03520B7E42EA0362CB691A43064BBB
:1028A0000C7843F8342005E06FF07043024A0C784E
:1028B00042F8343010BD0000040100A00021017076
:1028C0000221417000218170C1708180C18001812D
:1028D000418181814FF48051C181490001820021F1
:1028E0004182416170470022027042800F224260A3
:1028F0008260FF22C2600F22026142618261002277
:10290000C2610A704A800F224A608A60FF22CA6050
:102910000F220A614A618A610022CA6170474FF042
:102920004070E1EE100A7047004330001F50000075
:102930003530810036306900073C070020384600FA
:10294000213820001438110015381100003800001B
:1029500001380000023800000338000004380A0083
:1029600005383F000638070007389F000838020086
:10297000093880000A3801000B38E0000C380B00E1
:102980000D381C000E3807000F38B0001338040053
:102990001836040012362B00093712000C370000DD
:1029A00004400600023000000630FF001347030019
:1029B000074401000B4635000C462200374816003C
:1029C000243802000150A3000335000000436F00CB
:1029D0001F5001003530210036306900073C0700E8
:1029E00020384600213800001438310015383100F5
:1029F00000380000013800000238000003380000F1
:102A000004380A0005383F00063806000738A900D8
:102A100008380500093800000A3802000B38D000D9
:102A20000C3805000D38F8000E3803000F3884000C
:102A300013380400183600001236290009375200F6
:102A40000C370300023A0200033AE000143A020095
:102A5000153AE0000440020002301C000630C300BA
:102A600013470300074404000B4637000C462000C0
:102A700037481600243804000150A3000335000035
:102A800008304200033103001730FF001830FF0008
:102A900034301A0037301300083101003036360068
:102AA00031360E003236E200333612002136E000B5
:102AB0000437A00003375A00153778001737010094
:102AC0000B37600005371A0005390200063910007F
:102AD00001390A0031371200003608000136330090
:102AE0002D306000203652001B3720001C4750005C
:102AF000133A4300183A0000193AF800353613002B
:102B0000363603003436400022360100013C3400E2
:102B1000043C2800053C9800063C0000073C0800E7
:102B2000083C0000093C1C000A3C9C000B3C400097
:102B30001038000011381000123800000837640007
:102B40000140020005401A00003000000430FF0080
:102B50000E3058002E300000004330001F5000009F
:102B60000E4400000050A7000F3A3000103A280031
:102B70001B3A30001E3A2600113A60001F3A14003A
:102B8000005823000158140002580F0003580F008A
:102B9000045812000558260006580C000758080073
:102BA00008580500095805000A5808000B580D0080
:102BB0000C5808000D5803000E5800000F58000074
:102BC0001058030011580900125807001358030049
:102BD0001458000015580100165803001758080033
:102BE00018580D00195808001A5805001B580600FF
:102BF0001C5808001D580E001E5829001F581700A9
:102C0000205811002158110022581500235828007F
:102C10002458460025582600265808002758260024
:102C200028586400295826002A5824002B582200CE
:102C30002C5824002D5824002E5806002F5822000E
:102C40003058400031584200325824003358260092
:102C500034582400355822003658220037582600B0
:102C600038584400395824003A5826003B58280068
:102C70003C5842003D58CE008051FF008151F20087
:102C80008251000083511400845125008551240095
:102C90008651090087510900885109008951750042
:102CA0008A5154008B51E0008C51B2008D5142008A
:102CB0008E513D008F515600905146009151F800C1
:102CC00092510400935170009451F0009551F0001E
:102CD0009651030097510100985104009951120038
:102CE0009A5104009B5100009C5106009D518200A6
:102CF0009E51380080540100815408008254140011
:102D00008354280084545100855465008654710012
:102D100087547D0088548700895491008A549A0012
:102D20008B54AA008C54B8008D54CD008E54DD0015
:102D30008F54EA0090541D0081531E0082535B00A3
:102D40008353080084530A0085537E00865388000D
:102D500087537C0088536C00895310008A5301000C
:102D60008B53980080550600835540008455100011
:102D7000895510008A5500008B55F8001D50400001
:102D800000530800015330000253100003530000A9
:102D9000045308000553300006530800075316007B
:102DA000095308000A5330000B5304000C5306006B
:102DB000255000004047230008300200020FD602D1
:102DC0000A39C201222200020FB2E51F7072F51EFD
:102DD000D235FFEF25E0244EF8E4F608F60FBF34B5
:102DE000F2900E93E493FFE54BC39F50047F058060
:102DF000027FFB78BDA607120F0440047F03800208
:102E00007F3078BCA607E618F608E678B9F678BCF5
:102E1000E678BAF678BF7633E408F678B8760175C6
:102E20004A0278B6F608F674FF78C1F608F6751F00
:102E30000178BCE675F005A4F54B120AFFC23722F3
:102E400078B8E6D3940040021622E51FB40523E4C7
:102E5000F51FC20178B6E6FE08E6FF784EA6060822
:102E6000A607A237E433F53C903028F0751E10D247
:102E70003522E54B75F0058478BCF6900E8CE49312
:102E8000FF25E0240AF8E6FC08E6FD78BCE625E02C
:102E9000244EF8A60408A605EF120F0BD378B796B8
:102EA000EE1896400D78BCE678B9F678B6A6060816
:102EB000A607900E8CE493120F0BC378C296EE18FF
:102EC00096500D78BCE678BAF678C1A60608A60733
:102ED00078B6E6FE08E6C378C296FFEE189678C389
:102EE000F608A607900E95E418120EE94002D237B4
:102EF00078BCE6082608F6E51F6401704AE6C37848
:102F0000C0120EDF4005120EDA4039120F024004E3
:102F10007FFE80027F0278BDA60778B9E624037899
:102F2000BFF678B9E624FD78C0F6120F02400678A5
:102F3000C0E6FF800478BFE6FF78BEA607751F02D3
:102F400078B8760102024AE51F6402600302022A91
:102F500078BEE6FFC378C0120EE04008120EDA50C9
:102F600003020228120F0240047FFF80027F0178D3
:102F7000BDA60778B9E60478BFF678B9E61478C03C
:102F8000F618120F044004E6FF80027F0078BFA607
:102F900007D308E6648094804004E6FF80027F0047
:102FA00078C0A607C318E6648094B35004E6FF8097
:102FB000027F3378BFA607C308E6648094B3500449
:102FC000E6FF80027F3378C0A607120F0240067822
:102FD000C0E6FF800478BFE6FF78BEA607751F0332
:102FE00078B876018020E51F6403702678BEE6FF7E
:102FF000C378C0120EE04005120EDA400978B9E637
:1030000078BEF6751F0478BEE675F005A4F54B0290
:103010000AFFE51FB40410900E94E478C3120EE981
:103020004002D237751F05223001030204C030026E
:10303000030204C09051A5E07893F6A3E008F6A33C
:10304000E008F6E51F703C751E20D235120C7A7828
:103050007EA60608A607788BA609187601120C5BD7
:10306000784EA60608A607788BE6786EF6751F01DF
:103070007893E67890F67894E67891F67895E67805
:1030800092F6227990E7D37893964005E796FF80F1
:1030900008C37993E7789096FF7888760008A607AA
:1030A0007991E7D37894964005E796FF8008C37935
:1030B00094E7789196FF120C8E7992E7D3789596E3
:1030C0004005E796FF8008C37995E7789296FF124E
:1030D0000C8E120C5B788AE625E0244EF8A60608D2
:1030E000A607788AE6246EF8A609788AE62401FF06
:1030F000E433FED3EF940FEE6480948040047F00AD
:103100008005788AE604FF788AA607E51FB4010ADD
:10311000E660030204C0751F0222120C7A7880A6B2
:103120000608A607120C7A7882A60608A607786E0B
:10313000E6788CF6786EE6788DF67F01EF25E02450
:103140004FF9C37881E69718E61997500A120C8256
:103150007880A60408A605746E2FF9788CE6C397CC
:103160005008746E2FF8E6788CF6EF25E0244FF9BE
:10317000D37883E69718E61997400A120C82788272
:10318000A60408A605746E2FF9788DE6D39740083B
:10319000746E2FF8E6788DF60FEF6410709EC37989
:1031A00081E7788396FF19E718967884F608A607D2
:1031B000C3798CE7788D9608F6D37981E7787F9686
:1031C00019E71896400509E7088006C3797FE77874
:1031D0008196FF19E71896FE7886A60608A6077955
:1031E0008CE7D3788B964005E796FF8008C3798BF0
:1031F000E7788C96FF788FA607E51F6402706990C8
:103200000E9193FF18E6C39F5072120C4A120C2FB6
:10321000900E8E120C387880120C6B7B04120C1DF1
:10322000C31206455056900E92E493FF788FE69FA6
:1032300040028011900E90E493FFD37889E69F18A6
:10324000E694004003751F05120C4A120C2F900ED5
:103250008F120C38787E120C6B7B40120C1DD3122F
:1032600006454018751F0522E51FB4050FD201C29F
:1032700002E4F51FF51ED235D233D23622EF8DF09F
:10328000A4A8F0CF8CF0A428CE8DF0A42EFE22BCF2
:10329000000BBE0029EF8DF084FFADF022E4CCF8E6
:1032A00075F008EF2FFFEE33FEEC33FCEE9DEC984B
:1032B0004005FCEE9DFE0FD5F0E9E4CEFD22EDF8D1
:1032C000F5F0EE8420D21CFEADF075F008EF2FFF74
:1032D000ED33FD4007985006D5F0F222C398FD0F5C
:1032E000D5F0EA22E88FF0A4CC8BF0A42CFCE98E78
:1032F000F0A42CFC8AF0EDA42CFCEA8EF0A4CDA85E
:10330000F08BF0A42DCC3825F0FDE98FF0A42CCD66
:1033100035F0FCEB8EF0A4FEA9F0EB8FF0A4CFC546
:10332000F02ECD39FEE43CFCEAA42DCE35F0FDE4D0
:103330003CFC2275F008758200EF2FFFEE33FECDC6
:1033400033CDCC33CCC58233C5829BED9AEC99E565
:103350008298400CF582EE9BFEED9AFDEC99FC0FF5
:10336000D5F0D6E4CEFBE4CDFAE4CCF9A88222B8BD
:1033700000C1B90059BA002DEC8BF084CFCECDFC42
:10338000E5F0CBF97818EF2FFFEE33FEED33FDECCF
:1033900033FCEB33FB10D703994004EB99FB0FD8B8
:1033A000E5E4F9FA227818EF2FFFEE33FEED33FD56
:1033B000EC33FCC933C910D7059BE99A4007EC9B55
:1033C000FCE99AF90FD8E0E4C9FAE4CCFB2275F0E5
:1033D00010EF2FFFEE33FEED33FDCC33CCC833C8F6
:1033E00010D7079BEC9AE899400AED9BFDEC9AFCFC
:1033F000E899F80FD5F0DAE4CDFBE4CCFAE4C8F9AB
:1034000022EB9FF5F0EA9E42F0E99D42F0E89C45F0
:10341000F022E8600FECC313FCED13FDEE13FEEF9A
:1034200013FFD8F122E8600FEFC333FFEE33FEED58
:1034300033FDEC33FCD8F122E493FC740193FD746A
:103440000293FE740393FF22E6FB08E6F908E6FA0E
:1034500008E6CBF822ECF608EDF608EEF608EFF6F3
:1034600022A42582F582E5F03583F58322D083D02E
:1034700082F8E4937012740193700DA3A393F8740F
:103480000193F5828883E4737402936860EFA3A3C9
:10349000A380DF9038047852120BFD903800E0FED4
:1034A000A3E0FDEDFFC3120B9E903810120B92901B
:1034B00038067854120BFD903802E0FEA3E0FDEDD3
:1034C000FFC3120B9E903812120B92A3E0B4310787
:1034D00078527952120C13903814E0B47115785266
:1034E000E6FE08E67802CEC313CE13D8F97953F777
:1034F000EE19F7903815E0B4310778547954120C6E
:1035000013903815E0B471157854E6FE08E6780299
:10351000CEC313CE13D8F97955F7EE19F7795212B5
:103520000BD909120BD9AF47120BB2E544FB7A0055
:10353000FD7C001204D3785AA60608A607AF4512F0
:103540000BB2AD037C001204D37856A60608A6077A
:10355000AF487854120BB4E543FBFD7C001204D352
:10356000785CA60608A607AF467E007854120BB614
:10357000AD037C001204D37858A60608A607C378CA
:103580005BE6940818E6940050057600087608C3B8
:10359000785DE6940818E6940050057600087608F1
:1035A000785A120BC6FFD37857E69F18E69E400E56
:1035B000785AE613FE08E67857120C0880047E005D
:1035C0007F00785E120BBEFFD37859E69F18E69E07
:1035D000400E785CE613FE08E67859120C08800469
:1035E0007E007F00E4FCFD7862120699785A120B87
:1035F000C6785726FFEE1836FE7866120BBE78594D
:1036000026FFEE1836FEE4FCFD786A120699120BCE
:10361000CE786612068CD31206454008120BCE787F
:10362000661206997854120BD0786A12068CD3125F
:103630000645400A7854120BD0786A1206997861D0
:10364000E6906001F07865E6A3F07869E6A3F0788B
:1036500055E6A3F07D017861120BE92401120BA657
:103660007865120BE92402120BA67869120BE92483
:1036700003120BA6786D120BE92404120BA60DBDE4
:1036800005D4C20EC20622850841903024E0F53DE3
:10369000A3E0F53EA3E0F53FA3E0F540A3E0F53C51
:1036A000D234E5411206B1093103093504093B055D
:1036B000093E06094107094A08095B1209731809FE
:1036C0008919095E1A096A1B09AD8009B2810A1DB0
:1036D0008F0A09900A1D910A1D920A1D930A1D94D2
:1036E0000A1D980A179F0A1AEC00000A38120F7474
:1036F00022120F74D20322D20322C20322A237E481
:1037000033F53C020A1DC201C202C203120D0D753F
:103710001E70D235020A1D020A0485404A853C4BC0
:10372000120AFF020A1D854A40854B3C020A1DE42D
:10373000F522F523854031853F30853E2F853D2E8E
:10374000120F46801F75220075230174FFF52DF5B9
:103750002CF52BF52A120F46852D40852C3F852B05
:103760003E852A3DE4F53C8070120F16806B853D46
:1037700045853E46E547C313FFE545C39F50028F8D
:1037800045E548C313FFE546C39F50028F46E54712
:10379000C313FFFDE5452DFDE433FCE544120F9016
:1037A0004005E5449FF545E548C313FFFDE5462D7B
:1037B000FDE433FCE543120F904005E5439FF546D9
:1037C0001206D78014854048853F47853E46853D93
:1037D0004580060206D7120D7E903024E53DF0A309
:1037E000E53EF0A3E53FF0A3E540F0A3E53CF09013
:1037F0003023E4F022C0E0C083C082C0D0903F0CF0
:10380000E0F532E53230E374303666906019E0F569
:103810000AA3E0F50B90601DE0F514A3E0F5159008
:103820006021E0F50CA3E0F50D906029E0F50EA312
:10383000E0F50F906031E0F510A3E0F511906039EC
:10384000E0F512A3E0F513300106303303D3800115
:10385000C39209300206303303D38001C3920A3089
:10386000330C300309200206200103D38001C392E8
:103870000B903001E04440F0E054BFF0E53230E11D
:1038800014303411903022E0F508E4F0300003D316
:103890008001C39208E53230E5129056A1E0F509A7
:1038A000303109300503D38001C3920D903F0CE500
:1038B00032F0D0D0D082D083D0E032900E7EE4932C
:1038C000FE740193FFC3900E7C7401939FFFE493F9
:1038D0009EFEE48F3B8E3AF539F538AB3BAA3AA908
:1038E00039A838AF4BFCFDFE120528120DE1E47B30
:1038F000FFFAF9F81205B3120DE1900E69E4120D0A
:10390000F6120DE1E4854A37F536F535F534AF3773
:10391000AE36AD35AC34A3120DF68F378E368D35FD
:103920008C34E53B4537F53BE53A4536F53AE53924
:103930004535F539E5384534F538E4F522F5238584
:103940003B31853A3085392F85382E020F46E0A36A
:10395000E075F002A4FFAEF0C308E69FF618E69EFD
:10396000F622FFE5F034608F82F583ECF022785286
:103970007E00E6FC08E6FD0204C1E4FCFD120699A7
:10398000785CE6C313FE08E613227852E6FE08E6EA
:10399000FFE4FCFD22E7C4F854F0C868F709E7C467
:1039A000540F48F722E6FCED75F004A42212067CC1
:1039B0008F488E478D468C4522E0FEA3E0FDEEF653
:1039C000ED08F62213FFC3E69FFF18E69EFE22E6EF
:1039D000C313F708E61309F722AD39AC38FAF9F842
:1039E0001205288F3B8E3A8D398C38AB37AA36A911
:1039F00035A8342293FFE4FCFDFE1205288F378E94
:103A0000368D358C34227884E6FE08E6FFE48F3765
:103A10008E36F535F53422900E8CE49325E0240A99
:103A2000F8E6FE08E6FF22E6FE08E6FFE48F3B8E9E
:103A30003AF539F53822784EE6FE08E6FF22EF2502
:103A4000E0244EF8E6FC08E6FD227889EF26F61819
:103A5000E436F62275890375A80175B8047534FF3C
:103A600075350E75361575370D120E9A120009123E
:103A70000F16120006D200D234D2AF7534FF75355E
:103A80000E753649753703120E9A300809C2341282
:103A900008CBC208D234300B09C23612026CC20BFA
:103AA000D236300909C23612000EC209D236300EA3
:103AB000031206D73035D3903029E51EF0B4100537
:103AC000903023E4F0C23580C1E4F54B900E7A9338
:103AD000FFE48F37F536F535F534AF37AE36AD3513
:103AE000AC34900E6A120DF68F378E368D358C34CD
:103AF000900E7212067CEF4537F537EE4536F536F7
:103B0000ED4535F535EC4534F534E4F522F52385FE
:103B1000373185363085352F85342E120F46E4F542
:103B200022F523900E72120DEA120F46E4F522F5EB
:103B300023900E6E120DEA020F46E54024F2F5378F
:103B4000E53F3443F536E53E34A2F535E53D34280E
:103B5000F534E537FFE4FEFDFC78181206698F4066
:103B60008E3F8D3E8C3DE53754A0FFE536FEE4FDEB
:103B7000FC78071206567810120F9AE4FFFEE5351E
:103B8000FDE4FC780E120656120F9DE4FFFEFDE5E3
:103B900034FC78181206567808120F9A228F3B8E42
:103BA0003A8D398C382212067C8F318E308D2F8CD5
:103BB0002E2293F9F802066900000000120117088E
:103BC0003115535444202020202013011001564069
:103BD0001A30297E00300420DF300540BF5003003A
:103BE000FD502701FE600011003F0530003F062216
:103BF000003F012A003F020000360607003F0B0F7E
:103C0000F000000000300140BF300100BF302970DB
:103C1000003A0000FF3A0000FF36033602414458E4
:103C20002018100A04040003FF6400008000000054
:103C300000000002040606000351007A503C281ED2
:103C40001010502D281610100200100C10040C6ECD
:103C5000060500A55A00AE35AF36E4FDEDC3953735
:103C60005033120FE2E493F538740193F539453877
:103C70006023853982853883E0FC120FE274039358
:103C80005204120FE274029342048539828538830C
:103C9000ECF00D80C72278BEE6D308FFE66480F81A
:103CA000EF6480982293FF7E00E6FC08E6FD120494
:103CB000C178C1E6FC08E6FDD3EF9DEE9C2278BDFD
:103CC000D3E6648094802225E0240AF8E6FE08E624
:103CD000FF22E53CD39400400B900E88120BF1902C
:103CE0000E868009900E82120BF1900E80E493F5FF
:103CF00044A3E493F543D206300603D38001C39274
:103D00000E22A2AF9232C2AFE5234522900E5D6033
:103D10000E120FCBE0F52C120FC8E0F52D800C121F
:103D20000FCBE530F0120FC8E531F0A23292AF228E
:103D3000D201C202E4F51FF51ED235D233D236D2FB
:103D400001C202F51FF51ED235D23322FBD3ED9B03
:103D50007480F86C9822120669E5402FF540E53F23
:103D60003EF53FE53E3DF53EE53D3CF53D22C0E0FC
:103D7000C083C082903F0DE0F533E533F0D082D0B0
:103D800083D0E032900E5FE493FE740193F5828E4F
:103D90008322787FE4F6D8FD7581CD020C988F825E
:103DA0008E8375F004ED0206A5100810082010207F
:103DB0001841201810302861302810383061383010
:103DC000104038714038105048905048206058A03A
:103DD00060582004000400040000061C040004F3E2
:103DE000010548040007CF010648040004D301047C
:103DF0001004000840010C303D3E3D01103D4D4E89
:103E00004D011552666866021A66808280021F7A2A
:103E10009A9C9A02248FB3B6B3032BABD6DAD6049E
:103E20000640101EA0401E80C01E80801E40A04084
:103E300040101E6060000000000000000000000054
:103E400000000000003F40000000000000000030C3
:103E500000400030004000000009000BC03D000B96
:103E6000C03D00090018C024407FE022403180009E
:103E700000180024C01B000D803240018003801C0C
:103E80004027401C800740004010006000000000F8
:103E900000000000000000000000001F80204040E3
:103EA000200000402020401F800000000009000684
:103EB000001F80060009000000040004003F800489
:103EC000000400000000100060000000000000007E
:103ED00000040004000400040004000000000000CE
:103EE000400000000000000000002001C006003873
:103EF00000400000001F802040204020401F800024
:103F000000000010403FC000400000000018C02129
:103F100040224024401840000010802040244024CB
:103F2000401B80000002000D0011003FC001400056
:103F3000003C80244024402440238000001F802433
:103F40004024403440038000003000200027C03867
:103F500000200000001B802440244024401B8000DF
:103F6000001C0022C0224022401F800000000000F0
:103F70000008400000000000000000000004600095
:103F80000000000000000004000A00110020804032
:103F90004009000900090009000900000000004074
:103FA00040208011000A0004001800200023402453
:103FB00000180000001F802040274029401F4000BB
:103FC00000004007C039000F0001C0004020403F02
:103FD000C0244024401B8000001F8020402040203F
:103FE000403080000020403FC0204020401F800023
:103FF0000020403FC024402E4030C0000020403F01
:10400000C024402E00300000000F0010802040220D
:10401000403380020020403FC0040004003FC02025
:1040200040204020403FC020402040000000602051
:104030002020203FC02000200020403FC024400B13
:104040000030C0204020403FC020400040004000E1
:10405000C03FC03C0003C03C003FC0000020403FC8
:10406000C00C4023003FC020001F80204020402083
:10407000401F80000020403FC02440240018000062
:10408000001F802140214020E01FA0000020403F71
:10409000C02440260019C0004018C02440244022FB
:1040A0004031800000300020403FC0204030000000
:1040B0000020003F80004000403F80200020003E64
:1040C0000001C0070038002000380007C03C00078E
:1040D000C038000000204039C0060039C020400030
:1040E000002000384007C038402000000030402148
:1040F000C02640384020C00000000000007FE040A3
:104100002040200000000070000C000380004000F0
:10411000000000402040207FE00000000000002060
:1041200000400020000000000000100010001000FF
:10413000100010001000000000400000000000000F
:1041400000000002800540054003C0004020003F01
:10415000C0044004400380000000000380044004C9
:10416000400640000000000380044024403FC0009F
:1041700040000003800540054003400000000004AB
:10418000401FC0244024402000000002E0055005EC
:10419000500650042020403FC00440040003C000EB
:1041A000400000044027C000400000000000100054
:1041B00010041027E00000000020403FC00140072D
:1041C0000004C00440204020403FC00040004000A8
:1041D0000007C0040007C0040003C000000440073B
:1041E000C00440040003C0004000000380044004F9
:1041F0004003800000041007F004500440038000D6
:1042000000000003800440045007F0001004400741
:10421000C002400400040000000000064005400504
:104220004004C00000000004001F80044000400063
:1042300000040007800040044007C000400400075D
:104240000004C0018006000400060001C007000150
:10425000C006000000044006C0010006C004400083
:10426000000410071004E0018006000400000004B0
:104270004005C00640044000000000000004007B30
:10428000E040200000000000000000FFF0000000FF
:1042900000000040207BE00400000000004000809F
:1042A000004000200020004000000000000000004E
:1042B0000000000000000000000000000000001FDF
:1042C000CC000C000000000000000008003000607E
:1042D000000800300060000000022003FC1E2002E5
:1042E0002003FC1E200220000000000E1811043FD5
:1042F000FF10840C78000000000F0010840F3800BD
:10430000C0077818840078000000780F8410C4116A
:10431000240E9800E4008400080800680070000083
:104320000000000000000000000000000000000786
:10433000E018182004400200000000400220041889
:104340001807E00000000000000240024001800F5A
:10435000F001800240024000000080008000800FD9
:10436000F800800080008000000001000D000E00B9
:10437000000000000000000000000000800080003D
:104380008000800080008000800000000C000C0095
:1043900000000000000000000000000006001800FF
:1043A000600180060018002000000007F0080810D7
:1043B000041004080807F000000000080408041FA7
:1043C000FC000400040000000000000E0C1014109B
:1043D00024104411840E0C000000000C181004116D
:1043E00004110412880C700000000000E003200497
:1043F0002408241FFC0024000000001F98108411D2
:10440000041104108810700000000007F0088811E3
:1044100004110418880070000000001C0010001037
:10442000FC13001C001000000000000E38114410A6
:1044300084108411440E38000000000700088C101E
:10444000441044088807F00000000000000000034A
:104450000C030C000000000000000000000001013F
:104460000600000000000000000000008001400283
:10447000200410080810040000022002200220027C
:10448000200220022002200000000010040808047E
:1044900010022001400080000000000E00120010F9
:1044A0000C106C10800F00000003E00C1813E414D3
:1044B0002417C4082807D000000004003C03C41CD3
:1044C00040074000E4001C000410041FFC1104110C
:1044D0000411040E880070000003E00C1810041092
:1044E00004100410081C10000010041FFC1004101D
:1044F000041004080807F0000010041FFC11041148
:104500000417C410040818000010041FFC11041143
:104510000017C010000800000003E00C1810041081
:104520000410441C780040000010041FFC1084009C
:1045300080008010841FFC10040000100410041F71
:10454000FC10041004000000000003000110011022
:10455000011FFE10001000000010041FFC110403D6
:10456000801464181C1004000010041FFC100400C8
:104570000400040004000C000010041FFC1F0000D5
:10458000FC1F001FFC1004000010041FFC0C04039F
:104590000000E010181FFC100007F00808100410BD
:1045A000041004080807F0000010041FFC10841019
:1045B00080108010800F00000007F00818102410F1
:1045C00024101C080A07F2000010041FFC1104113B
:1045D0000011C011300E0C000400000E1C1104105C
:1045E00084108410441C3800001800100010041FB0
:1045F000FC100410001800000010001FF810040048
:1046000004000410041FF8100010001E0011E00048
:104610001C007013801C0010001FC0103C00E01F25
:104620000000E0103C1FC000001004180C163401FC
:10463000C001C01634180C100410001C0013040034
:10464000FC13041C00100000000804101C1064106F
:104650008413041C04101800000000000000007FF8
:10466000FE4002400240020000000030000C000347
:10467000800060001C000300000000400240024077
:10468000027FFE000000000000000000002000404B
:104690000040004000200000000001000100010077
:1046A0000100010001000100010000400040002065
:1046B000000000000000000000000000980124013C
:1046C000440144014400FC000410001FFC00880168
:1046D00004010400880070000000000070008801E0
:1046E000040104010400880000000000700088013B
:1046F00004010411081FFC0004000000F80144013B
:10470000440144014400C800000000010401040FFA
:10471000FC1104110411001800000000D601290149
:1047200029012901C90106000010041FFC008401B1
:10473000000100010400FC00040000010419041938
:10474000FC00040004000000000000000300010160
:1047500001190119FE0000000010041FFC002400D4
:104760004001B4010C010400000000100410041FFB
:10477000FC0004000400000000010401FC0104012D
:104780000001FC0104010000FC010401FC008401A3
:10479000000100010400FC0004000000F801040115
:1047A000040104010400F80000010101FF0085017B
:1047B00004010400880070000000000070008801FF
:1047C000040104010501FF00010104010401FC00D2
:1047D000840104010001800000000000CC012401DC
:1047E00024012401240198000000000100010007B9
:1047F000F80104010400000000010001F8000400B9
:10480000040004010801FC000401000180017000A3
:104810000C001001600180010001F0010C0030016A
:10482000C00030010C01F0010000000104018C0007
:10483000740170018C01040000010101810171000B
:104840000E001801600180010000000184010C01CC
:104850003401440184010C0000000000000000004D
:104860000001003EFC400240020000000000000089
:1048700000FFFF0000000000000000400240023E78
:10488000FC010000000000000000006000800080CB
:104890000040004000200020000000000000000058
:1048A0000000000000000000000000000000000008
:1048B00000000000000000000000000000000000F8
:1048C0000000000000000000000000000F80380F12
:1048D000FE380F80380000000000000000000000DB
:1048E000000000000000000100000600000C0000B5
:1048F0003800003100000600000C000038000030D5
:1049000000000000000000000061800067F807F967
:10491000800061800061800061800061800067F834
:1049200007F9800061800000000000000000000125
:10493000C0E003E0F00630080418081FFFFE040E74
:10494000080787F00381E000000000000001F0008C
:10495000060C00040408060C7001F9C0000E0000EB
:104960003BE000EC18070808040C180003E0000006
:10497000000001E00007F003F818041C0804170801
:1049800007E1D003C0E00023B0003C08002008008D
:1049900000100000000000000100003100003200A3
:1049A000001C0000000000000000000000000000EB
:1049B00000000000000000000000000000000000F7
:1049C0000000000000000000007F0001FFC0078021
:1049D000F00C00181000042000020000000000008D
:1049E0002000021000040C00180780F001FFC00036
:1049F0007F00000000000000000000000000000038
:104A000000000000004200006600006600003C005C
:104A100000180003FFC0001800003C000066000002
:104A200066000042000000000008000008000008C6
:104A30000000080000080001FFC000080000080096
:104A4000000800000800000800000000000001004D
:104A5000003100003200001C0000000000000000D7
:104A60000000000000000000000000000000000046
:104A7000000800000800000800000800000800000E
:104A800008000008000008000008000008000000FE
:104A9000000000000000000000380000380000386E
:104AA0000000000000000000000000000000000006
:104AB000000000000000000000000600001C0000D4
:104AC00070000180000E0000380000C000070000E8
:104AD0001C0000300000000000000000007F80018A
:104AE000FFE00380700600180400080400080600B8
:104AF0001803807001FFE0007F80000000000000CC
:104B000000000001000801000801000803FFF80789
:104B1000FFF8000008000008000008000000000086
:104B20000000000001C03802C058040098040118B9
:104B3000040218040418061C1803F81801E0F80011
:104B4000000000000000000001C0E003C0F004000D
:104B50000804080804080806180803F41801E7F018
:104B60000001E00000000000000000000003000061
:104B70000D0000110000610000810803010807FF1B
:104B8000F80FFFF800010800010800000000000015
:104B90000000E007FCD0060808061008061008060A
:104BA0001008061838060FF00607C00000000000C5
:104BB00000000000003F8001FFE00384300208187D
:104BC000041008041008041008071810030FF00060
:104BD00007C000000000000000000003C000070044
:104BE000000600000600F80607F806180006E000B8
:104BF00007000006000000000000000001E1E003E3
:104C0000F7F0063410041808041808040C08040C03
:104C10000806161803F3F001C1E0000000000000D0
:104C200000F80003FC3003063804020804020804FC
:104C300002080404100308F001FFC0007F00000018
:104C40000000000000000000000000000000000064
:104C5000007038007038007038000000000000005C
:104C60000000000000000000000000000000000044
:104C70000000000000301A00301C0000000000009E
:104C80000000000000000000000000000000000024
:104C90000800001400002200004100008080010094
:104CA000400200200400100800080000000000007E
:104CB000002100002100002100002100002100004F
:104CC000210000210000210000210000210000003F
:104CD000000000000000000800080400100200208E
:104CE000010040008080004100002200001400000C
:104CF000080000000000000003C00004C000040021
:104D000000080038080F380808380810000C300078
:104D100007E00003C000000000000000003F80002A
:104D2000FFE0038070020F1006708804C0880483BF
:104D300008047F8802C09003012000FE40000008A4
:104D40000000180001F8003E0801C2000702000739
:104D5000E20000FE00001FC80001F800003800005B
:104D60000804000807FFF807FFF80408080408080B
:104D700004080804080806180803F41801E7F000FE
:104D800001E0000000000000003F8001FFE0038020
:104D90007002001804000804000804000804001051
:104DA0000600200780C000000004000807FFF80785
:104DB000FFF80400080400080400080400180200BA
:104DC0001003807001FFE0007F80000000040008F5
:104DD00007FFF807FFF80408080408080408080497
:104DE0000808043E080400080600180100600000DE
:104DF0000004000807FFF807FFF80408080408008B
:104E0000040800040800043E00060000060000013B
:104E10008000000000000000003F8001FFE00380F0
:104E2000700600180400080402080402080203F0D7
:104E30000783F000020000020004000807FFF807E3
:104E4000FFF8040808000800000800000800000837
:104E50000004080807FFF807FFF804000800000036
:104E600000000004000804000804000807FFF80719
:104E7000FFF8040008040008040008000000000017
:104E8000000000000000060000070000010400010F
:104E900004000104000307FFFE07FFFC04000004F8
:104EA000000004000004000807FFF807FFF8040CE6
:104EB00008001800003E0004C7800503C80600F87B
:104EC00004003804001800000804000807FFF80771
:104ED000FFF80400080000080000080000080000B7
:104EE000080000080000180000600000000400082E
:104EF00007FFF807800807FC00007FC00003F800E8
:104F000007C000780007800807FFF807FFF80400D3
:104F10000804000807FFF807000803C00000E000CD
:104F2000003800001E000007000001C00400F00768
:104F3000FFF8040000000000007F8001FFE0038014
:104F4000700600180400080400080600180300306A
:104F500001FFE0007F8000000004000807FFF80761
:104F6000FFF804040804040004040004040004041A
:104F700000060C0003F80001F00000000000000033
:104F8000007F8001FFE00380700600880400880431
:104F900000C806003C03003E01FFE6007F840000DD
:104FA0000004000807FFF807FFF8040808040800D9
:104FB000040C00040F00040BC00610F003F03801CD
:104FC000E00800000800000001E0F803F0300630BF
:104FD00010041808041808040C08040C0802061829
:104FE0000207F00781E000000001800006000004D5
:104FF000000004000004000807FFF807FFF80400A1
:105000000804000004000006000001800004000005
:1050100007FFE007FFF00400180000080000080088
:10502000000800000800000804001007FFE004006A
:105030000004000006000007E00007FE00041FE077
:105040000001F80000380001E0043E0007C000063F
:10505000000004000004000007E00007FFC0041F78
:10506000F80007C007F80007FF80043FF80007C0FA
:1050700004F8000700000400000000000400080617
:10508000001807C07805F1C8003E00001F800463C7
:10509000E80780F80600180400080000000400007B
:1050A00006000007800007E008047C08001FF800E5
:1050B00007F800180804E0080700000600000400D4
:1050C000000000000100080600380400F80403E8AE
:1050D000040F08047C0805F00807C008070018043E
:1050E0000060000000000000000000000000000060
:1050F000000000003FFFFE2000022000022000020E
:105100002000022000020000000000000000000853
:10511000000007000000C000003800000600000189
:10512000C000003000000E00000100000000000080
:1051300000000020000220000220000220000220C7
:1051400000023FFFFE000000000000000000000021
:105150000000000000000000000008000010000037
:1051600030000020000030000010000008000000A7
:10517000000000000000000100000100000100002C
:105180000100000100000100000100000100000119
:10519000000001000001000001000000000000000C
:1051A000000020000020000010000010000000009F
:1051B00000000000000000000000000000000000EF
:1051C0000000F00019F8001B180022080026080053
:1051D0002408002410003FF8001FF8000008000019
:1051E0001800000004000007FFF80FFFF000181877
:1051F000001008002008002008003018001FF000F0
:105200000FC00000000000000007C0001FF00018E1
:1052100030002008002008002008003C08001C1076
:105220000000600000000000000000000007C00057
:105230001FF0003818002008002008002008041083
:105240001007FFF80FFFF000001000000000000042
:105250000000000007C0001FF000123000221800FC
:105260002208002208003208001E10000E20000054
:105270000000000000200000200800200801FFF8C6
:1052800003FFF80620080420080420080720000374
:10529000000000000000000000000E000E6E001F65
:1052A000F30031B10020B10020B1003191001F1393
:1052B000002E1E00200E0030000000000400080731
:1052C000FFF80FFFF8001008002000002000002069
:1052D00008003FF8001FF800000800000000000070
:1052E000000000002008002008002008063FF80603
:1052F0003FF800000800000800000800000000005F
:105300000000000000000000000300000300200176
:10531000002001002003063FFE063FFC00000000C5
:10532000000000000000000004000807FFF80FFF65
:10533000F8000188000300002FC00038F800203872
:105340000020080000080000000000000000000429
:10535000000804000804000807FFF80FFFF8000029
:1053600008000008000008000000000000002008FD
:10537000003FF8003FF8001008002000003FF80050
:105380003FF8001008002000003FF8003FF8000040
:1053900008000000002008003FF8003FF800100857
:1053A000001000002000002008003FF8001FF80057
:1053B00000080000000000000007C0000FF0001807
:1053C00030003008002008002008003008001830A5
:1053D000000FF00007C000000000000000200100E6
:1053E0003FFF003FFF0010110020090020080020AF
:1053F00008003038001FF0000FC00000000000005F
:105400000007C0001FF00038180020080020080026
:105410002009001011001FFF003FFF0000010000E5
:1054200000002008002008002008003FF8003FF896
:1054300000080800100800200800200000300000CC
:105440003000000000000000000000000C78001E8A
:105450001800330800230800210800218800219843
:105460000030F00038600000000000000020000064
:10547000200000200000FFF003FFF80020080020BB
:1054800008002008000030000000000000000000BC
:10549000002000003FF0007FF80000180000080026
:1054A0000008002010003FF8007FF000001000000E
:1054B00000000000002000003000003C00003F80A1
:1054C0000023F0000078000070002380003C000002
:1054D0003000002000002000003C00003FE00023DE
:1054E000F80000E0002700003E00003FE00021F847
:1054F0000001E0003E000020000000000020080045
:105500002008003838003E680027800003C8002CBF
:10551000F8003838002018002008000000000000C3
:10552000002000003003003C01003F830023EC001A
:105530000070002380003C000020000020000000DC
:10554000000000000000000038080020380020F8AB
:105550000023E8002F88003E0800380800201800CB
:1055600000700000000000000000000000000000CB
:10557000000000000008000014001FF7FC300006C7
:1055800020000200000000000000000000000000F9
:105590000000000000000000000000FFFFFF00000E
:1055A00000000000000000000000000000000000FB
:1055B0000000002000023000061FF7FC001400006D
:1055C00008000000000000000000000000000000D3
:1055D00000000000180000600000400000400000D3
:1055E0002000001000000800000400000400000C6F
:1055F000000010000000000000000000000000009B
:10560000000000000000000000000000000000009A
:10561000000000000000000000000000000000008A
:10562000000000000000000000000000000000007A
:10563000000000000000000000000000000000006A
:10564000000000000000000000000000000000005A
:10565000000000000000000000000000000000004A
:10566000000000000000000000000000000000003A
:10567000000000000000000000000000000000002A
:105680000000000000000000000000000007F00023
:10569000C007FFE1E007F001E0000000C0000000EB
:1056A00000000000000000000000000000000000FA
:1056B00000000000000000000000000000000000EA
:1056C00000000000000000000000000000000000DA
:1056D00000000000000000000000000000000000CA
:1056E00000000000000000000000000000000000BA
:1056F000000000000000000000000000000020008A
:105700000001C00000078000001F0000001E000014
:10571000001C20000001C00000078000001F0000E6
:10572000001E0000001C000000000000000000003F
:105730000000000000000000000000000000000069
:105740000000000000000000000000000000000059
:105750000000000000000000000000000000000049
:105760000000000000000000000000000000000039
:1057700000000000000000000000180C0000180CE1
:105780000000180FE0001FFC0003F80C0000180CCC
:105790000000180C0000180C0000180C0000180F76
:1057A000E0001FFC0003F80C0000180C0000180CAF
:1057B00000000000000000000000000000000000E9
:1057C00000000000000000000000000000000000D9
:1057D00000000000000000000000000000000000C9
:1057E00000000000000000000000000000000000B9
:1057F00000000000000000000000000000000007A2
:1058000080007807C000FC0640010E00200307005E
:1058100020020380200FFFFFFC0201C0200200E0F5
:10582000600130704001F03F8000F01F0000000078
:105830000000000000000000000000000000000068
:105840000000000000000000000000000000000058
:105850000000000000000000000000000000000048
:105860000000000000000000000000000000000038
:10587000000000000000FE000001FF0000030180A6
:105880000002008060030181C001FF070000FE18D4
:10589000000000E0000003BF00000CFFC0007180AA
:1058A0006001C10020030180600000FFC000003FD4
:1058B00000000000000000000000000000000000E8
:1058C00000000000000000000000000000000000D8
:1058D00000000000000000000000000000000000C8
:1058E00000000000000000000000000000000000B8
:1058F000000000000000001F0000007FC000FCC08E
:10590000C001FF80600303E0200202782002061E2F
:105910002003FC074001F00380000103C000011CCC
:10592000600001E0200001002000010040000001B3
:1059300080000000000000000000000000000000E7
:105940000000000000000000000000000000000057
:105950000000000000000000000000000000000047
:105960000000000000000000000000000000000037
:10597000000000000000000000002000001C60008B
:10598000001C4000001F8000000F0000000000000D
:105990000000000000000000000000000000000007
:1059A00000000000000000000000000000000000F7
:1059B00000000000000000000000000000000000E7
:1059C00000000000000000000000000000000000D7
:1059D00000000000000000000000000000000000C7
:1059E00000000000000000000000000000000000B7
:1059F00000000000000000000000000000000000A7
:105A00000000000000000000000000000000000096
:105A1000000007F800003FFF00007807C001C00049
:105A2000E00300003004000008080000041000003B
:105A30000200000000000000000000000000000064
:105A40000000000000000000000000000000000056
:105A50000000000000000000000000000000000046
:105A60000000000000000000000000000000000036
:105A7000000000000000000000100000020800000C
:105A800004040000080300003001C000E0007807B3
:105A9000C0003FFF000007F8000000000000000009
:105AA00000000000000000000000000000000000F6
:105AB00000000000000000000000000000000000E6
:105AC00000000000000000000000000000000000D6
:105AD00000000000000000000000000000000000C6
