:020000040800F2
:1000000090070020AD0200086104000859040008B0
:100010005D040008530400082106000800000000E9
:10002000000000000000000000000000650400085F
:10003000570400080000000063040008670400087B
:10004000C7020008C7020008C7020008C70200086C
:10005000C7020008C7020008C7020008C70200085C
:10006000C7020008C7020008C7020008C70200084C
:10007000C7020008C7020008C7020008C70200083C
:10008000C7020008C7020008C7020008C70200082C
:10009000C7020008C7020008C7020008C70200081C
:1000A000C7020008C7020008C7020008C70200080C
:1000B000C7020008C7020008C7020008C7020008FC
:1000C000C7020008C7020008C7020008C7020008EC
:1000D000C7020008C7020008F90400088D050008DF
:1000E000C7020008C7020008C7020008C7020008CC
:1000F000C7020008C7020008C7020008C7020008BC
:10010000C7020008C7020008C7020008C7020008AB
:10011000C7020008C7020008C7020008C70200089B
:10012000C7020008C7020008C7020008C70200088B
:10013000C7020008C7020008C7020008C70200087B
:10014000C7020008C7020008C7020008C70200086B
:10015000C7020008C702000800000000C70200082C
:10016000C7020008C70200080000000000000000ED
:10017000C7020008C7020008C7020008000000000C
:1001800000000000C7020008C7020008C7020008FC
:10019000C70200080000000000000000000000008E
:1001A000000000000000000000000000C70200087E
:1001B000C702000800000000C7020008000000009D
:1001C000000000000000000000000000000000002F
:1001D0000000000000000000C7020008C70200087D
:1001E000C7020008C7020008C7020008C7020008CB
:1001F000C7020008C7020008C7020008C7020008BB
:10020000C7020008C7020008C702000800F002F891
:1002100000F03CF80AA090E8000C82448344AAF164
:100220000107DA4501D100F031F8AFF2090EBAE862
:100230000F0013F0010F18BFFB1A43F0010318471A
:10024000A80F0000C80F0000103A24BF78C878C17A
:10025000FAD8520724BF30C830C144BF04680C60CC
:10026000704700000023002400250026103A28BF14
:1002700078C1FBD8520728BF30C148BF0B60704718
:100280001FB500F08EFF1FBD10B510BD00F0A8F81F
:100290001146FFF7F5FF00F0BDFC00F0C6F803B40F
:1002A000FFF7F2FF03BC00F0CDF8000009488047DB
:1002B00009480047FEE7FEE7FEE7FEE7FEE7FEE748
:1002C000FEE7FEE7FEE7FEE704480549054A064B60
:1002D00070470000690400080D020008900100202A
:1002E00090070020900300209003002053EA020CA6
:1002F00000F069802DE9F04B4FF00006002B1FBF86
:10030000B3FA83F503FA05F424FA05F65E4012BF4A
:100310001643B2FA82F502FA05F4C5F120051EBFB4
:1003200022FA05FC44EA0C04203556EA044C4FEA54
:10033000144418BF641C4FF000084FF000099042AD
:1003400071EB030C39D3002919BFB1FA81F701FA17
:1003500007F6B0FA80F700FA07F6C7F120071EBFCC
:1003600020FA07FC46EA0C062037B6FBF4FCA7EBA4
:100370000507103F07F01F0BCBF120060CFA0BFB13
:100380002CFA06F644BFB3460026202FA4BF5E46D3
:100390004FF0000B5BEA060C08BF4FF0010B19EBA6
:1003A0000B09ABFB027C48EB0608C01B06FB02CC2A
:1003B0000BFB03CC71EB0C01C1E70B460246414637
:1003C0004846BDE8F08B13B54FF000004FF0000138
:1003D000AFF30080BDE81C4070477047704770471E
:1003E000754600F02BF8AE4605006946534620F0EE
:1003F0000700854618B020B5FFF766FFBDE820402E
:100400004FF000064FF000074FF000084FF0000BD0
:1004100021F00701AC46ACE8C009ACE8C009ACE883
:10042000C009ACE8C0098D46704710B50446AFF36B
:1004300000802046BDE81040FFF731BF00487047FC
:100440003001002001491820ABBEFEE72600020063
:10045000704700BFFEE7704700BFFEE700BFFEE742
:1004600070477047704770471F48006840F470003D
:100470001D4908601D48006820F00100401C1B4910
:10048000086000BF19480068C0F340000028F9D098
:1004900016480830006820F003001449083108604D
:1004A00000BF124808300068C0F381000028F8D16E
:1004B0000E49083108600D4800680D4908400B4995
:1004C00008600C48091D086000200849A031086038
:1004D0004FF41F0005490C3108604FF000600249DD
:1004E000803908607047000088ED00E00038024065
:1004F000FFFFF2FE0230030010B520211B4800F080
:10050000C2FDB0B1194800F0B1FDC1B2184802787F
:100510000078401C164B1870164881541846007815
:1005200015490978884204D1002214490F4800F087
:1005300013FE80210D4800F0A6FDB0B110480278EE
:100540000078401C0E4B18700E48815C074800F084
:1005500091FD0B4800780C490978884205D10022AA
:100560000649891C014800F0F7FD10BD0044004019
:100570007E000020B40000208100002005000C0057
:100580007C000020000000208000002010B5202109
:100590001B4800F078FDB0B1194800F067FDC1B20A
:1005A000184802780078401C164B18701648815481
:1005B0001846007815490978884204D10022144968
:1005C0000F4800F0C9FD80210D4800F05CFDB0B17E
:1005D000104802780078401C0E4B18700E48815C61
:1005E000074800F047FD0B4800780C49097888421D
:1005F00005D100220649891C014800F0ADFD10BD5F
:10060000004800407F000020F10000208000002012
:1006100005000C007D0000203E000020810000202D
:1006200000BFFEE710B500F025FA002000F010F83A
:10063000012000F00DF8022000F00AF8002000F080
:100640002FF8012000F02CF8022000F029F810BD4E
:100650001CB504460F4951F82400012100F07EF931
:10066000684600F06EFA01208DF8070000208DF832
:10067000040001208DF80600074830F814000090AF
:1006800000208DF80500054951F82400694600F066
:1006900062FA1CBD98000020900000208400002019
:1006A000022800DD7047064931F8101031B10449C5
:1006B00031F81010034A52F82020916100BFF1E791
:1006C0009000002084000020022800DD70470949C6
:1006D00031F8101059B1084951F820104969054AFC
:1006E00032F810205140044A52F82020516100BFD6
:1006F000ECE70000900000208400002010B50346C5
:1007000007E018780C78A04201D0002010BD5B1CD7
:10071000491C101EA2F10104A2B2F2D10120F5E79A
:100720000349096860F30711014A1160704700002E
:10073000083802400349096860F38C21014A1160BE
:1007400070470000083802400349096860F34F31E0
:10075000014A11607047000008380240012807D1A3
:100760000749096821F030013031054A116005E080
:100770000349096821F03001014A11607047000007
:10078000A438024005282BD2DFE800F0030A111834
:100790002100154A126861F30002134B1A6020E031
:1007A000114A126861F310420F4B1A6019E00E4AA9
:1007B000126861F318620C4B1A6012E00A4A703238
:1007C000126861F30002084B70331A6009E0064AB0
:1007D0007432126861F30002034B74331A6000E054
:1007E00000BF00BF70470000003802402DE9FE4FF7
:1007F00004464FF00009CA46CB4600200290019003
:100800000025002600F02EF90090009820B1012864
:1008100012D002283FD112E031480068C0F3803086
:1008200038B12F480068C0F3003010B12D48206067
:1008300001E02D48206031E02B4820602EE0284860
:100840009C380068C0F38050029025489C380068AE
:10085000C0F3881922489C38006800F00F0A20482D
:100860009C380068C0F30240204911F800B002989B
:1008700010B91D48019001E01B4801900AFB0BFCD8
:100880000198A0FB09700146624600233846FFF735
:100890002DFD206002E01448206000BF00BF10481A
:1008A00098380068C0F303151148465D2068F04091
:1008B00060600B4898380068C0F382250D48465D9B
:1008C0006068F040E060064898380068C0F3423540
:1008D0000948465D6068F040A060BDE8FE8F0000FA
:1008E000A0380240006CDC0200127A00CC11000833
:1008F000AC110008BC110008C411000810B5014675
:100900000020094B03EB1142D2F8002801F01F042C
:100910000123A3401A4001F01F040123A3409A427F
:1009200000D000E0012010BD0030024030B50024AE
:10093000002500E0641C1120FFF7E0FF012802D031
:10094000B4F5405FF6D31120FFF7D8FF012801D09E
:10095000002500E00125284630BD000010B5012922
:100960000FD1104B03EB1042D2F8002800F01F0407
:100970000123A3401A430B4C04EB1043C3F8002897
:100980000EE0084B03EB1042D2F8002800F01F04E1
:100990000123A3409A43034C04EB1043C3F80028FF
:1009A00010BD00000030024030B50B4C246860F3ED
:1009B0009654094D2C602C46246861F38E142C60EB
:1009C0002C46246862F303042C602C46246863F3ED
:1009D00012442C6030BD0000043802401948006801
:1009E00020F00100401C1749086000BF154800684E
:1009F000C0F340000028F9D012480830006820F009
:100A0000030010490831086000BF0E480830006834
:100A1000C0F381000028F8D10A490831086009486C
:100A2000006809490840074908600848091D08602E
:100A300000200449A03108604FF41F0001490C3127
:100A40000860704700380240FFFFF2FE02300300EA
:100A50000349096860F30101014A11607047000011
:100A60000838024002480068C0F381007047000067
:100A70000838024010B5042000F048FA0748006822
:100A80000749B0FBF1F007490860084600684FF4D9
:100A90007A7148430449086010BD0000B00000208E
:100AA00040420F00A4000020A8000020002131E0F7
:100AB00032280ADD194A126832235A434FF0E023E4
:100AC0005A61A0F1320290B206E0144A1268424321
:100AD0004FF0E0235A61002000224FF0E0239A619A
:100AE0001A46126942F001021A6100BF4FF0E0227B
:100AF000116901F001021AB101F48032002AF5D027
:100B00004FF0E022126922F001024FF0E0231A6157
:100B100000229A610028CBD170470000A800002075
:100B200030B50446002509E04FF4FA70FFF7BEFF28
:100B30004FF4FA70FFF7BAFF681C85B2A542F3DBE9
:100B400030BD4FF6FF71016000218171017141716B
:100B50000121C171704770B50A4600211488A3B203
:100B600033E003F001046CB304684E000325B54084
:100B7000AC43046094794D00AC4005682C4304609C
:100B8000446801258D40AC434460446815798D402C
:100B90002C43446084684E000325B540AC43846018
:100BA000D4794D00AC4085682C438460C4684E0005
:100BB0000325B540AC43C46054794D00AC40C568D2
:100BC0002C43C4605B104C1CA1B2002BC9DC70BD6F
:100BD000F0B5002300244D07ED0E02FA05F3CD1009
:100BE0005DB1456A4E07F70E0F26BE40B54345621C
:100BF000456A45EA030444620AE0056A4E07F70EB7
:100C00000F26BE40B5430562056A45EA0304046247
:100C1000F0BD000000F0B4F8FFF704FD00F08AF921
:100C200000BF13480078134909788842F9DB00BFF8
:100C300011480078114909788842F9DB17E03D2214
:100C40000F491048FFF75AFD88B13D220E490F4861
:100C5000FFF754FD58B10020FFF736FD0120FFF7E4
:100C600033FD0220FFF730FD0120FFF759FFE6E7D3
:100C70007F000020800000207E00002081000020F6
:100C8000F100002000000020B40000203E00002001
:100C90002DE9F0470B4614464FF0000C00BF2C4ADC
:100CA0001268C2F302211D4626460A46C2F1070910
:100CB000B9F1040F02D94FF0040901E0C2F10709AC
:100CC000C84602F10409B9F1070F02D24FF000093A
:100CD00001E0A2F103094F464FF0010909FA08F9B2
:100CE000A9F1010909EA050909FA07F94FF0010A12
:100CF0000AFA07FAAAF1010A0AEA060A49EA0A09FF
:100D0000CC4601466246002904DB15072E0E114D24
:100D10006E5407E015072F0E0D4D0C3501F00F0630
:100D2000361FAF5500BF014600290DDB00BF00BFD5
:100D300001F01F050122AA404D09AD0005F1E02593
:100D4000C5F8002100BF00BF00BFBDE8F08700006C
:100D50000CED00E000E400E000BF00F00702064BED
:100D600019684FF6FF031940044B0B4343EA022175
:100D7000014B196000BF70470CED00E00000FA0560
:100D800010B501212248FFF7E9FD2248006920F053
:100D90000700401C1F4908611F48006820F003003D
:100DA000401C1D490860FFF719FE01210846FFF7A6
:100DB000E9FC00BFFFF7BAFD0028FBD001231A466B
:100DC00048211846FFF7F0FD01210220FFF7DAFC69
:100DD00000BF1920FFF792FD0128FAD10020FFF78C
:100DE0009FFC0420FFF7B0FC0420FFF7A3FC0120C8
:100DF000FFF7B4FC0220FFF72BFE00BFFFF732FE27
:100E00000228FBD10020FFF7A9FC00F007F810BD75
:100E10001C00400000700040603C02402DE9FC5F77
:100E2000002400250026A146A246A34600200190EA
:100E3000FFF718FE0090009820B1012814D0022876
:100E400041D115E02B480068C0F3803040B12948FB
:100E50000068C0F3003018B127482849086002E054
:100E600027482649086032E02548244908602EE0DA
:100E700020489C380068C0F380591E489C380068A0
:100E8000C0F388141B489C38006800F00F0519480F
:100E90009C380068C0F302401A490E5CB9F1000F9B
:100EA00002D1DFF85CA001E0DFF854A005FB06FCEE
:100EB000AAFB04700146624600233846FFF716FA83
:100EC0000E49086003E00E480C49086000BF00BFEF
:100ED000084898380068C0F3031B0B4810F80B0053
:100EE0000190064800680199C84004490860BDE8BF
:100EF000FC9F0000A0380240006CDC02B000002023
:100F000000127A00E2110008D2110008042808D16A
:100F10004FF0E021096941F004014FF0E022116136
:100F200007E04FF0E021096921F004014FF0E022D1
:100F3000116170471CB501214548FFF70FFD0121E4
:100F40004FF44010FFF70AFD01214148401CFFF714
:100F500005FD01213F48FFF701FD6846FFF7F1FD60
:100F600001208DF8070000208DF8040002208DF884
:100F700006000C20009000208DF8050069463648D8
:100F8000FFF7E9FD072202213348FFF721FE072280
:100F900003213148FFF71CFE4FF440600090694682
:100FA0002E48FFF7D8FD07220A212C48FFF710FE34
:100FB00007220B212948FFF70BFE0320FFF7CCFE89
:100FC000002211462620FFF763FE0022114627204B
:100FD000FFF75EFE002301224FF4E131204800F0CC
:100FE0005BF801211E4800F0D7F801211C4800F0F1
:100FF000CEF8002301224FF4E1311A4800F04CF8FA
:101000000121184800F0C8F80121164800F0BFF887
:1010100001221549124800F09FF80121104800F004
:101020002DF8012210490F4800F096F801210D48D3
:1010300000F024F801220C49891C094800F08CF8C2
:1010400001220949891C074800F086F81CBD0000F0
:101050001100400001003000000002400004024086
:10106000004400400048004005000C00014648686C
:1010700080B27047C1F3080242607047C26861F3F2
:101080004D32C260704702461068084008B1012026
:1010900070470020FCE700002DE9FF470446884622
:1010A000164699466846FFF7A1FB2748844208D0B8
:1010B0002648844205D02648844202D025488442EE
:1010C00001D1029F00E0039F07EB87004000B0FBC7
:1010D000F8F50A20B5FBF0F100FB1150052803D20A
:1010E0000A20B5FBF0F503E00A20B5FBF0F0451C43
:1010F000A06865F30F00A06056B9E06820F080504A
:1011000000F18050E060E06820F48050E06014E07E
:10111000012E08D1E06820F08050E060E06820F403
:101120008050E06009E0E06820F08050E060E06816
:1011300020F4805000F58050E060206969F30D30A4
:101140002061BDE8FF87000000100140001401404D
:1011500000780040007C004030B5012A0BD100EB44
:1011600011431B6801F01F050124AC40234300EB31
:10117000114423600AE000EB11431B6801F01F05D6
:101180000124AC40A34300EB1144236030BDC2688E
:1011900061F38202C2607047C26861F3C302C26039
:1011A00070474FF04070E1EE100A704700000000F9
:1011B0000000000001020304060708090000000007
:1011C00001020304000000000102030401020408FC
:1011D00010200000000000000000010203040607C8
:1011E000080901020408102008120008000000206D
:1011F000B400000048020008BC120008B40000203F
:10120000DC06000064020008757361727420747259
:10121000616E7366657220627920696E74657272A0
:101220007570743A20757361727432202D3E20758A
:101230007361727433207573696E6720696E7465AB
:101240007272757074007573617274207472616E5D
:101250007366657220627920696E7465727275704A
:10126000743A20757361727433202D3E207573615A
:10127000727432207573696E6720696E746572725C
:1012800075707400000000003D3D0000000C02403D
:10129000000C0240000C02400020004000800000D2
:1012A00003003000030030000300300000000000A5
:0C12B000000000000100000000127A00A5
:040000050800020DE0
:00000001FF
