:020000040800F2
:100000005014002021020008170300080F03000805
:10001000130300080903000895040008000000000D
:100020000000000000000000000000001B030008AA
:100030000D03000800000000190300081D0300085C
:100040003B0200083B0200083B0200083B0200089C
:100050003B0200083B0200083B0200083B0200088C
:100060003B0200083B0200083B0200083B0200087C
:100070003B0200083B0200083B0200083B0200086C
:100080003B0200083B0200083B0200083B0200085C
:100090003B0200083B0200083B0200083B0200084C
:1000A0003B0200083B0200083B0200083B0200083C
:1000B0003B020008B10300083B0200083B020008B5
:1000C0003B0200083B0200083B0200083B0200081C
:1000D0003B020008150400083B0200083B02000830
:1000E0003B0200083B0200083B0200083B020008FC
:1000F0003B0200083B0200083B0200083B020008EC
:100100003B0200083B0200083B0200083B020008DB
:100110003B0200083B0200083B0200083B020008CB
:100120003B0200083B0200083B0200083B020008BB
:100130003B0200083B0200083B0200083B020008AB
:100140003B0200083B0200083B0200083B0200089B
:100150003B0200083B020008000000003B020008D0
:100160003B0200083B020008000000000000000005
:100170003B0200083B0200083B02000800000000B0
:10018000000000003B0200083B0200083B020008A0
:100190003B0200080000000000000000000000001A
:1001A0000000000000000000000000003B0200080A
:1001B0003B020008000000003B02000800000000B5
:1001C000000000000000000000000000000000002F
:1001D00000000000000000003B0200083B02000895
:1001E0003B0200083B0200083B0200083B020008FB
:1001F0003B0200083B0200083B0200083B020008EB
:100200003B0200083B0200083B020008DFF80CD06C
:1002100000F068F800480047211100085014002041
:100220000648804706480047FEE7FEE7FEE7FEE790
:10023000FEE7FEE7FEE7FEE7FEE7FEE72103000834
:100240000D0200082DE9F05F0546002092469B460E
:1002500088460646814640241BE0284641464746DC
:10026000224600F02FF853465A46C01A914110D347
:1002700011461846224600F016F82D1A67EB0108C1
:100280004F4622460120002100F00DF817EB00092F
:100290004E41201EA4F10104DFDC484631462A46C7
:1002A0004346BDE8F09F202A04DB203A00FA02F121
:1002B000002070479140C2F1200320FA03F3194354
:1002C00090407047202A04DB203A21FA02F00021F6
:1002D000704721FA02F3D040C2F120029140084356
:1002E00019467047064C074D06E0E06840F00103F0
:1002F00094E8070098471034AC42F6D3FFF78AFF22
:10030000001700082017000800BFFEE7704700BF75
:10031000FEE700BFFEE77047704770477047000078
:100320001F48006840F470001D4908601D480068BF
:1003300020F00100401C1B49086000BF19480068FC
:10034000C0F340000028F9D016480830006820F0BB
:10035000030014490831086000BF124808300068E3
:10036000C0F381000028F8D10E49083108600D481B
:1003700000680D4908400B4908600C48091D0860D9
:1003800000200849A03108604FF41F0005490C31D6
:1003900008604FF000600249803908607047000033
:1003A00088ED00E000380240FFFFF2FE023003005B
:1003B00010B50121134801F056F8012820D1012180
:1003C000104801F04DF8002000F0AAF90E4800781E
:1003D000B0B10E480078401CC0B20C49087008B992
:1003E000FF20087009480078022801DD00F0B2F90A
:1003F00006480078052803DD0021054800F0DEFBF3
:1004000010BD00000004004011000020100000207A
:100410000300300010B500201B49087020211B4844
:1004200001F0C1F870B3194801F0B0F8044618485B
:10043000B0F80408B0F5806F08DB00201449A1F87B
:100440000408A1F80008A1F802081BE01048B0F861
:100450000408401C0E49A1F804080846B0F800182A
:10046000B0F80008401C0A4AA2F80008104620F81C
:100470001140B0F80008B0F5806F03DB0020114692
:10048000A1F8000810BD000010000020001001407D
:100490004A08002000BFFEE7002807DB00F01F022B
:1004A00001219140024A430942F82310704700009D
:1004B00080E200E002E008C8121F08C1002AFAD159
:1004C00070477047002001E001C1121F002AFBD1D4
:1004D0007047000010B504462068A0F10050B0F548
:1004E000C02F22D20021114800F068FB00211048E3
:1004F00000F064FB00214FF4401000F05FFB25206A
:1005000000F034FE1D2000F031FE2520FFF7C4FF6F
:100510001D20FFF7C1FF074960680860206880F36D
:10052000088800BF08460068804710BD01004000F1
:10053000040044000C00002010B500244848007856
:10054000F0B948480078022806D1002045490870D3
:1005500001204349087081E042480078042805D111
:1005600000204049087000F02DF977E03D48007800
:10057000032873D100203B49087000F0EBF86DE0D0
:1005800037480078012807D13749087002203449DC
:10059000087000F017F961E031480078022836D180
:1005A00032480078042828D1314840780106304884
:1005B000807801EB00412E48C07801EB00212C48E7
:1005C00000790C182B48844211D32B480068800214
:1005D00000F10060A0420AD92549491D204600F0DB
:1005E000C5FB00202149087000F0ECF836E000203F
:1005F0001E49087000F0AEF830E01C48007805286D
:100600002CD100201949087000F0A4F826E0144805
:100610000078032822D113480078022815D1002041
:100620001049087000F0CEF81248406800F07F4092
:10063000B0F1006F05D100F001FB0E48FFF74AFF53
:100640000CE003200749087008E0064800780328FA
:1006500004D100200349087000F07CF810BD0000B0
:1006600006000020050000201100002004000020EA
:100670004400002000400008E0F7FF1F10B500F024
:1006800059FB002000F010F8012000F00DF80220C6
:1006900000F00AF8002000F02FF8012000F02CF8FC
:1006A000022000F029F810BD1CB504460F4951F88E
:1006B0002400012100F082FA684600F0C3FC01200A
:1006C0008DF8070000208DF8040001208DF8060049
:1006D000074830F81400009000208DF80500054907
:1006E00051F82400694600F0B7FC1CBD280000202A
:1006F0002000002014000020022800DD7047064979
:1007000031F8101031B1044931F81010034A52F891
:100710002020916100BFF1E720000020140000209C
:10072000022800DD7047094931F8101059B1084915
:1007300051F820104969054A32F810205140044A06
:1007400052F82020516100BFECE70000200000209B
:100750001400002010B5EE21124800F01BFF00BF6E
:100760004021104800F01FFF0028F9D0FF210D485C
:1007700000F010FF00BF40210A4800F014FF0028DD
:10078000F9D0002008490870084908700849087025
:100790000849087008490860084908700849087045
:1007A00010BD0000001001400400002005000020E2
:1007B0000600002007000020080000201000002094
:1007C0001100002010B5CC210A4800F0E3FE00BF64
:1007D0004021084800F0E7FE0028F9D0DD21054857
:1007E00000F0D8FE00BF4021024800F0DCFE0028E7
:1007F000F9D010BD0010014070B55A49B1F8041885
:10080000002902DD00F066FA00E070BD5649097863
:10081000E1B95649097829B95A2802D10121534A28
:1008200011709CE0514909780129FAD1012803D1BE
:1008300002214E4A117092E0A52803D104214B4AAF
:1008400011708CE00321494A117088E0464909780B
:1008500002296AD14649097831B101291AD0022901
:100860002BD003295FD13DE0312807D10121404A37
:10087000117000213F4A11703F4A11605A2808D177
:100880003A49097829B90121384A11700321364AB9
:10089000117049E03949374A127888543549097846
:1008A000491C344A117011460978042904DB0021DF
:1008B000117002212E4A117036E03049091D2E4A6E
:1008C000126888542C490968491C2B4A116011464A
:1008D0000968B1F5006F04D3002111600321244A97
:1008E000117021E00025002405E02449095D294418
:1008F000CDB2611C8CB2042CF7DB002406E01F494A
:10090000091D095D2944CDB2611C8CB2B4F5006F9C
:10091000F5DB854203D10421154A117002E005215F
:10092000134A117000E000BF19E00F49097803294C
:1009300015D10E49097829B95A2810D101210B4A3D
:1009400011700CE009490978012908D1022803D166
:100950000221064A117002E00321044A117000BF0F
:1009600053E700004A080020060000200500002090
:10097000040000200700002008000020450000209F
:100980000349096860F30711014A116070470000CC
:10099000083802400349096860F38C21014A11605C
:1009A00070470000083802400349096860F34F317E
:1009B000014A11607047000008380240012807D141
:1009C0000749096821F030013031054A116005E01E
:1009D0000349096821F03001014A116070470000A5
:1009E000A438024005282BD2DFE800F0030A1118D2
:1009F0002100154A126861F30002134B1A6020E0CF
:100A0000114A126861F310420F4B1A6019E00E4A46
:100A1000126861F318620C4B1A6012E00A4A7032D5
:100A2000126861F30002084B70331A6009E0064A4D
:100A30007432126861F30002034B74331A6000E0F1
:100A400000BF00BF70470000003802402DE9FE4F94
:100A500004464FF00009CA46CB46002002900190A0
:100A60000025002600F02EF90090009820B1012802
:100A700012D002283FD112E031480068C0F3803024
:100A800038B12F480068C0F3003010B12D48206005
:100A900001E02D48206031E02B4820602EE02848FE
:100AA0009C380068C0F38050029025489C3800684C
:100AB000C0F3881922489C38006800F00F0A2048CB
:100AC0009C380068C0F30240204911F800B0029839
:100AD00010B91D48019001E01B4801900AFB0BFC76
:100AE0000198A0FB09700146624600233846FFF7D3
:100AF000A9FB206002E01448206000BF00BF10483E
:100B000098380068C0F303151148465D2068F0402E
:100B100060600B4898380068C0F382250D48465D38
:100B20006068F040E060064898380068C0F34235DD
:100B30000948465D6068F040A060BDE8FE8F000097
:100B4000A0380240006CDC0200127A00E2160008B5
:100B5000C2160008D2160008DA16000810B50146C1
:100B60000020094B03EB1142D2F8002801F01F04CA
:100B70000123A3401A4001F01F040123A3409A421D
:100B800000D000E0012010BD0030024030B500244C
:100B9000002500E0641C1120FFF7E0FF012802D0CF
:100BA000B4F5405FF6D31120FFF7D8FF012801D03C
:100BB000002500E00125284630BD000010B50129C0
:100BC0000FD1104B03EB1042D2F8002800F01F04A5
:100BD0000123A3401A430B4C04EB1043C3F8002835
:100BE0000EE0084B03EB1042D2F8002800F01F047F
:100BF0000123A3409A43034C04EB1043C3F800289D
:100C000010BD00000030024030B50B4C246860F38A
:100C10009654094D2C602C46246861F38E142C6088
:100C20002C46246862F303042C602C46246863F38A
:100C300012442C6030BD000004380240194800689E
:100C400020F00100401C1749086000BF15480068EB
:100C5000C0F340000028F9D012480830006820F0A6
:100C6000030010490831086000BF0E4808300068D2
:100C7000C0F381000028F8D10A490831086009480A
:100C8000006809490840074908600848091D0860CC
:100C900000200449A03108604FF41F0001490C31C5
:100CA0000860704700380240FFFFF2FE0230030088
:100CB0000349096860F30101014A116070470000AF
:100CC0000838024002480068C0F381007047000005
:100CD0000838024010B500221349144800F0CCFC3B
:100CE0001348B0F80408401E1149A1F80408012275
:100CF0000D490E4800F0C0FC0D48B0F80218B0F8DD
:100D00000208401C0A4AA2F80208104610F81140D6
:100D1000B0F80208B0F5806F03DB00201146A1F89F
:100D20000208204610BD000005000C000010014024
:100D30004A08002010B5042000F06CFB074800684A
:100D40000749B0FBF1F007490860084600684FF416
:100D50007A7148430449086010BD0000400000203B
:100D600040420F0034000020380000202DE9F041FF
:100D700005460E4600F046F916480088C0F30230DA
:100D800004280DD1280B00031349096888420AD0B2
:100D9000280B000310490860284600F0DBF802E049
:100DA000284600F0D7F800240CE0315D601C305C70
:100DB00001EB002087B23946284600F067F8AD1CE9
:100DC000A01C84B2B4F5006FEFDB00F0AFF8BDE813
:100DD000F0810000002004E00000002003200B4907
:100DE000096801F0010109B100200EE00749096816
:100DF000C1F3800109B1012007E004490968C1F38A
:100E0000001109B1022000E0032070470C3C0240B1
:100E100000B502460323FFF7E1FF034603E0FFF7B7
:100E2000DDFF0346521E0BB9002AF8D102B9042394
:100E3000184600BD03200B49096801F0010109B102
:100E400000200EE007490968C1F3800109B10120C3
:100E500007E004490968C1F3001109B1022000E06C
:100E6000032070474C3C024000B502460323FFF7C5
:100E7000E1FF034603E0FFF7DDFF0346521E0BB917
:100E8000002AF8D102B90423184600BD70B5044603
:100E90000D460326B4F1006F1DD3B4F1026F1AD2D0
:100EA0004FF48010FFF7B4FF0646032E37D11D48DC
:100EB000006820F00100401C1A49086025804FF4AA
:100EC0008010FFF7A5FF06461648006820F00100D5
:100ED0001449086023E0B4F1026F20D31248844221
:100EE0001DD84FF48010FFF7BFFF0646032E16D122
:100EF0000C484030006820F00100401C0949403196
:100F0000086025804FF48010FFF7AEFF06460548C5
:100F10004030006820F0010002494031086030464E
:100F200070BD0000103C0240FFFF3E08084800680A
:100F300020F0800080300649086005484030006895
:100F400020F0800080300249403108607047000086
:100F5000103C024030B504460325B4F1006F22D3A3
:100F6000B4F1026F1FD2E807FFF752FF0546032DC9
:100F700042D12248006820F00200801C1F4908600E
:100F8000081D0460001F006820F040004030086029
:100F9000C806FFF73DFF05461848006820F002002C
:100FA0001649086028E0B4F1026F25D31448844242
:100FB00022D8C007FFF758FF0546032D1CD10F4864
:100FC0004030006820F00200801C0C49403108606D
:100FD000081D0460001F006820F0400040300860D9
:100FE000C806FFF741FF054604484030006820F07E
:100FF0000200024940310860284630BD103C0240E2
:10100000FFFF3E0805480649086006480860034897
:101010000349403108600348086070472301674571
:10102000043C0240AB89EFCD044800680449884283
:1010300001D1012070470020FCE7000000300008CB
:10104000384B54414FF6FF710160002181710171ED
:1010500041710121C171704770B50A4600211488A1
:10106000A3B233E003F001046CB304684E0003251F
:10107000B540AC43046094794D00AC4005682C4306
:101080000460446801258D40AC4344604468157990
:101090008D402C43446084684E000325B540AC432A
:1010A0008460D4794D00AC4085682C438460C4686A
:1010B0004E000325B540AC43C46054794D00AC40AC
:1010C000C5682C43C4605B104C1CA1B2002BC9DC6A
:1010D00070BDF0B5002300244D07ED0E02FA05F3B4
:1010E000CD105DB1456A4E07F70E0F26BE40B543E1
:1010F0004562456A45EA030444620AE0056A4E0710
:10110000F70E0F26BE40B5430562056A45EA0304A3
:101110000462F0BD10B5FFF76FFBFFF70DFA10BDCD
:1011200000F0B2F8FFF7AAFA032000F099F8FFF7F1
:101130007BFF48B90C48406800F07F40B0F1006F79
:1011400002D10948FFF7C6F94FF4E13000F0CEF9BB
:10115000FFF76AFF08B1FFF735FB00F08DF901E0FA
:10116000FFF7D8FFFCE700000040000810B501467B
:10117000084600280BDB00F01F0301229A40054BB4
:10118000440943F82420BFF34F8FBFF36F8F00BF94
:1011900010BD000080E100E02DE9F0470B46144649
:1011A0004FF0000C00BF2C4A1268C2F302211D460A
:1011B00026460A46C2F10709B9F1040F02D94FF0D9
:1011C000040901E0C2F10709C84602F10409B9F1B6
:1011D000070F02D24FF0000901E0A2F103094F46C8
:1011E0004FF0010909FA08F9A9F1010909EA05090D
:1011F00009FA07F94FF0010A0AFA07FAAAF1010AF7
:101200000AEA060A49EA0A09CC460146624600296A
:1012100004DB15072E0E114D6E5407E015072F0E37
:101220000D4D0C3501F00F06361FAF5500BF0146BE
:1012300000290DDB00BF00BF01F01F050122AA40FD
:101240004D09AD0005F1E025C5F8002100BF00BF44
:1012500000BFBDE8F08700000CED00E000E400E016
:1012600000BF00F00702064B19684FF6FF03194054
:10127000044B0B4343EA0221014B196000BF704746
:101280000CED00E00000FA0510B501212248FFF73F
:1012900095FC2248006920F00700401C1F490861A6
:1012A0001F48006820F00300401C1D490860FFF73C
:1012B000C5FC01210846FFF795FB00BFFFF766FC60
:1012C0000028FBD001231A4648211846FFF79CFC52
:1012D00001210220FFF786FB00BF1920FFF73EFC2B
:1012E0000128FAD10020FFF74BFB0420FFF75CFB3D
:1012F0000420FFF74FFB0120FFF760FB0220FFF700
:10130000D7FC00BFFFF7DEFC0228FBD10020FFF76F
:1013100055FB00F007F810BD1C00400000700040B5
:10132000603C02402DE9FC5F002400250026A14618
:10133000A246A34600200190FFF7C4FC009000984D
:1013400020B1012814D0022841D115E02B480068B3
:10135000C0F3803040B129480068C0F3003018B1B4
:1013600027482849086002E027482649086032E0FB
:101370002548244908602EE020489C380068C0F3C6
:1013800080591E489C380068C0F388141B489C385C
:10139000006800F00F0519489C380068C0F302404F
:1013A0001A490E5CB9F1000F02D1DFF85CA001E030
:1013B000DFF854A005FB06FCAAFB04700146624658
:1013C00000233846FEF73EFF0E49086003E00E4852
:1013D0000C49086000BF00BF084898380068C0F397
:1013E000031B0B4810F80B00019006480068019998
:1013F000C84004490860BDE8FC9F0000A0380240D6
:10140000006CDC024000002000127A00F816000890
:10141000E8160008042808D14FF0E021096941F0DE
:1014200004014FF0E022116107E04FF0E02109696B
:1014300021F004014FF0E02211617047C162826225
:10144000436923F001035B1C43617047026861F349
:10145000061202607047026861F300020260704782
:10146000CA43026170470246002013690B400BB16A
:10147000012000E0002070471FB50020009001907F
:101480000290039001211148FFF798FB00220121EF
:101490001D20FFF781FE6846FFF7D8FA42F210716F
:1014A0000198B0FBF1F422460948FFF7C7FF00217D
:1014B0000748FFF7CBFF01221146054800F00AF864
:1014C00001210348FFF7C7FF1FBD000001004000D6
:1014D00000040040012A03D1C3680B43C36003E04A
:1014E00012B9C3688B43C360704700001CB5044643
:1014F00001212248FFF762FB01214FF44010FFF762
:101500005DFB6846FFF79EFD01208DF80700002077
:101510008DF8040002208DF806004FF4C0600090A2
:1015200000208DF8050069461548FFF795FD072254
:1015300009211348FFF7CDFD07220A211048FFF7C4
:10154000C8FD002211462520FFF726FE00230122B8
:1015500021460C4800F030F801210A4800F0ACF8B0
:101560000121084800F0A3F801220749054800F0CE
:1015700083F80121034800F011F81CBD0400440069
:10158000000002400010014005000C0001464868C0
:1015900080B27047C1F3080242607047C26861F3CD
:1015A0004D32C260704702461068084008B1012001
:1015B00070470020FCE700002DE9FF4704468846FD
:1015C000164699466846FFF741FA2748844208D0F4
:1015D0002648844205D02648844202D025488442C9
:1015E00001D1029F00E0039F07EB87004000B0FBA2
:1015F000F8F50A20B5FBF0F100FB1150052803D2E5
:101600000A20B5FBF0F503E00A20B5FBF0F0451C1D
:10161000A06865F30F00A06056B9E06820F0805024
:1016200000F18050E060E06820F48050E06014E059
:10163000012E08D1E06820F08050E060E06820F4DE
:101640008050E06009E0E06820F08050E060E068F1
:1016500020F4805000F58050E060206969F30D307F
:101660002061BDE8FF870000001001400014014028
:1016700000780040007C004030B5012A0BD100EB1F
:1016800011431B6801F01F050124AC40234300EB0C
:10169000114423600AE000EB11431B6801F01F05B1
:1016A0000124AC40A34300EB1144236030BDC26869
:1016B00061F38202C2607047C26861F3C302C26014
:1016C000704700000000000000000102030406074C
:1016D00008090000000001020304000000000102EC
:1016E00003040102040810200000000000000000B4
:1016F0000102030406070809010204081020000083
:10170000201700080000002044000000B404000876
:1017100064170008440000200C140000C4040008F2
:1017200000000000000000000000000000000000B9
:1017300000000000000C0240000C0240000C0240BF
:101740000020004000800000030030000300300053
:101750000300300000000000000000000100000055
:0417600000127A00F9
:040000050800020DE0
:00000001FF
