:020000040800F2
:10000000A0060020AD020008570400084F040008B5
:100010005304000849040008F1040008000000002F
:100020000000000000000000000000005B04000869
:100030004D04000800000000590400085D04000899
:10004000C7020008C7020008C7020008C70200086C
:10005000C7020008C7020008C7020008C70200085C
:10006000C7020008C7020008C7020008C70200084C
:10007000C7020008C7020008C7020008C70200083C
:10008000C7020008C7020008C7020008C70200082C
:10009000C7020008C7020008C7020008C70200081C
:1000A000C7020008C7020008C7020008C70200080C
:1000B000C7020008C7020008C7020008C7020008FC
:1000C000C7020008C7020008C7020008C7020008EC
:1000D000C7020008C7020008C7020008C7020008DC
:1000E000C7020008C7020008C7020008C7020008CC
:1000F000C7020008C7020008C7020008C7020008BC
:10010000C7020008C7020008C7020008C7020008AB
:10011000C7020008C7020008C7020008C70200089B
:10012000C7020008C7020008C7020008C70200088B
:10013000C7020008C7020008C7020008C70200087B
:10014000C7020008C7020008C7020008C70200086B
:10015000C7020008C702000800000000C70200082C
:10016000C7020008C70200080000000000000000ED
:10017000C7020008C7020008C7020008000000000C
:1001800000000000C7020008C7020008C7020008FC
:10019000C70200080000000000000000000000008E
:1001A000000000000000000000000000C70200087E
:1001B000C702000800000000C7020008000000009D
:1001C000000000000000000000000000000000002F
:1001D0000000000000000000C7020008C70200087D
:1001E000C7020008C7020008C7020008C7020008CB
:1001F000C7020008C7020008C7020008C7020008BB
:10020000C7020008C7020008C702000800F002F891
:1002100000F03CF80AA090E8000C82448344AAF164
:100220000107DA4501D100F031F8AFF2090EBAE862
:100230000F0013F0010F18BFFB1A43F0010318471A
:10024000E80A0000080B0000103A24BF78C878C103
:10025000FAD8520724BF30C830C144BF04680C60CC
:10026000704700000023002400250026103A28BF14
:1002700078C1FBD8520728BF30C148BF0B60704718
:100280001FB500F041FD1FBD10B510BD00F0AAF86C
:100290001146FFF7F5FF00F013FC00F0C8F803B4B7
:1002A000FFF7F2FF03BC00F025F900000948804782
:1002B00009480047FEE7FEE7FEE7FEE7FEE7FEE748
:1002C000FEE7FEE7FEE7FEE704480549054A064B60
:1002D00070470000610400080D020008A000002023
:1002E000A0060020A0020020A0020020704753EAD0
:1002F000020C00F069802DE9F04B4FF00006002B56
:100300001FBFB3FA83F503FA05F424FA05F65E403D
:1003100012BF1643B2FA82F502FA05F4C5F12005C0
:100320001EBF22FA05FC44EA0C04203556EA044CB0
:100330004FEA144418BF641C4FF000084FF0000946
:10034000904271EB030C39D3002919BFB1FA81F740
:1003500001FA07F6B0FA80F700FA07F6C7F12007AE
:100360001EBF20FA07FC46EA0C062037B6FBF4FC59
:10037000A7EB0507103F07F01F0BCBF120060CFA87
:100380000BFB2CFA06F644BFB3460026202FA4BF71
:100390005E464FF0000B5BEA060C08BF4FF0010B06
:1003A00019EB0B09ABFB027C48EB0608C01B06FBF4
:1003B00002CC0BFB03CC71EB0C01C1E70B460246F0
:1003C00041464846BDE8F08B13B54FF000004FF0B2
:1003D0000001AFF30080BDE81C40704770477047D4
:1003E00070477047754600F02BF8AE460500694629
:1003F000534620F00700854618B020B5FFF764FF8C
:10040000BDE820404FF000064FF000074FF0000815
:100410004FF0000B21F00701AC46ACE8C009ACE896
:10042000C009ACE8C009ACE8C0098D46704710B5FA
:100430000446AFF300802046BDE81040FFF72FBF11
:10044000004870473C00002000BFFEE7704700BF37
:10045000FEE700BFFEE77047704770477047000037
:100460001F48006840F470001D4908601D4800687E
:1004700020F00100401C1B49086000BF19480068BB
:10048000C0F340000028F9D016480830006820F07A
:10049000030014490831086000BF124808300068A2
:1004A000C0F381000028F8D10E49083108600D48DA
:1004B00000680D4908400B4908600C48091D086098
:1004C00000200849A03108604FF41F0005490C3195
:1004D00008604FF0006002498039086070470000F2
:1004E00088ED00E000380240FFFFF2FE023003001A
:1004F00000BFFEE700BF704710B500F055FA0020BE
:1005000000F030F8012000F02DF8022000F02AF869
:10051000002000F04FF8012000F04CF8022000F01D
:1005200049F800F001F810BD1CB501214FF440104E
:1005300000F0FEF8684600F07BFA01208DF8070015
:1005400000208DF804008DF80600012000900220A4
:100550008DF805006946024800F074FA1CBD0000E1
:10056000000002401CB504460F4951F82400012147
:1005700000F0DEF8684600F05BFA01208DF8070015
:1005800000208DF8040001208DF80600074830F89F
:100590001400009000208DF80500054951F8240052
:1005A000694600F04FFA1CBD1C000020140000201A
:1005B00008000020022800DD7047064931F81010BD
:1005C00031B1044931F81010034A52F820209161EA
:1005D00000BFF1E71400002008000020022800DD21
:1005E0007047064931F8101031B1044931F8101044
:1005F000034A52F82020916200BFF1E71400002066
:10060000080000200349096860F30711014A1160DE
:1006100070470000083802400349096860F38C21E4
:10062000014A116070470000083802400349096818
:1006300060F34F31014A11607047000008380240F2
:10064000012807D10749096821F030013031054AF6
:10065000116005E00349096821F03001014A116089
:1006600070470000A438024005282BD2DFE800F0D4
:10067000030A11182100154A126861F30002134B96
:100680001A6020E0114A126861F310420F4B1A60A1
:1006900019E00E4A126861F318620C4B1A6012E0FE
:1006A0000A4A7032126861F30002084B70331A6014
:1006B00009E0064A7432126861F30002034B743396
:1006C0001A6000E000BF00BF704700000038024021
:1006D00010B501460020094B03EB1142D2F8002867
:1006E00001F01F040123A3401A4001F01F0401235D
:1006F000A3409A4200D000E0012010BD003002402B
:1007000030B50024002500E0641C1120FFF7E0FF55
:10071000012802D0B4F5405FF6D31120FFF7D8FFCF
:10072000012801D0002500E00125284630BD000049
:1007300010B501290FD1104B03EB1042D2F800285D
:1007400000F01F040123A3401A430B4C04EB104399
:10075000C3F800280EE0084B03EB1042D2F8002843
:1007600000F01F040123A3409A43034C04EB104301
:10077000C3F8002810BD00000030024030B50B4C1B
:10078000246860F39654094D2C602C46246861F36C
:100790008E142C602C46246862F303042C602C46D3
:1007A000246863F312442C6030BD0000043802401A
:1007B0001948006820F00100401C1749086000BF7C
:1007C00015480068C0F340000028F9D012480830EE
:1007D000006820F0030010490831086000BF0E488F
:1007E00008300068C0F381000028F8D10A490831B8
:1007F0000860094800680949084007490860084836
:10080000091D086000200449A03108604FF41F0052
:1008100001490C310860704700380240FFFFF2FECA
:10082000023003000349096860F30101014A1160C5
:10083000704700000838024002480068C0F3810099
:100840007047000008380240012802D002280ED16B
:1008500006E0084A126861F30002064B1A6007E0DE
:10086000044A126861F31042024B1A6000E000BFB4
:1008700000BF704700740040012802D002280ED14A
:1008800006E0084A126861F30B22064B1A6007E083
:10089000044A126861F31B62024B1A6000E000BF59
:1008A00000BF70470074004009B9012200E0002237
:1008B0001146012802D002280ED106E0084A12682B
:1008C00061F34102064B1A6007E0054A126861F3C2
:1008D0005142034B1A6000E000BF00BF70470000A8
:1008E00000740040012802D0022810D107E0094915
:1008F000096821F00101491C064A116008E0054918
:10090000096821F00201891C024A116000E000BF61
:1009100000BF704704740040012802D002280ED1A5
:1009200006E0084A126861F38202064B1A6007E08B
:10093000044A126861F39242024B1A6000E000BF61
:1009400000BF704700740040012802D002280ED179
:1009500006E0084A126861F3C502064B1A6007E018
:10096000044A126861F3D542024B1A6000E000BFEE
:1009700000BF704700740040012802D002280ED149
:1009800006E0084A126861F38712064B1A6007E016
:10099000044A126861F39752024B1A6000E000BFEC
:1009A00000BF70470074004010B5042000F098F9B3
:1009B000074800680749B0FBF1F00749086008469E
:1009C00000684FF47A7148430449086010BD000084
:1009D0003800002040420F00280000202C0000209A
:1009E00001460020114A12684A434FF0E0235A6141
:1009F00000229A611A46126942F001021A6100BF90
:100A00004FF0E022106900F001021AB100F48032C8
:100A1000002AF5D04FF0E022126922F001024FF0D7
:100A2000E0231A6100229A6170470000280000202C
:100A30004FF6FF7101600021817101714171012147
:100A4000C171704770B50A4600211488A3B233E023
:100A500003F001046CB304684E000325B540AC43B9
:100A6000046094794D00AC4005682C4304604468F0
:100A700001258D40AC434460446815798D402C437A
:100A8000446084684E000325B540AC438460D4794B
:100A90004D00AC4085682C438460C4684E0003253B
:100AA000B540AC43C46054794D00AC40C5682C439C
:100AB000C4605B104C1CA1B2002BC9DC70BD0000EF
:100AC00000F048F8FFF718FD0020FFF787FD012030
:100AD000FFF784FD0220FFF781FD01211A48FFF78F
:100AE00027FE01214FF44010FFF722FE1020174986
:100AF0000860032088710020087148710120C871C6
:100B00001348FFF79FFF07210120FFF71DFF012179
:100B10000846FFF701FF01210846FFF72DFF0B21D3
:100B20000120FFF7A9FE01210846FFF7BDFE0121C4
:100B30000846FFF789FE05E00120FFF7D3FE0120FC
:100B4000FFF74EFFF8E700001D0040000000002006
:100B50000000024010B501212248FFF7E9FD2248BC
:100B6000006920F00700401C1F4908611F48006809
:100B700020F00300401C1D490860FFF719FE012109
:100B80000846FFF771FD00BFFFF7BAFD0028FBD054
:100B900001231A4648211846FFF7F0FD01210220E3
:100BA000FFF762FD00BF1920FFF792FD0128FAD17F
:100BB0000020FFF727FD0420FFF738FD0420FFF792
:100BC0002BFD0120FFF73CFD0220FFF72BFE00BFAD
:100BD000FFF732FE0228FBD10020FFF731FD00F0C5
:100BE00007F810BD1C00400000700040603C02404F
:100BF0002DE9FC5F002400250026A146A246A3465D
:100C000000200190FFF718FE0090009820B1012805
:100C100014D0022841D115E02B480068C0F3803081
:100C200040B129480068C0F3003018B1274828496E
:100C3000086002E027482649086032E02548244938
:100C400008602EE020489C380068C0F380591E4898
:100C50009C380068C0F388141B489C38006800F07A
:100C60000F0519489C380068C0F302401A490E5C11
:100C7000B9F1000F02D1DFF85CA001E0DFF854A069
:100C800005FB06FCAAFB04700146624600233846B9
:100C9000FFF72DFB0E49086003E00E480C49086081
:100CA00000BF00BF084898380068C0F3031B0B481A
:100CB00010F80B000190064800680199C8400449EB
:100CC0000860BDE8FC9F0000A0380240006CDC0218
:100CD0003800002000127A00220D0008120D0008D2
:100CE000042808D14FF0E021096941F004014FF0D8
:100CF000E022116107E04FF0E021096921F00401D1
:100D00004FF0E022116170474FF04070E1EE100AA1
:100D10007047000000000000000001020304060705
:100D20000809010204081020480D000800000020F6
:100D30003C00000048020008840D00083C00002030
:100D400064060000640200080000000000000000CB
:100D5000000C0240000C0240000C02400020004049
:100D6000008000000300300003003000030030006A
:100D70000000000000000000000000000100000072
:040D800000127A00E3
:040000050800020DE0
:00000001FF
