:020000040800F2
:1000000038070020B50200086906000861060008EC
:100010006506000839060008010700080000000016
:100020000000000000000000000000006D06000855
:100030003D060008000000006B0600086F0600087F
:10004000CF020008CF020008CF020008CF0200084C
:10005000CF020008CF020008CF020008CF0200083C
:10006000CF020008CF020008CF02000841060008B6
:10007000CF020008CF020008CF020008CF0200081C
:10008000CF020008CF020008CF020008CF0200080C
:10009000CF020008CF020008CF020008CF020008FC
:1000A000CF020008CF020008CF020008CF020008EC
:1000B000CF020008CF020008CF020008CF020008DC
:1000C000CF020008CF020008CF020008CF020008CC
:1000D000CF020008CF020008CF020008CF020008BC
:1000E000CF020008CF020008CF020008CF020008AC
:1000F000CF020008CF020008CF020008CF0200089C
:10010000CF020008CF020008CF020008CF0200088B
:10011000CF020008CF020008CF020008CF0200087B
:10012000CF020008CF020008CF020008CF0200086B
:10013000CF020008CF020008CF020008CF0200085B
:10014000CF020008CF020008CF020008CF0200084B
:10015000CF020008CF02000800000000CF02000814
:10016000CF020008CF0200080000000000000000DD
:10017000CF020008CF020008CF02000800000000F4
:1001800000000000CF020008CF020008CF020008E4
:10019000CF02000800000000000000000000000086
:1001A000000000000000000000000000CF02000876
:1001B000CF02000800000000CF020008000000008D
:1001C000000000000000000000000000000000002F
:1001D0000000000000000000CF020008CF0200086D
:1001E000CF020008CF020008CF020008CF020008AB
:1001F000CF020008CF020008CF020008CF0200089B
:10020000CF020008CF020008CF02000800F002F879
:1002100000F041F80AA090E8000C82448344AAF15F
:100220000107DA4501D100F036F8AFF2090EBAE85D
:100230000F0013F0010F18BFFB1A43F0010318471A
:100240000812000028120000103A24BF78C878C1B4
:10025000FAD8520724BF30C830C144BF04680C60CC
:10026000704700000023002400250026103A28BF14
:1002700078C1FBD8520728BF30C148BF0B60704718
:10028000782900F0EF80002070471FB501F065F875
:100290001FBD10B510BD00F09DF91146FFF7F5FF29
:1002A00000F098FD00F0BBF903B4FFF7F2FF03BCC8
:1002B00000F028FA0948804709480047FEE7FEE7B2
:1002C000FEE7FEE7FEE7FEE7FEE7FEE7FEE7FEE706
:1002D00004480549054A064B7047000071060008AE
:1002E0000D020008380100203807002038030020E4
:1002F00038030020704753EA020C00F069802DE9B2
:10030000F04B4FF00006002B1FBFB3FA83F503FA42
:1003100005F424FA05F65E4012BF1643B2FA82F5E0
:1003200002FA05F4C5F120051EBF22FA05FC44EAD5
:100330000C04203556EA044C4FEA144418BF641CE0
:100340004FF000084FF00009904271EB030C39D3D5
:10035000002919BFB1FA81F701FA07F6B0FA80F760
:1003600000FA07F6C7F120071EBF20FA07FC46EA8D
:100370000C062037B6FBF4FCA7EB0507103F07F08F
:100380001F0BCBF120060CFA0BFB2CFA06F644BF30
:10039000B3460026202FA4BF5E464FF0000B5BEA59
:1003A000060C08BF4FF0010B19EB0B09ABFB027CED
:1003B00048EB0608C01B06FB02CC0BFB03CC71EB21
:1003C0000C01C1E70B46024641464846BDE8F08BAA
:1003D00013B54FF000004FF00001AFF30080BDE80F
:1003E0001C4070470FB4044910B503AA029800F0EE
:1003F000C3F810BC5DF814FB300000202DE9F0417B
:100400000E460446002020622046E168884730B34B
:10041000252805D0D4E901219047206A401CF2E745
:10042000E168204600278847050018D0A5F1410063
:10043000192802D820354FF4006732462946204655
:100440002760FFF71DFF40B1012804D0F61D26F0FC
:1004500007060836D8E7361DD6E72846DAE7206AC9
:10046000BDE8F08170B504460D4621461068AFF333
:1004700000802188090502D50F4A7A4402E00E4A1D
:100480007A440E32002104F1240305E000F00F0647
:100490000009965D5E54491C0028F7D1207800239E
:1004A000000704D5702D02D009B102231132204675
:1004B000BDE8704000F006B8A20F0000704770471A
:1004C000704770472DE9F0470D469946924604461D
:1004D00000F124080168880604D5E06921F01001C4
:1004E000216000E00120A84201DD471B00E0002759
:1004F000A1697A1902EB0900081AA0612078C006E8
:1005000002D42046AFF30080002608E0D4E90121A0
:100510001AF806009047206A401C761C20624E455F
:10052000F4DB2078C0060AD52046AFF3008006E051
:10053000D4E9012130209047206A401C2062381EF7
:10054000A7F10107F4DC07E0D4E9012118F8050060
:100550009047206A401C2062281EA5F10105F3DCAB
:100560002046AFF300802078000602D50220BDE8C7
:10057000F0870120FBE70000074B70B50D467B4478
:1005800000F011F80446284600F020F810B14FF0B2
:10059000FF3070BD204670BD5F07000001694A1C36
:1005A00002610878704700B58FB0CDE901310021B4
:1005B000059105497944CDE9031011466846FFF7D6
:1005C0001DFF0FB000BD0000E5FFFFFF007B00F046
:1005D00080007047754600F02BF8AE46050069466E
:1005E000534620F00700854618B020B5FFF770FE8F
:1005F000BDE820404FF000064FF000074FF0000824
:100600004FF0000B21F00701AC46ACE8C009ACE8A4
:10061000C009ACE8C009ACE8C0098D46704710B508
:100620000446AFF300802046BDE81040FFF73CBE13
:1006300000487047D400002000BFFEE7704700006C
:1006400010B5054800F0DEFA28B100200349086023
:10065000014800F0C9FA10BD200000100000002081
:1006600000BFFEE700BFFEE7704770477047704766
:100670001F48006840F470001D4908601D4800686C
:1006800020F00100401C1B49086000BF19480068A9
:10069000C0F340000028F9D016480830006820F068
:1006A000030014490831086000BF12480830006890
:1006B000C0F381000028F8D10E49083108600D48C8
:1006C00000680D4908400B4908600C48091D086086
:1006D00000200849A03108604FF41F0005490C3183
:1006E00008604FF0006002498039086070470000E0
:1006F00088ED00E000380240FFFFF2FE0230030008
:1007000000BFFEE700BF704710B500F019FA0020E7
:1007100000F030F8012000F02DF8022000F02AF857
:10072000002000F04FF8012000F04CF8022000F00B
:1007300049F800F001F810BD1CB501214FF440103C
:1007400000F072F9684600F0DDFA01208DF807002C
:1007500000208DF804008DF8060001200090022092
:100760008DF805006946024800F0D6FA1CBD00006D
:10077000000002401CB504460F4951F82400012135
:1007800000F052F9684600F0BDFA01208DF807002C
:1007900000208DF8040001208DF80600074830F88D
:1007A0001400009000208DF80500054951F8240040
:1007B000694600F0B1FA1CBD1C00002014000020A6
:1007C00008000020022800DD7047064931F81010AB
:1007D00031B1044931F81010034A52F820209161D8
:1007E00000BFF1E714000020080000200349096859
:1007F00060F30711014A1160704700000838024099
:100800000349096860F38C21014A116070470000B8
:10081000083802400349096860F34F31014A11600A
:100820007047000008380240012807D107490968CD
:1008300021F030013031054A116005E003490968B3
:1008400021F03001014A116070470000A4380240D5
:1008500005282BD2DFE800F0030A11182100154A01
:10086000126861F30002134B1A6020E0114A12680B
:1008700061F310420F4B1A6019E00E4A126861F3DF
:1008800018620C4B1A6012E00A4A7032126861F367
:100890000002084B70331A6009E0064A743212688D
:1008A00061F30002034B74331A6000E000BF00BF25
:1008B00070470000003802402DE9FE4F04464FF01B
:1008C0000009CA46CB460020029001900025002670
:1008D00000F02EF90090009820B1012812D00228D3
:1008E0003FD112E031480068C0F3803038B12F4862
:1008F0000068C0F3003010B12D48206001E02D48A1
:10090000206031E02B4820602EE028489C380068A9
:10091000C0F38050029025489C380068C0F38819C5
:1009200022489C38006800F00F0A20489C38006874
:10093000C0F30240204911F800B0029810B91D48D8
:10094000019001E01B4801900AFB0BFC0198A0FB01
:1009500009700146624600233846FFF7CCFC206050
:1009600002E01448206000BF00BF104898380068BB
:10097000C0F303151148465D2068F04060600B48E5
:1009800098380068C0F382250D48465D6068F040E5
:10099000E060064898380068C0F342350948465D73
:1009A0006068F040A060BDE8FE8F0000A038024003
:1009B000006CDC0200127A0004140008E413000842
:1009C000F4130008FC13000810B501460020094B81
:1009D00003EB1142D2F8002801F01F040123A340C9
:1009E0001A4001F01F040123A3409A4200D000E006
:1009F000012010BD0030024030B50024002500E089
:100A0000641C1120FFF7E0FF012802D0B4F5405F1D
:100A1000F6D31120FFF7D8FF012801D0002500E010
:100A20000125284630BD000010B501290FD1104B1B
:100A300003EB1042D2F8002800F01F040123A3406A
:100A40001A430B4C04EB1043C3F800280EE0084B8C
:100A500003EB1042D2F8002800F01F040123A3404A
:100A60009A43034C04EB1043C3F8002810BD000068
:100A70000030024030B50B4C246860F39654094DA9
:100A80002C602C46246861F38E142C602C4624685C
:100A900062F303042C602C46246863F312442C6038
:100AA00030BD0000043802401948006820F0010001
:100AB000401C1749086000BF15480068C0F340009B
:100AC0000028F9D012480830006820F003001049CF
:100AD0000831086000BF0E4808300068C0F381008C
:100AE0000028F8D10A490831086009480068094916
:100AF0000840074908600848091D086000200449AB
:100B0000A03108604FF41F0001490C3108607047A4
:100B100000380240FFFFF2FE02300300034909687B
:100B200060F30101014A116070470000083802407B
:100B300002480068C0F38100704700000838024096
:100B400010B5042000F042FB074800680749B0FBDD
:100B5000F1F007490860084600684FF47A7148438D
:100B60000449086010BD00003800002040420F001A
:100B7000280000202C00002010B50D4BC31A9A0845
:100B800051B10B4B1B1F1B68012494402343084C9D
:100B9000F83CC4F8F43009E0054B1B1F1B68012426
:100BA0009440A343024CF83CC4F8F43010BD00005C
:100BB000F860024030B5039C43EA0445056041EA11
:100BC0000245456030BD0021418101740172C1744C
:100BD000817441600175C173417301604175817316
:100BE0000173417470470000B0F1005F04D920F038
:100BF0007041034AD16001E00149886070470000FC
:100C0000006002400146B1F1005F02D90548426828
:100C100001E00448026802EA010008B101207047BF
:100C20000020FCE7006002400B7A026863F3871241
:100C300002600B7B026863F3492202604B7B02680F
:100C400063F38A2202608B7B026863F3CC2202602A
:100C5000CB7B026863F34E3202600B7C026863F365
:100C6000082202604B7C026863F3114202600B7D34
:100C7000026863F3D85202604B7D026863F35652F8
:100C800002608B7C426963F382024261CB7C4269E1
:100C900063F3010242614A8942600A6882604A68DD
:100CA000C260704701F080034BB122B1436943F049
:100CB0008003436103E0436923F08003436180299B
:100CC00007D01AB103680B43036002E003688B434B
:100CD00003607047026861F3000202607047000021
:100CE00070B504460D4600BF8021054800F0C7FAE4
:100CF0000028F9D0A1B2024800F0B8FA204670BD31
:100D0000005000404FF6FF710160002181710171B8
:100D100041710121C171704770B50A4600211488E4
:100D2000A3B233E003F001046CB304684E00032562
:100D3000B540AC43046094794D00AC4005682C4349
:100D40000460446801258D40AC43446044681579D3
:100D50008D402C43446084684E000325B540AC436D
:100D60008460D4794D00AC4085682C438460C468AD
:100D70004E000325B540AC43C46054794D00AC40EF
:100D8000C5682C43C4605B104C1CA1B2002BC9DCAD
:100D900070BDF0B5002300244D07ED0E02FA05F3F7
:100DA000CD105DB1456A4E07F70E0F26BE40B54324
:100DB0004562456A45EA030444620AE0056A4E0753
:100DC000F70E0F26BE40B5430562056A45EA0304E7
:100DD0000462F0BD08B500F033F9FFF795FC4FF45D
:100DE000E13000F007FA01214448FFF71DFE4448B6
:100DF000FFF7E9FE022042490872202048810220C4
:100E0000887340480860012008730220C8733E4878
:100E100048600120487300204875087501208874D7
:100E20000320C87402204874002008743748FFF774
:100E3000FBFE012210213548FFF734FF032000F0AC
:100E4000EBF8002201210B2000F082F80820022399
:100E50000246102100902D48E830FFF7ABFE01213B
:100E60002A48E830FFF788FE01212848FFF732FFC3
:100E700000BF274800680028FBD126A0FFF7B2FA80
:100E800000202949088013E01E48274A128850F89C
:100E9000221026A0FFF7A6FA641C042C03D125A07B
:100EA000FFF7A0FA002420480088401C1E49088053
:100EB0001D4800882028E7DB1FA0FFF793FA0020D9
:100EC0001949088013E01048174A128850F8221078
:100ED00016A0FFF787FA641C022C03D115A0FFF7B8
:100EE00081FA002410480088401C0F4908800E48F1
:100EF00000881028E7DB00BFFEE700001500300087
:100F0000BC000020641300083C0000201060024078
:100F100000000020736F75726365206275666665F8
:100F2000723A0D0A000000000600002025782020FB
:100F3000000000000D0A000064657374696E61743E
:100F4000696F6E206275666665723A0D0A00000070
:100F50002DE9F0470B4614464FF0000C00BF2C4A19
:100F60001268C2F302211D4626460A46C2F107094D
:100F7000B9F1040F02D94FF0040901E0C2F10709E9
:100F8000C84602F10409B9F1070F02D24FF0000977
:100F900001E0A2F103094F464FF0010909FA08F9EF
:100FA000A9F1010909EA050909FA07F94FF0010A4F
:100FB0000AFA07FAAAF1010A0AEA060A49EA0A093C
:100FC000CC4601466246002904DB15072E0E114D62
:100FD0006E5407E015072F0E0D4D0C3501F00F066E
:100FE000361FAF5500BF014600290DDB00BF00BF13
:100FF00001F01F050122AA404D09AD0005F1E025D1
:10100000C5F8002100BF00BF00BFBDE8F0870000A9
:101010000CED00E000E400E000BF00F00702064B2A
:1010200019684FF6FF031940044B0B4343EA0221B2
:10103000014B196000BF70470CED00E00000FA059D
:1010400010B501212248FFF7EFFC2248006920F08B
:101050000700401C1F4908611F48006820F003007A
:10106000401C1D490860FFF71FFD01210846FFF7DE
:10107000EFFB00BFFFF7C0FC0028FBD001231A469E
:1010800048211846FFF7F6FC01210220FFF7E0FB9C
:1010900000BF1920FFF798FC0128FAD10020FFF7C4
:1010A000A5FB0420FFF7B6FB0420FFF7A9FB0120F6
:1010B000FFF7BAFB0220FFF731FD00BFFFF738FD55
:1010C0000228FBD10020FFF7AFFB00F007F810BDAE
:1010D0001C00400000700040603C02402DE9FC5FB5
:1010E000002400250026A146A246A3460020019028
:1010F000FFF71EFD0090009820B1012814D00228AF
:1011000041D115E02B480068C0F3803040B1294838
:101110000068C0F3003018B127482849086002E091
:1011200027482649086032E02548244908602EE017
:1011300020489C380068C0F380591E489C380068DD
:10114000C0F388141B489C38006800F00F0519484C
:101150009C380068C0F302401A490E5CB9F1000FD8
:1011600002D1DFF85CA001E0DFF854A005FB06FC2B
:10117000AAFB04700146624600233846FFF7BBF81D
:101180000E49086003E00E480C49086000BF00BF2C
:10119000084898380068C0F3031B0B4810F80B0090
:1011A0000190064800680199C84004490860BDE8FC
:1011B000FC9F0000A0380240006CDC0238000020D8
:1011C00000127A001A1400080A140008042808D132
:1011D0004FF0E021096941F004014FF0E022116174
:1011E00007E04FF0E021096921F004014FF0E0220F
:1011F000116170471CB5044601211848FFF714FC23
:1012000001211748FFF710FC6846FFF77BFD01201E
:101210008DF8070000208DF8040002208DF80600EC
:101220004020009000208DF8050069460D48FFF72A
:1012300073FD082206210B48FFF7ABFD00230122B6
:101240002146094800F024F80121074800F080F801
:101250000121054800F00EF81CBD000014004000FC
:10126000010030000004024000500040C1F30802B9
:1012700042607047C26861F34D32C26070470246F7
:101280001068084008B1012070470020FCE700000A
:101290002DE9FF4704468846164699466846FFF7FB
:1012A0000BFB2748844208D02648844205D02648B4
:1012B000844202D02548844201D1029F00E0039F6E
:1012C00007EB87004000B0FBF8F50A20B5FBF0F112
:1012D00000FB1150052803D20A20B5FBF0F503E00E
:1012E0000A20B5FBF0F0451CA06865F30F00A06074
:1012F00056B9E06820F0805000F18050E060E0686E
:1013000020F48050E06014E0012E08D1E06820F065
:101310008050E060E06820F48050E06009E0E06820
:1013200020F08050E060E06820F4805000F58050AC
:10133000E060206969F30D302061BDE8FF8700009F
:10134000001001400014014000780040007C004083
:10135000C26861F3C302C26070474FF04070E1EEB3
:10136000100A704704030201080706050C0B0A095E
:10137000100F0E0D14131211181716151C1B1A1925
:10138000201F1E1D24232221282726252C2B2A2915
:10139000302F2E2D34333231383736353C3B3A3905
:1013A000403F3E3D44434241484746454C4B4A49F5
:1013B000504F4E4D54535251585756555C5B5A59E5
:1013C000605F5E5D64636261686766656C6B6A69D5
:1013D000706F6E6D74737271787776757C7B7A79C5
:1013E000807F7E7D000000000000000001020304F9
:1013F00006070809000000000102030400000000C5
:101400000102030401020408102000000000000093
:101410000000010203040607080901020408102065
:10142000303132333435363738394142434445461A
:101430004030580030313233343536373839616214
:10144000636465664030780068140008000000207E
:101450003C00000048020008A41400083C000020E2
:10146000FC0600006402000801000000000000000B
:10147000000C0240000C0240000C02400020004022
:101480000080000003003000030030000300300043
:10149000000000000000000000000000010000004B
:0414A00000127A00BC
:040000050800020DE0
:00000001FF
