:020000040800F2
:1000000088060020AD020008570400084F040008CD
:100010005304000849040008F1040008000000002F
:100020000000000000000000000000005B04000869
:100030004D04000800000000590400085D04000899
:10004000C7020008C7020008C7020008C70200086C
:10005000C7020008C7020008C7020008C70200085C
:10006000C7020008C7020008C7020008C70200084C
:10007000C7020008C7020008C7020008C70200083C
:10008000C7020008C7020008C7020008C70200082C
:10009000C7020008C7020008C7020008C70200081C
:1000A000C7020008C7020008C7020008C70200080C
:1000B000C7020008C7020008C7020008C7020008FC
:1000C000C7020008C7020008C7020008C7020008EC
:1000D000C7020008C7020008C7020008C7020008DC
:1000E000C7020008C7020008C7020008C7020008CC
:1000F000C7020008C7020008C7020008C7020008BC
:10010000C7020008C7020008C7020008C7020008AB
:10011000C7020008C7020008C7020008C70200089B
:10012000C7020008C7020008C7020008C70200088B
:10013000C7020008C7020008C7020008C70200087B
:10014000C7020008C7020008C7020008C70200086B
:10015000C7020008C702000800000000C70200082C
:10016000C7020008C70200080000000000000000ED
:10017000C7020008C7020008C7020008000000000C
:1001800000000000C7020008C7020008C7020008FC
:10019000C70200080000000000000000000000008E
:1001A000000000000000000000000000C70200087E
:1001B000C702000800000000C7020008000000009D
:1001C000000000000000000000000000000000002F
:1001D0000000000000000000C7020008C70200087D
:1001E000C7020008C7020008C7020008C7020008CB
:1001F000C7020008C7020008C7020008C7020008BB
:10020000C7020008C7020008C702000800F002F891
:1002100000F03CF80AA090E8000C82448344AAF164
:100220000107DA4501D100F031F8AFF2090EBAE862
:100230000F0013F0010F18BFFB1A43F0010318471A
:10024000240C0000440C0000103A24BF78C878C188
:10025000FAD8520724BF30C830C144BF04680C60CC
:10026000704700000023002400250026103A28BF14
:1002700078C1FBD8520728BF30C148BF0B60704718
:100280001FB500F0CBFD1FBD10B510BD00F0AAF8E2
:100290001146FFF7F5FF00F077FB00F0C8F803B454
:1002A000FFF7F2FF03BC00F025F900000948804782
:1002B00009480047FEE7FEE7FEE7FEE7FEE7FEE748
:1002C000FEE7FEE7FEE7FEE704480549054A064B60
:1002D00070470000610400080D020008880000203B
:1002E000880600208802002088020020704753EA18
:1002F000020C00F069802DE9F04B4FF00006002B56
:100300001FBFB3FA83F503FA05F424FA05F65E403D
:1003100012BF1643B2FA82F502FA05F4C5F12005C0
:100320001EBF22FA05FC44EA0C04203556EA044CB0
:100330004FEA144418BF641C4FF000084FF0000946
:10034000904271EB030C39D3002919BFB1FA81F740
:1003500001FA07F6B0FA80F700FA07F6C7F12007AE
:100360001EBF20FA07FC46EA0C062037B6FBF4FC59
:10037000A7EB0507103F07F01F0BCBF120060CFA87
:100380000BFB2CFA06F644BFB3460026202FA4BF71
:100390005E464FF0000B5BEA060C08BF4FF0010B06
:1003A00019EB0B09ABFB027C48EB0608C01B06FBF4
:1003B00002CC0BFB03CC71EB0C01C1E70B460246F0
:1003C00041464846BDE8F08B13B54FF000004FF0B2
:1003D0000001AFF30080BDE81C40704770477047D4
:1003E00070477047754600F02BF8AE460500694629
:1003F000534620F00700854618B020B5FFF764FF8C
:10040000BDE820404FF000064FF000074FF0000815
:100410004FF0000B21F00701AC46ACE8C009ACE896
:10042000C009ACE8C009ACE8C0098D46704710B5FA
:100430000446AFF300802046BDE81040FFF72FBF11
:10044000004870472400002000BFFEE7704700BF4F
:10045000FEE700BFFEE77047704770477047000037
:100460001F48006840F470001D4908601D4800687E
:1004700020F00100401C1B49086000BF19480068BB
:10048000C0F340000028F9D016480830006820F07A
:10049000030014490831086000BF124808300068A2
:1004A000C0F381000028F8D10E49083108600D48DA
:1004B00000680D4908400B4908600C48091D086098
:1004C00000200849A03108604FF41F0005490C3195
:1004D00008604FF0006002498039086070470000F2
:1004E00088ED00E000380240FFFFF2FE023003001A
:1004F00000BFFEE700BF70470349096860F30711BA
:10050000014A116070470000083802400349096839
:1005100060F38C21014A11607047000008380240E6
:100520000349096860F34F31014A116070470000C8
:1005300008380240012807D10749096821F0300135
:100540003031054A116005E00349096821F03001A6
:10055000014A116070470000A438024005282BD2E0
:10056000DFE800F0030A11182100154A126861F350
:100570000002134B1A6020E0114A126861F3104226
:100580000F4B1A6019E00E4A126861F318620C4BA7
:100590001A6012E00A4A7032126861F30002084BD6
:1005A00070331A6009E0064A7432126861F300027F
:1005B000034B74331A6000E000BF00BF70470000B7
:1005C000003802402DE9FE4F04464FF00009CA46AC
:1005D000CB460020029001900025002600F046F94D
:1005E0000090009820B1012812D002283FD112E0DB
:1005F00031480068C0F3803038B12F480068C0F33C
:10060000003010B12D48206001E02D48206031E01D
:100610002B4820602EE028489C380068C0F38050AA
:10062000029025489C380068C0F3881922489C38FD
:10063000006800F00F0A20489C380068C0F30240B0
:10064000204911F800B0029810B91D48019001E04E
:100650001B4801900AFB0BFC0198A0FB09700146A6
:10066000624600233846FFF742FE206002E014484D
:10067000206000BF00BF104898380068C0F3031521
:100680001148465D2068F04060600B48983800686B
:10069000C0F382250D48465D6068F040E060064882
:1006A00098380068C0F342350948465D6068F040FC
:1006B000A060BDE8FE8F0000A0380240006CDC02A4
:1006C00000127A00460E0008260E0008360E0008BA
:1006D0003E0E000810B50121084800F043F8012142
:1006E0000648401C00F03EF80121054800F03AF8A9
:1006F00001210248C01E00F035F810BD1100440071
:100700000100300010B501460020094B03EB1142F7
:10071000D2F8002801F01F040123A3401A4001F081
:100720001F040123A3409A4200D000E0012010BD25
:100730000030024030B50024002500E0641C112088
:10074000FFF7E0FF012802D0B4F5405FF6D3112097
:10075000FFF7D8FF012801D0002500E00125284639
:1007600030BD000010B501290FD1104B03EB104232
:10077000D2F8002800F01F040123A3401A430B4CB9
:1007800004EB1043C3F800280EE0084B03EB1042C3
:10079000D2F8002800F01F040123A3409A43034C21
:1007A00004EB1043C3F8002810BD000000300240E5
:1007B00030B50B4C246860F39654094D2C602C46E0
:1007C000246861F38E142C602C46246862F30304C1
:1007D0002C602C46246863F312442C6030BD00006A
:1007E000043802401948006820F00100401C1749F5
:1007F000086000BF15480068C0F340000028F9D029
:1008000012480830006820F00300104908310860E1
:1008100000BF0E4808300068C0F381000028F8D1FE
:100820000A49083108600948006809490840074931
:1008300008600848091D086000200449A0310860CC
:100840004FF41F0001490C31086070470038024026
:10085000FFFFF2FE023003000349096860F3010163
:10086000014A1160704700000838024002480068E1
:10087000C0F3810070470000083802401CB568468C
:1008800000F01AF84FF44070009002208DF8060036
:1008900001208DF807006946064800F017F803228A
:1008A0000821044800F04FF800220921014800F017
:1008B0004AF81CBD000402404FF6FF7101600021A0
:1008C0008171017141710121C171704770B50A4692
:1008D00000211488A3B233E003F001046CB3046870
:1008E0004E000325B540AC43046094794D00AC4004
:1008F00005682C430460446801258D40AC43446086
:10090000446815798D402C43446084684E0003256B
:10091000B540AC438460D4794D00AC4085682C432D
:100920008460C4684E000325B540AC43C46054796C
:100930004D00AC40C5682C43C4605B104C1CA1B298
:10094000002BC9DC70BDF0B5002300244D07ED0E6F
:1009500002FA05F3CD105DB1456A4E07F70E0F267A
:10096000BE40B5434562456A45EA030444620AE075
:10097000056A4E07F70E0F26BE40B5430562056AAD
:1009800045EA03040462F0BD00F098F8FFF7A2FE08
:100990003B48FFF717FEFFF771FF0021084600F004
:1009A0007FF83748C06840003649B0FBF1F0401E80
:1009B000354908800846028840F29921334800F002
:1009C00043F90021314800F063F900212F4800F07D
:1009D0005AF92F4800F014FA06202D49087000201B
:1009E0004870C870012048710A460021274800F06D
:1009F0007FF9284802880021244800F02DF90122BF
:100A00000021224800F04EF90121204800F001FAAF
:100A10001D4802884121204800F016F900211E4897
:100A200000F036F900211C4800F02DF9184800F0BC
:100A3000E7F906201649087000204870C8700120A8
:100A400048710A460021144800F052F91348028800
:100A50000021114800F000F9012200210E4800F0A9
:100A600021F901210C4800F0D4F90121074800F0D8
:100A700014F90121084800F010F900BFFEE700005A
:100A80001400002040420F000C00002000440140F0
:100A90000000002008000020004801400A0000205B
:100AA000054A126860F38712034B1A601A461268EF
:100AB00061F345121A6070470038014010B50121FA
:100AC0002248FFF74FFE2248006920F00700401C33
:100AD0001F4908611F48006820F00300401C1D49A1
:100AE0000860FFF77FFE01210846FFF737FD00BFD2
:100AF000FFF720FE0028FBD001231A4648211846A4
:100B0000FFF756FE01210220FFF728FD00BF192044
:100B1000FFF7F8FD0128FAD10020FFF7EDFC0420D3
:100B2000FFF7FEFC0420FFF7F1FC0120FFF702FDB8
:100B30000220FFF791FE00BFFFF798FE0228FBD1CD
:100B40000020FFF7F7FC00F007F810BD1C00400084
:100B500000700040603C02402DE9FC5F002400254D
:100B60000026A146A246A34600200190FFF77EFE84
:100B70000090009820B1012814D0022841D115E03E
:100B80002B480068C0F3803040B129480068C0F3AA
:100B9000003018B127482849086002E02748264954
:100BA000086032E02548244908602EE020489C383F
:100BB0000068C0F380591E489C380068C0F3881450
:100BC0001B489C38006800F00F0519489C380068E5
:100BD000C0F302401A490E5CB9F1000F02D1DFF8F0
:100BE0005CA001E0DFF854A005FB06FCAAFB047042
:100BF0000146624600233846FFF779FB0E4908603C
:100C000003E00E480C49086000BF00BF0848983850
:100C10000068C0F3031B0B4810F80B000190064856
:100C200000680199C84004490860BDE8FC9F0000C5
:100C3000A0380240006CDC021000002000127A0094
:100C40005C0E00084C0E0008C1628262436923F00A
:100C500001035B1C4361704710B50B46082B0FD294
:100C6000DFE803F0040E060E080E0A0C426308E0EB
:100C7000826306E0C26304E0026402E0426700E0CF
:100C800000BF00BF10BD026861F309220260704717
:100C9000026861F3061202607047026861F30002A5
:100CA0000260704710B50B46082B1ED2DFE803F038
:100CB000041D091D0E1D1318846962F3C3048461A9
:100CC00014E0846962F3CB2484610FE0C46962F3A9
:100CD000C304C4610AE0C46962F3CB24C46105E0C3
:100CE000046F62F3C304046700E000BF00BF10BDDF
:100CF000F0B5002300240025567801F10807BE4016
:100D0000B3B296787F1CBE40B4B23B4EB04202D024
:100D10003A4EB04205D14668A6434660466826432F
:100D2000466046689E43466046681E4346600D46E0
:100D3000082D23D2DFE805F004220A221022161C17
:100D40001778866967F30616866118E01778866952
:100D500067F30E36866112E01778C66967F30616E8
:100D6000C6610CE01778C66967F30E36C66106E007
:100D70001778066F67F30616066700E000BF00BF2E
:100D8000D678012707EB4107BE40B3B21679032797
:100D900007EB4107BE40B4B2174EB04202D0174E27
:100DA000B04205D1066AA6430662066A2643066279
:100DB000066A9E430662066A1E43066256794F0023
:100DC000BE40B3B29679022707EB4107BE40B4B2EA
:100DD000094EB04202D0094EB04205D1066AA64380
:100DE0000662066A26430662066A9E430662066A31
:100DF0001E430662F0BD00000000014000040140F7
:100E00000021017041708170C17001714171817167
:100E10007047026861F3C712026070474FF040707C
:100E2000E1EE100A7047000000000000000001021F
:100E30000304060708090000000001020304000083
:100E40000000010203040102040810200000000059
:100E5000000000000102030406070809010204085B
:100E600010200000840E0008000000201400000084
:100E700048020008980E00081400002074060000C4
:100E8000640200080000000000000000F9001800E3
:080E90000000000000127A00CE
:040000050800020DE0
:00000001FF
