:020000040800F2
:10000000E0060020BD020008530700084B07000867
:100010004F07000829070008ED070008000000004E
:10002000000000000000000000000000570700086A
:10003000490700080000000055070008590700089C
:10004000D7020008D7020008D7020008D70200082C
:10005000D7020008D7020008D7020008D70200081C
:10006000D7020008D7020008D7020008D70200080C
:10007000D7020008D7020008D7020008D7020008FC
:10008000D7020008D7020008B9060008D702000806
:10009000D7020008D7020008D7020008D7020008DC
:1000A000D7020008D7020008D7020008D7020008CC
:1000B000D7020008D7020008D7020008D7020008BC
:1000C000D7020008D7020008D7020008D7020008AC
:1000D000D7020008D7020008D7020008D70200089C
:1000E000D7020008D7020008D7020008D70200088C
:1000F000D7020008D7020008D7020008D70200087C
:10010000D7020008D7020008D7020008D70200086B
:10011000D7020008D7020008D7020008D70200085B
:100120002D070008D7020008D7020008D7020008F0
:10013000D7020008D7020008D7020008D70200083B
:10014000D7020008D7020008D7020008D70200082B
:10015000D7020008D702000800000000D7020008FC
:10016000D7020008D70200080000000000000000CD
:10017000D7020008D7020008D702000800000000DC
:1001800000000000D7020008D7020008D7020008CC
:10019000D70200080000000000000000000000007E
:1001A000000000000000000000000000D70200086E
:1001B000D702000800000000D7020008000000007D
:1001C000000000000000000000000000000000002F
:1001D0000000000000000000D7020008D70200085D
:1001E000D7020008D7020008D7020008D70200088B
:1001F000D7020008D7020008D7020008D70200087B
:10020000D7020008D7020008D702000800F002F861
:1002100000F044F80AA090E8000C82448344AAF15C
:100220000107DA4501D100F039F8AFF2090EBAE85A
:100230000F0013F0010F18BFFB1A43F0010318471A
:10024000381D0000581D0000103A24BF78C878C13E
:10025000FAD8520724BF30C830C144BF04680C60CC
:10026000704700000023002400250026103A28BF14
:1002700078C1FBD8520728BF30C148BF0B60704718
:10028000642900F0F380782900F02C810020704769
:100290001FB501F03AFE1FBD10B510BD00F0DAF930
:1002A0001146FFF7F5FF01F06FF900F0F8F903B41C
:1002B000FFF7F2FF03BC00F09BFA000009488047FB
:1002C00009480047FEE7FEE7FEE7FEE7FEE7FEE738
:1002D000FEE7FEE7FEE7FEE704480549054A064B50
:1002E000704700005D0700080D020008E0000020D4
:1002F000E0060020E0020020E0020020704753EA00
:10030000020C00F069802DE9F04B4FF00006002B45
:100310001FBFB3FA83F503FA05F424FA05F65E402D
:1003200012BF1643B2FA82F502FA05F4C5F12005B0
:100330001EBF22FA05FC44EA0C04203556EA044CA0
:100340004FEA144418BF641C4FF000084FF0000936
:10035000904271EB030C39D3002919BFB1FA81F730
:1003600001FA07F6B0FA80F700FA07F6C7F120079E
:100370001EBF20FA07FC46EA0C062037B6FBF4FC49
:10038000A7EB0507103F07F01F0BCBF120060CFA77
:100390000BFB2CFA06F644BFB3460026202FA4BF61
:1003A0005E464FF0000B5BEA060C08BF4FF0010BF6
:1003B00019EB0B09ABFB027C48EB0608C01B06FBE4
:1003C00002CC0BFB03CC71EB0C01C1E70B460246E0
:1003D00041464846BDE8F08B13B54FF000004FF0A2
:1003E0000001AFF30080BDE81C4070470FB4044922
:1003F00010B503AA029800F0FFF810BC5DF814FBDA
:10040000380000202DE9F0410E460446002020620D
:100410002046E168884730B3252805D0D4E901217A
:100420009047206A401CF2E7E16820460027884791
:10043000050018D0A5F14100192802D820354FF445
:1004400000673246294620462760FFF719FF40B172
:10045000012804D0F61D26F007060836D8E7361D19
:10046000D6E72846DAE7206ABDE8F0812DE9F041B9
:100470000646002410687529314616A510D0AFF342
:100480000080002802DA404213A507E031688A079D
:1004900001D512A502E0490704D511A5012401E008
:1004A000AFF3008000210A2206F1240709E0B0FB27
:1004B000F2FCB0FBF2F302FB1C003030785418461B
:1004C000491C0028F3D123462A463046BDE8F041B6
:1004D00000F038B8000000002D0000002B000000E4
:1004E0002000000070B504460D4621461068AFF3A9
:1004F00000802188090502D50F4A7A4402E00E4A9D
:100500007A440E32002104F1240305E000F00F06C6
:100510000009965D5E54491C0028F7D1207800231D
:10052000000704D5702D02D009B1022311322046F4
:10053000BDE8704000F006B8521A000070477047DE
:10054000704770472DE9F0470D469946924604469C
:1005500000F124080168880604D5E06921F0100143
:10056000216000E00120A84201DD471B00E00027D8
:10057000A1697A1902EB0900081AA0612078C00667
:1005800002D42046AFF30080002608E0D4E9012120
:100590001AF806009047206A401C761C20624E45DF
:1005A000F4DB2078C0060AD52046AFF3008006E0D1
:1005B000D4E9012130209047206A401C2062381E77
:1005C000A7F10107F4DC07E0D4E9012118F80500E0
:1005D0009047206A401C2062281EA5F10105F3DC2B
:1005E0002046AFF300802078000602D50220BDE847
:1005F000F0870120FBE70000074B70B50D467B44F8
:1006000000F011F80446284600F020F810B14FF031
:10061000FF3070BD204670BD270E000001694A1CE6
:1006200002610878704700B58FB0CDE90131002133
:10063000059105497944CDE9031011466846FFF755
:10064000E1FE0FB000BD0000E5FFFFFF007B00F002
:1006500080007047754600F02BF8AE4605006946ED
:10066000534620F00700854618B020B5FFF734FE4A
:10067000BDE820404FF000064FF000074FF00008A3
:100680004FF0000B21F00701AC46ACE8C009ACE824
:10069000C009ACE8C009ACE8C0098D46704710B588
:1006A0000446AFF300802046BDE81040FFF7FFBDD1
:1006B000004870477C00002010B52021144800F04D
:1006C00061FA40B12021124800F059FA114800683F
:1006D000401C1049086020210F4800F053FA40B137
:1006E00020210D4800F04BFA0C480068401C0B49D3
:1006F000086020210A4800F045FA40B1202108484E
:1007000000F03DFA07480068401C0649086010BD2B
:1007100000200140040000200021014008000020CA
:10072000002201400C00002000BFFEE710B50220AF
:1007300000F0E6FD28B1022000F0D2FD01200149C1
:10074000086010BD00000020704700BFFEE700BF3A
:10075000FEE7704770477047704700001F48006809
:1007600040F470001D4908601D48006820F0010039
:10077000401C1B49086000BF19480068C0F34000D6
:100780000028F9D016480830006820F0030014490A
:100790000831086000BF124808300068C0F38100CB
:1007A0000028F8D10E49083108600D4800680D494D
:1007B00008400B4908600C48091D086000200849E2
:1007C000A03108604FF41F0005490C3108604FF05C
:1007D00000600249803908607047000088ED00E041
:1007E00000380240FFFFF2FE0230030000BFFEE7C8
:1007F00000BF70470B78426863F3082242604B7871
:10080000826863F3410282608B78826863F3CB2253
:100810008260CA78521EC36A62F31753C36270477C
:1008200000210170417081700121C17070478168A1
:1008300021F0080108318160704701468868C0F3E3
:10084000C00008B1012070470020FCE7816821F05A
:100850000401091D8160704701468868C0F380006B
:1008600008B1012070470020FCE70000027826490B
:10087000096862F30401244A116042782349D1F8DF
:10088000041362F31341204A1160817801F00401DE
:1008900049B11146096821F0805101F180511B4A8C
:1008A000C2F8041306E01849096821F08051174A7C
:1008B000C2F804138178144A126861F38F32124926
:1008C0000A60C2781149D1F8041362F34D310E4A1F
:1008D000116002790D49D1F8041362F30B210A4A21
:1008E000116042790949D1F8041362F3D751064ADD
:1008F000116082790549D1F8041362F39651034AD5
:10090000C2F8041370470000042301400020014096
:100910000021017041708170C1700171417181715C
:10092000704700000EB50121894800F0D1FB01217C
:100930008748401C00F0CCFB01218548801C00F05A
:10094000C7FB00221146122000F06CFF01A8FFF740
:10095000DFFF16208DF8040002208DF8050001202D
:100960008DF8060000208DF807008DF808008DF83E
:1009700009008DF80A0001A8FFF778FF6846FFF725
:100980004FFF01208DF8000000208DF801008DF848
:10099000020003208DF8030069466E48FFF72AFF26
:1009A00000216C4800F0EBF9042301221946694844
:1009B00000F0FBF8042302220521664800F0F5F858
:1009C000042303220621634800F0EFF801221621D8
:1009D000604800F0BAF900215E4800F0C1F800213B
:1009E0005C4800F0C2F8012291065A4800F0D2F8A3
:1009F00069465948FFF7FEFE0021574800F0BFF94D
:100A0000042301220721544800F0CFF804230222D6
:100A10000821514800F0C9F80423032209214E4857
:100A200000F0C3F8002216214B4800F08EF9002197
:100A3000494800F095F80021474800F096F8012257
:100A40009106454800F0A6F869464448FFF7D2FEF3
:100A50000021424800F093F9042301220A213F4873
:100A600000F0A3F8042302220C213C4800F09DF87A
:100A7000042303220D21394800F097F800221621A3
:100A8000364800F062F90021344800F069F800218E
:100A9000324800F06AF801229106304800F07AF8F6
:100AA00001212C4800F066F801212B4800F062F883
:100AB00001212A4800F05EF800BF4021254800F0DF
:100AC00061F80028F9D000BF4021234800F05AF80F
:100AD0000028F9D000BF4021204800F053F800283A
:100AE000F9D01C48FFF7A3FE00BF1A48FFF7A5FE88
:100AF0000028FAD11748FFF7A9FE00BF1548FFF7F5
:100B0000ABFE0028FAD11448FFF791FE00BF12484F
:100B1000FFF793FE0028FAD10F48FFF797FE00BFBA
:100B20000D48FFF799FE0028FAD10C48FFF77FFE29
:100B300000BF0A48FFF781FE0028FAD10748FFF7F7
:100B400085FE00BF0548FFF787FE0028FAD10EBDDD
:100B50000800440000200140002101400022014023
:100B6000826861F3082282607047826861F34922DB
:100B700082607047826861F3000282607047CA43F6
:100B8000026070470246002013680B4003B900E082
:100B900001207047012A03D143680B43436003E0FF
:100BA00012B943688B434360704710B513296AD26A
:100BB000DFE801F00A0F14191E23282D32373C41BB
:100BC000464B50555A5F6400046963F302040461A4
:100BD0005AE0046963F3C504046155E0046963F3F2
:100BE0008814046150E0046963F34B2404614BE012
:100BF000046963F30E34046146E0046963F3D1349D
:100C0000046141E0046963F3944404613CE00469D5
:100C100063F35754046137E0046963F31A640461B1
:100C200032E0046963F3DD6404612DE0C46863F3BA
:100C30000204C46028E0C46863F3C504C46023E010
:100C4000C46863F38814C4601EE0C46863F34B2473
:100C5000C46019E0C46863F30E34C46014E0C4686F
:100C600063F3D134C4600FE0C46863F39444C46098
:100C70000AE0C46863F35754C46005E0C46863F3D2
:100C80001A64C46000E000BF00BF112A5AD2DFE836
:100C900002F059090E13181D22272C31363B40450E
:100CA0004A4F5400446B61F3040444634BE0446BCB
:100CB00061F34914446346E0446B61F38E2444635A
:100CC00041E0446B61F3D33444633CE0446B61F333
:100CD0001854446337E0446B61F35D64446332E06D
:100CE000046B61F3040404632DE0046B61F34914A5
:100CF000046328E0046B61F38E24046323E0046B37
:100D000061F3D33404631EE0046B61F3185404638D
:100D100019E0046B61F35D64046314E0C46A61F379
:100D20000404C4620FE0C46A61F34914C4620AE0B7
:100D3000C46A61F38E24C46205E0C46A61F3D334EB
:100D4000C46200E000BF00BF10BD0F290ADD836848
:100D500023F0004303F100438360836861F31B6366
:100D6000836007E0836823F000438360836861F356
:100D70001B638360836862F31D73836070474268FE
:100D800061F319624260704710B500F02DFA00203F
:100D900000F030F8012000F02DF8022000F02AF8D1
:100DA000002000F04FF8012000F04CF8022000F085
:100DB00049F800F001F810BD1CB501214FF44010B6
:100DC00000F086F9684600F077FB01208DF80700F7
:100DD00000208DF804008DF806000120009002200C
:100DE0008DF805006946024800F070FB1CBD00004C
:100DF000000002401CB504460F4951F824000121AF
:100E000000F066F9684600F057FB01208DF80700F6
:100E100000208DF8040001208DF80600074830F806
:100E20001400009000208DF80500054951F82400B9
:100E3000694600F04BFB1CBD240000201C00002074
:100E400010000020022800DD7047064931F810101C
:100E500031B1044931F81010034A52F82020916151
:100E600000BFF1E71C00002010000020022800DD78
:100E70007047064931F8101031B1044931F81010AB
:100E8000034A52F82020916200BFF1E71C000020C5
:100E9000100000200349096860F30711014A11603E
:100EA00070470000083802400349096860F38C214C
:100EB000014A116070470000083802400349096880
:100EC00060F34F31014A116070470000083802405A
:100ED000012807D10749096821F030013031054A5E
:100EE000116005E00349096821F03001014A1160F1
:100EF00070470000A438024005282BD2DFE800F03C
:100F0000030A11182100154A126861F30002134BFD
:100F10001A6020E0114A126861F310420F4B1A6008
:100F200019E00E4A126861F318620C4B1A6012E065
:100F30000A4A7032126861F30002084B70331A607B
:100F400009E0064A7432126861F30002034B7433FD
:100F50001A6000E000BF00BF704700000038024088
:100F60002DE9FE4F04464FF00009CA46CB4600204B
:100F7000029001900025002600F02EF900900098C4
:100F800020B1012812D002283FD112E03148006878
:100F9000C0F3803038B12F480068C0F3003010B182
:100FA0002D48206001E02D48206031E02B48206072
:100FB0002EE028489C380068C0F3805002902548F5
:100FC0009C380068C0F3881922489C38006800F0FB
:100FD0000F0A20489C380068C0F30240204911F8ED
:100FE00000B0029810B91D48019001E01B48019023
:100FF0000AFB0BFC0198A0FB097001466246002326
:101000003846FFF77CF9206002E01448206000BFFA
:1010100000BF104898380068C0F303151148465DBA
:101020002068F04060600B4898380068C0F3822563
:101030000D48465D6068F040E060064898380068FA
:10104000C0F342350948465D6068F040A060BDE8E5
:10105000FE8F0000A0380240006CDC0200127A0013
:10106000341F0008141F0008241F00082C1F00084C
:1010700010B501460020094B03EB1142D2F80028BD
:1010800001F01F040123A3401A4001F01F040123B3
:10109000A3409A4200D000E0012010BD0030024081
:1010A00030B50024002500E0641C1120FFF7E0FFAC
:1010B000012802D0B4F5405FF6D31120FFF7D8FF26
:1010C000012801D0002500E00125284630BD0000A0
:1010D00010B501290FD1104B03EB1042D2F80028B4
:1010E00000F01F040123A3401A430B4C04EB1043F0
:1010F000C3F800280EE0084B03EB1042D2F800289A
:1011000000F01F040123A3409A43034C04EB104357
:10111000C3F8002810BD00000030024030B50B4C71
:10112000246860F39654094D2C602C46246861F3C2
:101130008E142C602C46246862F303042C602C4629
:10114000246863F312442C6030BD00000438024070
:101150001948006820F00100401C1749086000BFD2
:1011600015480068C0F340000028F9D01248083044
:10117000006820F0030010490831086000BF0E48E5
:1011800008300068C0F381000028F8D10A4908310E
:10119000086009480068094908400749086008488C
:1011A000091D086000200449A03108604FF41F00A9
:1011B00001490C310860704700380240FFFFF2FE21
:1011C000023003000349096860F30101014A11601C
:1011D000704700000838024002480068C0F38100F0
:1011E000704700000838024010B5042000F058FC99
:1011F000074800680749B0FBF1F007490860084656
:1012000000684FF47A7148430449086010BD00003B
:101210004000002040420F00300000203400002039
:10122000026861F3000202607047000000B585B0FB
:1012300001212148FFF74CFF00221146382000F021
:10124000F1FA1E4800F0ACF8684600F03DF81B20AB
:10125000ADF80A000020ADF80800194801900120FF
:101260008DF80F008DF80D001648009001208DF8C4
:101270000E0000208DF80C0002208DF811000020D7
:101280008DF8100069460D4800F050F801210B4818
:10129000083800F0BDF805210848FC3000F0BFF820
:1012A00001220221054800F072F801210348FFF7EE
:1012B000B7FF05B000BD0000160030000864024012
:1012C00044000020082301400021016041600181A9
:1012D0004181017341738173C1730174417470471B
:1012E000B0F1805F04D920F07041034A116001E041
:1012F000024908607047000004660240046402402E
:1013000001460022B1F1805F02D90648026801E07F
:101310000548026802EA010008B101207047002078
:10132000FCE70000006602400064024002684BF6E1
:10133000EF731A40026002680B891A4302604B7C0B
:10134000026863F30D320260CB7B026863F38B2289
:1013500002608B7B026863F3092202604B7B0268A8
:1013600063F3C71202600B7B026863F386120260AC
:101370000B7C026863F3451202604B89426863F399
:101380000F0242600A6882604A68C26070471AB100
:1013900003680B43036002E003688B4303607047FC
:1013A0000021026822F00102026000220260426015
:1013B0008260C260014640F2FF620A40B2F5C16F2E
:1013C0000DD2CAB2083A1423B2FBF3F293000F22F3
:1013D0009A400D4B1B681A430B4B1A6012E040F207
:1013E000FF620A40B2F5D16F0CD2CAB2083A142398
:1013F000B2FBF3F293000F229A40044B1B681A438E
:10140000024B1A6070470000046402400466024008
:10141000D0F8002161F30002C0F800217047026893
:1014200061F306020260704770B504460D4600BFC6
:101430008021054800F0FBFC0028F9D0A1B2024849
:1014400000F0ECFC204670BD001001401CB50121ED
:101450004FF44010FFF73CFE01211348FFF738FE20
:1014600001211148401CFFF733FE684600F024F8C4
:1014700003208DF80600F020009069460B4800F02C
:1014800025F803208DF8060000906946084800F012
:101490001DF803208DF806000D20009069460548D0
:1014A00000F014F81CBD00000100300000000240F4
:1014B00000040240000802404FF6FF710160002165
:1014C0008171017141710121C171704770B50A4686
:1014D00000211488A3B233E003F001046CB3046864
:1014E0004E000325B540AC43046094794D00AC40F8
:1014F00005682C430460446801258D40AC4344607A
:10150000446815798D402C43446084684E0003255F
:10151000B540AC438460D4794D00AC4085682C4321
:101520008460C4684E000325B540AC43C460547960
:101530004D00AC40C5682C43C4605B104C1CA1B28C
:10154000002BC9DC70BDF0B5002300244D07ED0E63
:1015500002FA05F3CD105DB1456A4E07F70E0F266E
:10156000BE40B5434562456A45EA030444620AE069
:10157000056A4E07F70E0F26BE40B5430562056AA1
:1015800045EA03040462F0BD1CB500200190009000
:10159000032000F0ABF900F0BDF9FFF7F5FB0020E8
:1015A000FFF750FC0120FFF74DFC0220FFF74AFC3B
:1015B0004FF4E13000F0F8FBFFF748FF00F084FA49
:1015C000FFF734FEFFF7AEF940A0FEF70FFF012151
:1015D000494800F044FB00BF484800680028FBD0A1
:1015E0000021454800F03BFB4548006830B94548BC
:1015F000006818B944480068002818D00120FFF797
:1016000035FC0220FFF732FC40A0FEF7EFFE3C481D
:10161000016842A0FEF7EAFE3A48016846A0FEF7DC
:10162000E5FE394801684BA0FEF7E0FE49E050A016
:10163000FEF7DCFE0020019040E00020009034E046
:10164000019800EBC000524901EB4000009901EB0A
:10165000410130F811304FA0DDE90021FEF7C6FE50
:10166000019800EBC0004A4901EB4000009901EBF2
:10167000410100EB4100438852A0DDE90021FEF763
:10168000B5FE019800EBC000414901EB4000009914
:1016900001EB410100EB4100838856A0DDE9002108
:1016A000FEF7A4FE0098401C009000980328C7D3C2
:1016B00036A0FEF79BFE0198401C0190019803287C
:1016C000BBD30020FFF7D2FB00BFFEE7636F6D6264
:1016D000696E655F6D6F64655F6F7264696E61727C
:1016E000795F736D6C745F74776F736C6176655F2F
:1016F000646D6131200D0A000000014000000020EF
:1017000004000020080000200C0000206572726FA9
:1017100072206F636375720D0A00000061646331AB
:101720005F6F766572666C6F775F666C6167203D90
:101730002025640D0A000000616463325F6F7665E6
:1017400072666C6F775F666C6167203D2025640D63
:101750000A000000616463335F6F766572666C6FC8
:10176000775F666C6167203D2025640D0A000000EC
:10177000636F6E76657273696F6E20656E64207735
:101780006974686F7574206572726F720D0A00005B
:1017900044000020616463636F6D5F6F7264696E03
:1017A0006172795F76616C75657461625B25645DF9
:1017B0005B25645D5B305D203D20307825780D0A27
:1017C00000000000616463636F6D5F6F7264696E37
:1017D0006172795F76616C75657461625B25645DC9
:1017E0005B25645D5B315D203D20307825780D0AF6
:1017F00000000000616463636F6D5F6F7264696E07
:101800006172795F76616C75657461625B25645D98
:101810005B25645D5B325D203D20307825780D0AC4
:10182000000000002DE9F0470B4614464FF0000C75
:1018300000BF2C4A1268C2F302211D4626460A4602
:10184000C2F10709B9F1040F02D94FF0040901E010
:10185000C2F10709C84602F10409B9F1070F02D223
:101860004FF0000901E0A2F103094F464FF00109D2
:1018700009FA08F9A9F1010909EA050909FA07F9BC
:101880004FF0010A0AFA07FAAAF1010A0AEA060A5F
:1018900049EA0A09CC4601466246002904DB1507DD
:1018A0002E0E114D6E5407E015072F0E0D4D0C3501
:1018B00001F00F06361FAF5500BF014600290DDBB2
:1018C00000BF00BF01F01F050122AA404D09AD0075
:1018D00005F1E025C5F8002100BF00BF00BFBDE84D
:1018E000F08700000CED00E000E400E000BF00F035
:1018F0000702064B19684FF6FF031940044B0B43D0
:1019000043EA0221014B196000BF70470CED00E073
:101910000000FA0510B501212248FFF7D9FB224843
:10192000006920F00700401C1F4908611F4800683B
:1019300020F00300401C1D490860FFF709FC01214D
:101940000846FFF7D9FA00BFFFF7AAFB0028FBD033
:1019500001231A4648211846FFF7E0FB0121022027
:10196000FFF7CAFA00BF1920FFF782FB0128FAD15E
:101970000020FFF78FFA0420FFF7A0FA0420FFF7FA
:1019800093FA0120FFF7A4FA0220FFF71BFC00BF27
:10199000FFF722FC0228FBD10020FFF799FA00F0A4
:1019A00007F810BD1C00400000700040603C024081
:1019B0002DE9FC5F002400250026A146A246A3468F
:1019C00000200190FFF708FC0090009820B101284A
:1019D00014D0022841D115E02B480068C0F38030B4
:1019E00040B129480068C0F3003018B127482849A1
:1019F000086002E027482649086032E0254824496B
:101A000008602EE020489C380068C0F380591E48CA
:101A10009C380068C0F388141B489C38006800F0AC
:101A20000F0519489C380068C0F302401A490E5C43
:101A3000B9F1000F02D1DFF85CA001E0DFF854A09B
:101A400005FB06FCAAFB04700146624600233846EB
:101A5000FEF755FC0E49086003E00E480C4908608B
:101A600000BF00BF084898380068C0F3031B0B484C
:101A700010F80B000190064800680199C84004491D
:101A80000860BDE8FC9F0000A0380240006CDC024A
:101A90004000002000127A004A1F00083A1F000888
:101AA000042808D14FF0E021096941F004014FF00A
:101AB000E022116107E04FF0E021096921F0040103
:101AC0004FF0E0221161704710B588B000200090FF
:101AD00001900290039001214FF44010FFF7F8FAB3
:101AE00006A8FFF7E9FC02208DF81E00C001069051
:101AF00000208DF81C008DF81D0001208DF81F00BE
:101B000006A92848FFF7E2FC012208212548FFF733
:101B10001AFD6846FFF724FA01214FF48800FFF709
:101B2000D7FA42F210710098B0FBF1F0441E224641
:101B300040F2E7311C4800F039F800211A4800F063
:101B400089F80021184800F080F804A800F014F982
:101B500006208DF8100001208DF813008DF8150077
:101B600000208DF8110004AA06210F4800F07CF82F
:101B70004FF4FA7206210C4800F050F801210A488F
:101B800000F00DF901220621074800F017F80121A5
:101B9000054800F0FAF80721034800F0FBF808B008
:101BA00010BD00000000024000000140C1628262DE
:101BB000436923F001035B1C4361704710B50B467A
:101BC000072B28D2DFE803F004090E13181D2200AA
:101BD000046A62F3000404621EE0046A62F3820491
:101BE000046219E0046A62F30414046214E0046AF3
:101BF00062F3861404620FE0046A62F3082404624C
:101C00000AE0046A62F38A24046205E0046A62F36B
:101C10000C34046200E000BF00BF10BD10B50B46DD
:101C2000082B0FD2DFE803F0040E060E080E0A0C94
:101C3000426308E0826306E0C26304E0026402E0FB
:101C4000426700E000BF00BF10BD026861F30922D7
:101C500002607047026861F3061202607047026812
:101C600061F3000202607047F0B5002300240025F4
:101C7000567801F10807BE40B3B296787F1CBE408B
:101C8000B4B23B4EB04202D03A4EB04205D14668A3
:101C9000A643466046682643466046689E434660C3
:101CA00046681E4346600D46082D23D2DFE805F046
:101CB00004220A221022161C1778866967F306167A
:101CC000866118E01778866967F30E36866112E040
:101CD0001778C66967F30616C6610CE01778C669FF
:101CE00067F30E36C66106E01778066F67F30616CF
:101CF000066700E000BF00BFD678012707EB410769
:101D0000BE40B3B21679032707EB4107BE40B4B219
:101D1000174EB04202D0174EB04205D1066AA64314
:101D20000662066A26430662066A9E430662066AE1
:101D30001E43066256794F00BE40B3B29679022721
:101D400007EB4107BE40B4B2094EB04202D0094E83
:101D5000B04205D1066AA6430662066A26430662B9
:101D6000066A9E430662066A1E430662F0BD0000D4
:101D700000000140000401400021017041708170A9
:101D8000C1700171417181717047426C61F3CF3252
:101D900042647047426861F30612426070474268CD
:101DA00061F3DF72426070471CB504460121184898
:101DB000FFF78EF901214FF44010FFF789F96846CB
:101DC000FFF77AFB01208DF8070000208DF8040052
:101DD00002208DF806000002009000208DF805001A
:101DE00069460C48FFF772FB072209210948FFF7F3
:101DF000AAFB002301222146074800F021F8012117
:101E0000054800F07DF80121034800F00BF81CBDE7
:101E1000040044000000024000100140C1F3080229
:101E200042607047C26861F34D32C260704702463B
:101E30001068084008B1012070470020FCE700004E
:101E40002DE9FF4704468846164699466846FFF73F
:101E500087F82748844208D02648844205D026487F
:101E6000844202D02548844201D1029F00E0039FB2
:101E700007EB87004000B0FBF8F50A20B5FBF0F156
:101E800000FB1150052803D20A20B5FBF0F503E052
:101E90000A20B5FBF0F0451CA06865F30F00A060B8
:101EA00056B9E06820F0805000F18050E060E068B2
:101EB00020F48050E06014E0012E08D1E06820F0AA
:101EC0008050E060E06820F48050E06009E0E06865
:101ED00020F08050E060E06820F4805000F58050F1
:101EE000E060206969F30D302061BDE8FF870000E4
:101EF000001001400014014000780040007C0040C8
:101F0000C26861F3C302C26070474FF04070E1EEF7
:101F1000100A7047000000000000000001020304E6
:101F20000607080900000000010203040000000089
:101F30000102030401020408102000000000000058
:101F4000000001020304060708090102040810202A
:101F500030313233343536373839414243444546DF
:101F600040305800303132333435363738396162D9
:101F70006364656640307800981F00080000002008
:101F80004400000048020008DC1F00084400002054
:101F90009C06000064020008000000000000000031
:101FA0000000000000000000000C0240000C024095
:101FB000000C0240002000400080000003003000C0
:101FC00003003000030030000000000000000000AB
:0C1FD000000000000100000000127A0078
:040000050800020DE0
:00000001FF
