:020000040800F2
:10000000A823002099030008811C0008791C00081F
:100010007D1C0008591B0008F51D000800000000A9
:10002000000000000000000000000000851C000827
:10003000791B000800000000831C0008871C0008D2
:10004000B3030008B3030008B3030008B3030008B8
:10005000B3030008B3030008711C0008B3030008D1
:10006000B3030008B3030008B30300087D1B0008B6
:10007000B3030008B3030008B3030008B303000888
:10008000B3030008B30300086D1A0008B3030008A7
:10009000B3030008B3030008B3030008B303000868
:1000A000B3030008B3030008191D0008B3030008D8
:1000B000B3030008751D0008B3030008B30300086C
:1000C000B3030008B3030008B3030008B303000838
:1000D000B3030008B3030008B3030008B303000828
:1000E000B3030008B3030008B3030008B303000818
:1000F000B3030008B3030008B3030008511C000851
:10010000B3030008B3030008B3030008B3030008F7
:10011000B3030008A51D0008B3030008B3030008DB
:100120005D1B0008B3030008B3030008B303000815
:10013000B3030008B3030008B3030008B3030008C7
:10014000B3030008B3030008B3030008B3030008B7
:10015000B3030008B303000800000000B303000865
:10016000B3030008B3030008000000000000000013
:10017000B3030008B3030008B30300080000000045
:1001800000000000B3030008B3030008B303000835
:10019000B3030008000000000000000000000000A1
:1001A000000000000000000000000000B303000891
:1001B000B303000800000000B303000800000000C3
:1001C000000000000000000000000000000000002F
:1001D0000000000000000000B3030008B3030008A3
:1001E000B3030008B3030008B3030008B303000817
:1001F000B3030008B3030008B3030008B303000807
:10020000B3030008B3030008B303000800F002F8CA
:1002100000F0B2F80AA090E8000C82448344AAF1EE
:100220000107DA4501D100F0A7F8AFF2090EBAE8EC
:100230000F0013F0010F18BFFB1A43F0010318471A
:10024000D0400000F04000000A444FF0000C10F8CD
:10025000013B13F0070408BF10F8014B1D1108BF44
:1002600010F8015B641E05D010F8016B641E01F8E4
:10027000016BF9D113F0080F1EBF10F8014BAD1C34
:100280000C1B09D16D1E58BF01F801CBFAD505E052
:1002900014F8016B01F8016B6D1EF9D59142D6D3AC
:1002A000704700000023002400250026103A28BFD4
:1002B00078C1FBD8520728BF30C148BF0B607047D8
:1002C0006E2900F0D882702900F00F84662903F0AF
:1002D0009487652903F09187672903F08E87612948
:1002E000AFF3008003681B0A28BF41F08001692931
:1002F00000F00281642900F0FF80752900F0FC8085
:100300006F2900F09C83782900F0DB83E92900F055
:100310003783E42900F03483F52900F03183EF2995
:1003200000F09983F82900F0DA830368DB0928BF1D
:1003300041F08001632900F05986732900F05E8640
:10034000E32900F06986F32900F06E8600207047EB
:100350001FB503F04DFF00F0BDFE0400002000219A
:1003600003F030FF401C60600020002103F014FF08
:10037000E0601FBD10B510BD00F07EFE1146FFF716
:10038000E7FF03F08FF800F05BFF03B4FFF7F2FF25
:1003900003BC01F050FD00000948804709480047B0
:1003A000FEE7FEE7FEE7FEE7FEE7FEE7FEE7FEE725
:1003B000FEE7FEE704480549054A064B7047000082
:1003C000891C00080D020008A81D0020A823002099
:1003D000A81F0020A81F0020704753EA020C00F05D
:1003E00069802DE9F04B4FF00006002B1FBFB3FAD8
:1003F00083F503FA05F424FA05F65E4012BF1643AE
:10040000B2FA82F502FA05F4C5F120051EBF22FA00
:1004100005FC44EA0C04203556EA044C4FEA144427
:1004200018BF641C4FF000084FF00009904271EBB8
:10043000030C39D3002919BFB1FA81F701FA07F685
:10044000B0FA80F700FA07F6C7F120071EBF20FABE
:1004500007FC46EA0C062037B6FBF4FCA7EB0507C1
:10046000103F07F01F0BCBF120060CFA0BFB2CFA08
:1004700006F644BFB3460026202FA4BF5E464FF0C9
:10048000000B5BEA060C08BF4FF0010B19EB0B09E0
:10049000ABFB027C48EB0608C01B06FB02CC0BFB47
:1004A00003CC71EB0C01C1E70B46024641464846BE
:1004B000BDE8F08B13B54FF000004FF00001AFF333
:1004C0000080BDE81C4070470FB4044910B503AA72
:1004D000029800F0E5F910BC5DF814FB84070020D9
:1004E0000FB4044910B503AA029800F0D9F910BC62
:1004F0005DF814FB840700202DE9F0410646002436
:1005000010687529314616A510D000F020F9002892
:1005100002DA404213A507E031688A0701D512A527
:1005200002E0490704D511A5012401E000F018F903
:1005300000210A2206F1240709E0B0FBF2FCB0FB1F
:10054000F2F302FB1C00303078541846491C002896
:10055000F3D123462A463046BDE8F04100F032B9D7
:10056000000000002D0000002B0000002000000013
:100570002DE9F05F894604464FF0000ADFF874B1B8
:10058000FB44C0F820A02046E1688847002874D0CA
:10059000252806D0D4E901219047206A401C20621A
:1005A000F1E700265F462046E16888472028054697
:1005B00007DB312D05D2781910F8200C08B106435D
:1005C000F1E7B00701D526F00406C4F81CA0002707
:1005D000C4F818A02A2D09D0284601F025FC38B30C
:1005E00004EB8708303DC8F8185019E059F8041B8F
:1005F000204604EB87029161E1688847012F054698
:1006000018D1E069002820DA26F020061DE0D8F88D
:10061000180000EB800005EB40003038C8F81800E7
:100620002046E1688847054601F0FEFB0028EED130
:10063000012F0AD02E2D08D12046E16888477F1C63
:100640000546022F46F02006C4DBA069002803DA25
:10065000404246F00106A061F00701D026F01006E6
:100660006C2D0BD0682D09D04C2D39D06A2D35D08A
:10067000742D35D07A2D33D016E038E0E1682F465E
:1006800020468847B842054609D16C2F26D04FF442
:100690008060E168064320468847054604E06C2FE9
:1006A0001AD04FF4807006430DB3A5F1410019280C
:1006B00002D8203546F400664A4629462046266080
:1006C0004E46FFF7FDFD80B101280BD0F61D26F048
:1006D000070000F1080956E74020E4E78020D8E74A
:1006E0000020D6E706F104094DE7284652E7206AC4
:1006F000BDE8F09FB63C00007047704770477047F8
:1007000070B5044685690068C10601D5302600E051
:100710002026C00707D070BDD4E90121304690479C
:10072000206A401C20626D1EF6D570BD70B504466F
:1007300085690078C00707D170BDD4E90121202068
:100740009047206A401C20626D1EF6D570BD096876
:100750004A0501D540B27047C905FCD500B27047C3
:1007600009684A0501D5C0B27047C905FCD580B2F9
:10077000704770B50C460546012A05D028788006DA
:1007800000D5EA69002302E0012305E05B1C9342E7
:1007900002D2E05C0028F9D1A869E618C01AA86165
:1007A000286A184428622846FFF7AAFF04E0D5E922
:1007B000012114F8010B9047B442F8D32846FFF703
:1007C000B5FF70BD2DE9F0470D46994692460446A7
:1007D00000F124080168880604D5E06921F01001C1
:1007E000216000E00120A84201DD471B00E0002756
:1007F000A1697A1902EB0900081AA0612078C006E5
:1008000002D42046FFF77CFF002608E0D4E901214E
:100810001AF806009047206A401C761C20624E455C
:10082000F4DB2078C0060AD52046FFF769FF06E012
:10083000D4E9012130209047206A401C2062381EF4
:10084000A7F10107F4DC07E0D4E9012118F805005D
:100850009047206A401C2062281EA5F10105F3DCA8
:100860002046FFF763FF2078000602D50220BDE88E
:10087000F0870120FBE711680268006A530501D583
:1008800008700AE0D30501D5088006E0130603D5F9
:10089000C217C1E9000200E00860012070470000B3
:1008A000074B70B50D467B4400F083FB0446284699
:1008B00000F0BEFB10B14FF0FF3070BD204670BDA0
:1008C0004B2500002DE9FF5F15468A460446DFF8F8
:1008D000AC80F8440027D8E900103E46CDE900106E
:1008E00010E03AF816106A4602A800F0A5FB411C79
:1008F00007D02178890603D5E269391891420DD8CD
:100900000744761C2078800602D5E069B84205DDF0
:10091000AE42E6DB3AF816000028E2D1A069C01B1F
:10092000A0612046FFF7ECFED8E90010CDE90010E9
:10093000002017E03AF818106A4602A800F07CFB85
:10094000B0F1FF3F81460BD000250DF1080B05E00B
:10095000D4E901211BF8050090476D1C4D45F7D3E4
:1009600008F10100B0428046E4DB206A384420628E
:100970002046FFF7DBFEBDE8FF9F00007639000050
:100980002DE9F0418046D21D22F007020025D2E970
:100990000002F52915A614D0011E72F1000106DA35
:1009A0000023D0EB030063EB020211A608E0D8F8A5
:1009B00000108B0701D50FA602E0490701D50EA64E
:1009C00001251146002408F1240704E000F098F8FE
:1009D00030323A55641C50EA0102F7D12B463246B8
:1009E00021464046BDE8F041FFF7ECBE00000000A4
:1009F0002D0000002B0000002000000030B400217A
:100A000000F1240408E002F00705D208303542EA7C
:100A10004372DB086554491C52EA0305F3D10468AC
:100A2000002310A2250707D5A40600D421B1C4696C
:100A300001230DA2641EC46130BCFFF7C3BE10B514
:100A4000044621461068FFF78BFE02462046BDE8AB
:100A500010400023D2E7D21D22F00701D1E9002384
:100A6000CCE700000000000030000000F0B40D46AC
:100A70000188090502D5214C7C4402E01F4C7C44CE
:100A80000E34002100F1240608E002F00F071209DD
:100A9000E75D42EA03721B097754491C52EA0307D7
:100AA000F3D102780023120704D5702D06D009B1C6
:100AB000022311342246F0BCFFF784BE0123103418
:100AC000F8E770B504460D4621461068FFF748FE6A
:100AD000024629462046BDE870400023C6E7D21DE5
:100AE00022F00703D3E90023C0E70368126843F04C
:100AF000200303600823C3610023B7E7D837000051
:100B000030B5B0F10A024FEA900E71F100034EEADF
:100B1000817EB0EB0E0061EB91014FEA101E4EEAB0
:100B2000017E10EB0E0041EB11114FEA102E4EEA40
:100B3000016E10EB0E0041EB11214FEA104E4EEA10
:100B4000014E10EB0E0041EB1141401841F1000144
:100B50004FEAD00040EA41704FEAD10110EB800526
:100B60004FEA810444EA907444EB01046D1944EBAC
:100B70000404521BA3414FF0000348BF0A3200D5C2
:100B800030BD401C41F1000130BD70472DE9FF4FE1
:100B90000C461E464FF0FF378BB0D2E90001DDF85E
:100BA00060800A908A46C1F30A5505B93D46002186
:100BB00008464FF00000BAF1000F00F4400005DADB
:100BC00000EB80004FF4400101EA50004FEA9059D9
:100BD000B9F1010F00DDB9460A9850EA4A000ED07B
:100BE00044F61050A5F2FF3545432F14B8F1000F1D
:100BF0001ED07542291E1EDDC9F100021CE0B8F1AD
:100C0000010F4FF0000001D0302103E0F24305E076
:100C10002154401CB042FBDB30460022002121540D
:100C20000B99C1F80880C1E900200FB0BDE8F08F32
:100C3000BD1B6D1CDEE74A4600DA694206A800F0DB
:100C40008DFA06AB93E8070003AB83E80700504634
:100C50000A9900F043FB8DE80700A0F500501F380B
:100C600000900398002D0ADD42F21F014A46084415
:100C7000002303A90390684600F0ACFD09E0A0F54D
:100C800000504A461F38002303A90390684600F02D
:100C9000B6FD8DE807000004000C03D04FF0FF30D4
:100CA000410800E01046B8F1000F03D00022009286
:100CB00015461EE0751E05D4FFF722FF303262553F
:100CC0006D1EF9D5B3460122084302D000227F1CD5
:100CD00004E02078302801D100227F1E002A0997E5
:100CE00084D01DE0112D07DAFFF70AFF303262557C
:100CF0006D1C50EA0102F5D1084302D00098C8B13A
:100D00000EE00021681E05E0235C625C63542254FF
:100D1000401E491C8142F7DBAB46A81B401E0990D0
:100D2000002004F80B000B98099AC0F80880C0E96D
:100D3000002B7AE711264FF0000857E72DE9F04F16
:100D400088460446D21D22F0070191B0D1E9000186
:100D5000CDE90A0101F050F802460B98C00F01D00E
:100D60002D2007E02068810701D52B2002E02021FB
:100D700001EAC000032A099001D0072A05DB0346D7
:100D80004146204600F0AAF90BE12078800601D503
:100D9000E06900E00620B8F1650F814606D0B8F1A1
:100DA000660F18D0B8F1670F70D131E00020B9F1AB
:100DB000110F009001DB112301E009F101030AAAE0
:100DC00001A90CA8FFF7E2FEDDE90C70002609F18D
:100DD0000105834647E001204B4600904FF0004755
:100DE0000AAA01A90CA8FFF7D1FEDDE90DB00C9904
:100DF0005D46002610B909F101000D18B9EB050098
:100E000003D4C0F1FF3609F10105A5EB09002BE081
:100E1000B9F1010F01DA4FF001090020B9F1110F0A
:100E20000090484601DD112300E003460AAA01A90B
:100E30000CA8FFF7ABFEDDE90C704D46002683469B
:100E4000207800070AD4AB4500DA5D4601A8012DE1
:100E500004DD411911F8011C302907D04F4502DA91
:100E600017F1040F04DA012082460FE06D1EEEE751
:100E7000002F02DCED1B3E4403E0781CA84200DD9D
:100E80007D1CB81B00F1010A4FF0004720780007D5
:100E900003D4AA4501DB4FF0FF3A0021B7F1004F20
:100EA0000DF143088DF8431024D002202B23002F8E
:100EB00001DA7F422D230A21021EA0F1010000DC8D
:100EC0005FB197FBF1FC97FBF1F201FB1C7C17462D
:100ED0000CF1300C08F801CDEEE7A8F10100037029
:100EE0002188090501D5452100E06521A0F101080F
:100EF00000F8011C09980FA9A1EB0807FF1D00B11C
:100F00000120411901EBEA70A1693844081A401E1A
:100F1000A0612078C00602D42046FFF7F1FB0998B3
:100F200028B1D4E901219047206A401C2062207832
:100F3000C00622D52046FFF7E3FB1EE0002E04DBAF
:100F4000B34502DD01A8805D00E03020D4E9012135
:100F50009047206A401C2062761CAAF101005FEADB
:100F6000000A0AD100F0B6F8C0680168405CD4E914
:100F700001219047206A401C2062281EA5F101052E
:100F8000DCDC07E0D4E9012118F8010B9047206A66
:100F9000401C2062381EA7F10107F3DC2046FFF752
:100FA000C5FB032011B041E601694A1C02610878C3
:100FB000704700B58FB0CDE9013100210591054999
:100FC0007944CDE9031011466846FFF7D1FA0FB016
:100FD00000BD0000E5FFFFFF10B5436913B1AFF39B
:100FE000008001E0FFF7C5FB012010BD127800F181
:100FF00024010A7000224A700122EDE711684FF0C7
:10100000FF32E9E710B5436913B1AFF3008001E0A7
:10101000FFF758FC012010BD128800F124018284E2
:101020000022C2840122EDE711684FF0FF32E9E7A8
:10103000007B00F08000704770B516460C460546F0
:1010400000F040F8036893F80101012806D0FF2C56
:101050000FD8185D68B101202C7070BDD3F807015E
:101060003246214603F2071303442846BDE8704088
:1010700018474FF0FF3070BD754600F0EBF8AE46F4
:1010800005006946534620F00700854618B020B594
:10109000FFF790F9BDE820404FF000064FF0000741
:1010A0004FF000084FF0000B21F00701AC46ACE810
:1010B000C009ACE8C009ACE8C009ACE8C0098D467D
:1010C0007047000010B500F005F8001D10BD00BF0E
:1010D000F530000000487047641D00202DE9F04104
:1010E0001F46044603260168072A01F4006004DB5A
:1010F00008B116A505E016A503E008B115A500E0A6
:1011000015A521F010002060A069C01EA0610FB1DC
:10111000401EA0612046FFF7F3FA4FB1D4E9012148
:1011200038469047206A401C2062C01C206206E0BE
:10113000206AFAE7D4E9012115F8010B9047761EE1
:10114000F8D22046FFF7F2FABDE8F0814E414E009A
:101150006E616E00494E4600696E66002DE9F047EB
:10116000814616468AB0354878440DC88DE80D0092
:1011700032487844801C03AC0DC884E80D0041F669
:101180009B300844372190FBF1F290FBF1F5A5F17B
:10119000800501FB12041B3C02D56442012000E0E3
:1011A0000020DFF898A080460027FA44AAF1BE0A82
:1011B0000EE0E0070AD03246684607EB47010123FC
:1011C0000AEB810100F01BFB8DE8070064107F1C17
:1011D000002CEED1194F7F44AE3F19E0E80715D03F
:1011E00007EB04100DF1180A90E80E008AE80E00D3
:1011F000C068F04201D1981908903246012306A92F
:1012000003A800F0FCFA03AB83E807006D10641C30
:10121000002DE3D14FF0010332466946B8F1000FCB
:1012200003A802D000F0D6FA01E000F0E8FAC9E91C
:101230000001C9F808200AB0BDE8F0878C31000031
:1012400010B50446AFF300802046BDE81040FFF71C
:101250009CB8000000487047441D00204FF0013C3E
:1012600050F8042B51F8043B9A4221D1A2EB0C0315
:10127000934313EACC1317D150F8042B51F8043BD5
:101280009A4215D1A2EB0C03934313EACC130BD172
:1012900050F8042B51F8043B9A4209D1A2EB0C03FD
:1012A000934313EACC13DBD04FF00000704700BF2C
:1012B000D01A01BAB1FA81F101F0180122FA01F055
:1012C000CB40C1F12001DBB2C0B2C01A2CFA01F34D
:1012D000D11A914311EAC311E6D170475FEA400C7D
:1012E00008BF91F0000F4FEA8C234FEAC12243EA76
:1012F00051514FEA1C5018BF00F5F0404FEA300042
:1013000018BF41F000415FEA6C5C00F02980BCF13D
:10131000FF3F08BF40F080407047130C06BF120427
:101320004FF0100C4FF0000C130E04BF12020CF122
:10133000080C130F04BF12010CF1040C930F04BF2F
:1013400092000CF1020CD30F04BF52000CF1010CFF
:1013500011464FF00002A0F11F00A0EB0C007047F7
:1013600011F0004F08BF704731F000413FF4D5AF96
:101370000B0C06BF09044FF0100C4FF0000C0B0EC5
:1013800004BF09020CF1080C0B0F04BF09010CF19A
:10139000040C8B0F04BF89000CF1020CCB0F04BFAF
:1013A00049000CF1010CCCF12003A0EB0C0022FA57
:1013B00003F302FA0CF241EA030100F10100704765
:1013C00020F07F4C80EA030023F07F47ACEB07035B
:1013D00003F57C5300F0004003F1FF032DE9804941
:1013E0004FEA154B09B44FEA144325EA0B4E24EAA1
:1013F00003480FF2042606EB132749083E785FEAFC
:10140000320203FB0667C7F5000707FB06F64FEA43
:1014100054374FEAD64606F1020607FB066CCCF1BC
:10142000005C4FEA1C472CEA074C07FB06F40CFB58
:1014300006F504EB15464FEA961634BF00204FF030
:1014400000404FEAD13706FB07FC4FEA1C4C0CFB6F
:101450000BF7D21B03FB0CF761EB07010CFB0EF73C
:10146000B0EB074072EB17420CFB08F734BFA2EB5E
:101470000742B2EB074261EB17414FEA0C444FEAD7
:10148000910706FB07FC4FEA1C4C0CFB0BF7B0EB7B
:10149000C74072EB573203FB0CF734BFA2EBC742D5
:1014A000B2EBC74261EB57310CFB0EF7B0EBC70054
:1014B00072EB57720CFB08F734BFA2EBC702B2EB1A
:1014C000C70261EB5771039F4FEA816141EA9211B4
:1014D00004EBCC044FEAD1374FEA826206FB07FCEB
:1014E00042EA90124FEA80604FEA1C4C0CFB0BF76B
:1014F000D21B03FB0CF761EB07010CFB0EF7B0EB03
:10150000074072EB17420CFB08F734BFA2EB07420F
:10151000B2EB074261EB17414FEA8C554FEA910756
:1015200004EB9C2406FB07FC4FEA1C4C0CFB0BF75E
:10153000B0EBC74072EB573203FB0CF734BFA2EBA2
:10154000C742B2EBC74261EB57310CFB0EF7B0EB71
:10155000C70072EB57720CFB08F734BFA2EBC7024F
:10156000B2EBC70261EB577115EB4C254FEA816175
:1015700041EA92114FEA82624FEAD13742EA901271
:1015800006FB07FC44F100044FEA80604FEA1C4C64
:101590000CFB0BF7D21B03FB0CF761EB07010CFBF9
:1015A0000EF7B0EB074072EB17420CFB08F734BFA5
:1015B000A2EB0742B2EB074261EB174115EB1C159A
:1015C0004FEA813141EA92414FEA823242EA904247
:1015D0004FEA80304FEA0C7644F1000448EA0343B6
:1015E0004EEA0B484FF0000EB2EB080C71EB03070C
:1015F00024BF624639464EEB0E0E4FF0000B00182A
:10160000524149414BEB0B0BB2EB080C71EB03075A
:101610007BF1000B24BF624639464EEB0E0E4FF0B5
:10162000000B0018524149414BEB0B0BB2EB080C7D
:1016300071EB03077BF1000B24BF624639464EEB8A
:101640000E0E51EA020718BF46F0010616EB0E76A1
:1016500055F1000254F1000103D5BDE88901BDE850
:101660000088BDE88901BDE80048B619524141EB48
:101670000101A3F10103704780807F7E7D7C7B7A2E
:101680007978777676757473727171706F6E6E6D2E
:101690006C6C6B6A6A6968686766666564646363D4
:1016A00062616160605F5F5E5E5D5D5C5C5B5B5A5A
:1016B0005A595958585757565655555554545353C7
:1016C00052525251515050504F4F4F4E4E4D4D4D22
:1016D0004C4C4C4B4B4B4A4A4A494949484848476D
:1016E00047474746464645454544444444434343AB
:1016F0004342424242414141002B9C4630D4770054
:101700002BD01CB54FEA370703B44FF010004FF051
:101710001001BAF1000F06D0BCF1000FDCBF40F0A1
:10172000080040F008014FF000000FBCBDE8104079
:101730000BF1010BBBF1010F08BF5FEA170722BFD6
:1017400012F1010211F101014FF0004143F10003D8
:1017500000F0004043EA00007047F9D35708D0E793
:1017600046EA064613F1400F4FEA16461FDD13F115
:10177000200FDFBF16430A46002120335B42BED054
:10178000C3F1200746EA064602FA07F74FEA164673
:1017900046EA0706C3F1200722FA03F201FA07F727
:1017A00021FA03F14FF0000342EA0702A7E746EAF5
:1017B000020646EA06464FEA164646EA0106BCBF5E
:1017C00046EA0646360C4FF000034FF000024FF099
:1017D000000194E72DE9804C9A46934670B491E855
:1017E000380007C831EA400C48BF34EA430C03D53F
:1017F000FFF7E6FDFFF780FFF0BCBDE8008C2DE9A8
:10180000804C9A46934670B491E8380007C810F0AF
:10181000804F08BF13F0804F03D100F005F8FFF7A9
:101820006BFFF0BCBDE8008C20F07F4780EA03002E
:1018300023F07F4C07EB0C03A3F57C5300F0004032
:10184000A3F1FE0392F0000F00F0B38095F0000FBB
:1018500000F077802DE901494FEA11404FEA144624
:1018600021EA004800FB06FC24EA064708FB06F6CE
:1018700007FB08F800FB07F718EB06484CEB164C83
:101880004FEA124B18EB07484FEA15464CEB17404E
:1018900022EA0B4E0BFB06FC25EA06470EFB06F67A
:1018A00007FB0EFE0BFB07F71EEB064E4CEB164C30
:1018B0004FF000061EEB074E4CEB174B18EB0B08D6
:1018C00040F1000018EB0E0B58EB000840F100004F
:1018D0008F1A4FF000013CBFC943661B14BFB5EB24
:1018E000040C00213CBFC943F61B4FEA17444EEAE3
:1018F0008E0E27EA04454FEA1C4704FB07622CEAD8
:10190000074C05FB07F70CFB05F604FB0CFC16EB7C
:10191000074642EB174216EB0C4642EB1C421BEB10
:10192000060658EB0202414146EA9E0601D5BDE893
:101930000189B619524141EB0101A3F10103BDE850
:1019400001894FEA14454FEA114724EA054621EA86
:10195000074C05FB07F406FB07F70CFB06F105FB3C
:101960000CFC11EB074144EB17444FEA124711EB13
:101970000C4144EB1C4422EA074C05FB07F206FB32
:1019800007F70CFB06F605FB0CFC16EB074642EBD3
:10199000174216EB0C4642EB1C456A1854F1000145
:1019A00048BF7047B619524141EB0101A3F1010351
:1019B000704795F0000F37D04FEA11424FEA1447B5
:1019C00021EA024624EA074C02FB07F106FB07F76F
:1019D0000CFB06F402FB0CFC14EB074441EB174133
:1019E0004FEA154714EB0C4441EB1C4125EA074C28
:1019F00002FB07F506FB07F70CFB06F602FB0CFCE7
:101A000016EB074645EB174516EB0C4645EB1C421B
:101A1000121951F1000148BF7047B619524141EB0C
:101A20000101A3F1010370474FEA14454FEA114742
:101A300024EA054621EA074C05FB07F106FB07F7F8
:101A40000CFB06F24FF0000605FB0CFC12EB074204
:101A500041EB174112EB0C4251EB1C4148BF704760
:101A6000921841EB0101A3F101037047314800686E
:101A700000F0040000284DD02E48006820F004003B
:101A80002D49C1F800012D4800882C4948802A487A
:101A9000D0F83C0100B208802948007900F001002C
:101AA00030B12848406940F040002649486105E0CF
:101AB0002448406920F040002249486120480079CC
:101AC00000F0020008B32048B0F900100088401C64
:101AD00000B21D4A1080022908DB1C48406940F012
:101AE00040001A49486100201146088018480088C3
:101AF0000E280AD113484069002012494861104855
:101B0000406840F001000E49486011480088401CC0
:101B10000F4908800848006800F0200040B16FF0CD
:101B20002000054908600B480088401C09490880CE
:101B3000704700000021014000200140E81C002007
:101B4000F81C0020000002401A060020000001409E
:101B50001C0600201006002000BFFEE710B5022082
:101B600000F082FF28B1012000F06EFF0120014942
:101B7000088010BD18060020704700002B49086837
:101B80002B49097901F0020151B30021284A516023
:101B90002849496941F08001264A51612649B1F935
:101BA0000810B1F5F87F0AD92149098940F6791260
:101BB000914204D91E490989491E1D4A11811E49B5
:101BC000B1F90810B1F5DF7F0AD21949098940F649
:101BD000FF32914204D216490989491C144A1181E5
:101BE0000021164A118016490140E9B10F490969DF
:101BF000C1F3C04149B10021124A1180124909685C
:101C000041F40051104A116008E001210D4A118091
:101C10000D49096821F400510B4A11600849034A33
:101C200091600121094A1180704700000060024064
:101C3000F81C002000000240E81C00201C060020C8
:101C40002000001020060020140C02401E06002078
:101C500010B54FF0205000F0BBFF30B10220034917
:101C600008604FF0205000F0A5FF10BD2C070020A9
:101C700010B500F071FC10BD00BFFEE700BFFEE72D
:101C800070477047704770471F48006840F4700005
:101C90001D4908601D48006820F00100401C1B49D8
:101CA000086000BF19480068C0F340000028F9D060
:101CB00016480830006820F0030014490831086015
:101CC00000BF124808300068C0F381000028F8D136
:101CD0000E49083108600D4800680D4908400B495D
:101CE00008600C48091D086000200849A031086000
:101CF0004FF41F0005490C3108604FF000600249A5
:101D0000803908607047000088ED00E0003802402C
:101D1000FFFFF2FE0230030000210020124A126988
:101D200002F04002F2B1104A126922F040020E4B5A
:101D30001A610E4AB2F902200C4BB3F900301A4472
:101D400051100A4AD2888A1A10B2C82802DD074AFE
:101D5000108107E010F1C80F04DA044A5081002214
:101D6000034B5A607047000000000140E81C00204F
:101D7000F81C002010B50121074802F008F80128DE
:101D800008D10121044801F0FFFF04480078401CFD
:101D90000249087010BD00000004004088070020C0
:101DA0007047704710B5002420210F4802F0DCF87E
:101DB000C8B120210C4802F0D4F80B4802F0C4F856
:101DC000C1B20A4802880088401C084B18800848A5
:101DD000815419460888C11700EB91618911A0EB65
:101DE00081111A46118010BD0010014030070020FB
:101DF000041D002000BFFEE703B4019841000098D5
:101E000050EAC12018BF04204A0D18BF40F001005D
:101E100040F2FF72B2EB515F08BF40F002000128B0
:101E200008BF052002B0704730380A2801D20120CF
:101E300070470020704700BF70470B78426863F31B
:101E4000082242604B78826863F3410282608B789B
:101E5000826863F3CB228260CA78521EC36A62F33F
:101E60001753C362704700210170417081700121D6
:101E7000C1707047816821F00801083181607047A6
:101E800001468868C0F3C00008B1012070470020F7
:101E9000FCE7816821F00401091D8160704701465B
:101EA0008868C0F3800008B1012070470020FCE77B
:101EB00002782649096862F30401244A11604278D5
:101EC0002349D1F8041362F31341204A1160817849
:101ED00001F0040149B11146096821F0805101F176
:101EE00080511B4AC2F8041306E01849096821F022
:101EF0008051174AC2F804138178144A126861F3BA
:101F00008F3212490A60C2781149D1F8041362F382
:101F10004D310E4A116002790D49D1F8041362F374
:101F20000B210A4A116042790949D1F8041362F37E
:101F3000D751064A116082790549D1F8041362F33A
:101F40009651034AC2F8041370470000042301406D
:101F5000002001400021017041708170C170017149
:101F600041718171704700000EB50121604800F099
:101F70003BFC01215E48401C00F036FC01215C481E
:101F8000801C00F031FC00220121122001F034FB02
:101F900001A8FFF7DFFF00208DF804008DF8050091
:101FA0008DF806008DF807008DF808008DF80900FF
:101FB0008DF80A0001A8FFF77BFF6846FFF753FF83
:101FC00001208DF8000000208DF801008DF802003E
:101FD00002208DF8030069464648FFF72EFF0021D6
:101FE000444800F053FA01231A460021414800F00A
:101FF000A7F80023022201213E4800F0A1F80122A7
:1020000000213C4800F06CF901213A4800F076F8D4
:102010000121384800F077F801208DF800000020F9
:102020008DF801008DF8020001208DF8030069464B
:102030003148FFF702FF00212F4800F027FA012165
:102040002D4800F06CF9002301220A212A4800F0F3
:102050006CF901220021284800F0FEF900212648F1
:1020600000F058F901229106224800F05EF80122A2
:102070008021214800F059F801211E4800F048F85D
:1020800001211D4800F044F800BF4021194800F02C
:1020900044F80028F9D000BF4021174800F03DF86F
:1020A0000028F9D01348FFF7E5FE00BF1148FFF7FD
:1020B000E7FE0028FAD10F48FFF7EBFE00BF0D48FE
:1020C000FFF7EDFE0028FAD10B48FFF7D3FE00BF63
:1020D0000948FFF7D5FE0028FAD10748FFF7D9FED7
:1020E00000BF0548FFF7DBFE0028FAD10EBD000057
:1020F000080044000020014000210140826861F393
:10210000082282607047826861F3492282607047CA
:10211000826861F300028260704702460020136803
:102120000B4003B900E001207047012A03D1436846
:102130000B43436003E012B943688B43436070472D
:1021400010B513296AD2DFE801F00A0F14191E2313
:10215000282D32373C41464B50555A5F6400046984
:1021600063F3020404615AE0046963F3C504046183
:1021700055E0046963F38814046150E0046963F373
:102180004B2404614BE0046963F30E34046146E0C0
:10219000046963F3D134046141E0046963F3944456
:1021A00004613CE0046963F35754046137E0046957
:1021B00063F31A64046132E0046963F3DD6404616B
:1021C0002DE0C46863F30204C46028E0C46863F3CC
:1021D000C504C46023E0C46863F38814C4601EE0CF
:1021E000C46863F34B24C46019E0C46863F30E341D
:1021F000C46014E0C46863F3D134C4600FE0C46801
:1022000063F39444C4600AE0C46863F35754C46041
:1022100005E0C46863F31A64C46000E000BF00BF57
:10222000112A5AD2DFE802F059090E13181D22278D
:102230002C31363B40454A4F5400446B61F3040453
:1022400044634BE0446B61F34914446346E0446BE0
:1022500061F38E24446341E0446B61F3D3344463FF
:102260003CE0446B61F31854446337E0446B61F322
:102270005D64446332E0046B61F3040404632DE0A5
:10228000046B61F34914046328E0046B61F38E244A
:10229000046323E0046B61F3D33404631EE0046B36
:1022A00061F31854046319E0046B61F35D64046323
:1022B00014E0C46A61F30404C4620FE0C46A61F309
:1022C0004914C4620AE0C46A61F38E24C46205E062
:1022D000C46A61F3D334C46200E000BF00BF10BD24
:1022E0000F290ADD836823F0004303F10043836074
:1022F000836861F31B63836007E0836823F0004316
:102300008360836861F31B638360836862F31D737A
:1023100083607047426861F38A22426070474A1EB8
:10232000836B62F315538363704770B500241329E0
:102330006AD2DFE801F00A0F14191E23282D323764
:102340003C41464B50555A5F6400056963F30205F2
:1023500005615AE0056963F3C505056155E0056946
:1023600063F38815056150E0056963F34B2505614A
:102370004BE0056963F30E35056146E0056963F3DB
:10238000D135056141E0056963F3944505613CE0A1
:10239000056963F35755056137E0056963F31A650D
:1023A000056132E0056963F3DD6505612DE0C5680F
:1023B00063F30205C56028E0C56863F3C505C56021
:1023C00023E0C56863F38815C5601EE0C56863F344
:1023D0004B25C56019E0C56863F30E35C56014E090
:1023E000C56863F3D135C5600FE0C56863F39445F4
:1023F000C5600AE0C56863F35755C56005E0C56868
:1024000063F31A65C56000E000BF00BF856BC5F3CC
:102410000156D51CAD1BACB2012C06D0022C09D044
:10242000032C0CD0042C14D10EE0856B61F3040551
:1024300085630FE0856B61F3491585630AE0856B61
:1024400061F38E25856305E0856B61F3D335856384
:1024500000E000BF00BF70BD0F290ADD836823F4D0
:10246000000303F500038360836861F31343836013
:1024700007E0836823F400038360836861F31343F8
:102480008360836862F3155383607047426861F329
:10249000196242607047704770477047704700008C
:1024A00010B500241948007858B901201749087060
:1024B00001F0D4FB4FF4E13001F014FD14A0FEF75D
:1024C0000FF81E48007800281DDD1C480478002005
:1024D0001A4908701A480088401C1949088001F000
:1024E00059FA184801880088401C164A108042F2A8
:1024F0001070814207DD00201146088010480188D5
:1025000011A0FDF7EDFF204610BD0000AE07002032
:10251000636F6D62696E655F6D6F64655F6F726436
:10252000696E6172795F736D6C745F74776F736CD1
:102530006176655F646D6131200D0A0088070020B7
:10254000B2070020B0070020C9A8C3E8B4CECAFD76
:102550003A25640D0A00000010B5052000F0E6F9E8
:10256000012000F041FC0121084800F0C7FD0128CE
:102570000AD107480078042803D1012004490870D3
:1025800002E004200249087010BD00000000024073
:1025900000000020002141808180704702490988A5
:1025A0008143014A11807047B8050020034909683A
:1025B00060F30711014A11607047000008380240BB
:1025C0000349096860F38C21014A116070470000DB
:1025D000083802400349096860F34F31014A11602D
:1025E0007047000008380240012807D107490968F0
:1025F00021F030013031054A116005E003490968D6
:1026000021F03001014A116070470000A4380240F7
:1026100005282BD2DFE800F0030A11182100154A23
:10262000126861F30002134B1A6020E0114A12682D
:1026300061F310420F4B1A6019E00E4A126861F301
:1026400018620C4B1A6012E00A4A7032126861F389
:102650000002084B70331A6009E0064A74321268AF
:1026600061F30002034B74331A6000E000BF00BF47
:1026700070470000003802402DE9FE4F04464FF03D
:102680000009CA46CB460020029001900025002692
:1026900000F02EF90090009820B1012812D00228F5
:1026A0003FD112E031480068C0F3803038B12F4884
:1026B0000068C0F3003010B12D48206001E02D48C3
:1026C000206031E02B4820602EE028489C380068CC
:1026D000C0F38050029025489C380068C0F38819E8
:1026E00022489C38006800F00F0A20489C38006897
:1026F000C0F30240204911F800B0029810B91D48FB
:10270000019001E01B4801900AFB0BFC0198A0FB23
:1027100009700146624600233846FDF75EFE2060E0
:1027200002E01448206000BF00BF104898380068DD
:10273000C0F303151148465D2068F04060600B4807
:1027400098380068C0F382250D48465D6068F04007
:10275000E060064898380068C0F342350948465D95
:102760006068F040A060BDE8FE8F0000A038024025
:10277000006CDC0200127A001E420008FE410008D4
:102780000E4200081642000810B501460020094B11
:1027900003EB1142D2F8002801F01F040123A340EB
:1027A0001A4001F01F040123A3409A4200D000E028
:1027B000012010BD0030024030B50024002500E0AB
:1027C000641C1120FFF7E0FF012802D0B4F5405F40
:1027D000F6D31120FFF7D8FF012801D0002500E033
:1027E0000125284630BD000010B501290FD1104B3E
:1027F00003EB1042D2F8002800F01F040123A3408D
:102800001A430B4C04EB1043C3F800280EE0084BAE
:1028100003EB1042D2F8002800F01F040123A3406C
:102820009A43034C04EB1043C3F8002810BD00008A
:102830000030024030B50B4C246860F39654094DCB
:102840002C602C46246861F38E142C602C4624687E
:1028500062F303042C602C46246863F312442C605A
:1028600030BD0000043802401948006820F0010023
:10287000401C1749086000BF15480068C0F34000BD
:102880000028F9D012480830006820F003001049F1
:102890000831086000BF0E4808300068C0F38100AE
:1028A0000028F8D10A490831086009480068094938
:1028B0000840074908600848091D086000200449CD
:1028C000A03108604FF41F0001490C3108607047C7
:1028D00000380240FFFFF2FE02300300034909689E
:1028E00060F30101014A116070470000083802409E
:1028F00002480068C0F381007047000008380240B9
:1029000010B5FFF7CDFD70B100F0ECFC064908846E
:1029100000F036FA01F024F8034800F06BF84FF6A7
:10292000FF70FFF73BFE10BDF0070020002131E0F3
:1029300032280ADD194A126832235A434FF0E02345
:102940005A61A0F1320290B206E0144A1268424382
:102950004FF0E0235A61002000224FF0E0239A61FB
:102960001A46126942F001021A6100BF4FF0E022DC
:10297000116901F001021AB101F48032002AF5D088
:102980004FF0E022126922F001024FF0E0231A61B9
:1029900000229A610028CBD170470000D8070020A0
:1029A00001E0411EC8B20028FBDC704710B50E489C
:1029B00000F00EFB0D48006840F480700B49086081
:1029C0000B48006840F40050094908600748006857
:1029D00040F4007005490860012001F0BBFB442071
:1029E00001F0B8FB10BD00000400002014040240F8
:1029F0001408024010B50446204600F013FA2046A1
:102A000000F074FD10B1024800F004F810BD0000A1
:102A1000E407002030B505460A24012001F09AFBA6
:102A2000842001F097FB442001F094FBC02001F0CA
:102A300091FB0A21034801F063FB8C2001F08AFB23
:102A400030BD0000E4070020B0F1805F04D920F021
:102A50007041034A116001E00249086070470000BC
:102A6000046602400464024001460022B1F1805F26
:102A700002D90648026801E00548026802EA01003E
:102A800008B1012070470020FCE70000006602400A
:102A90000064024000B587B001212A48FFF7A4FE78
:102AA000002211460B2000F0A7FD274800F0F8F89F
:102AB00001A800F053F840F22E40ADF80E000020BF
:102AC0008DF80C002148029000208DF8180001209C
:102AD0008DF813008DF811001D48019000208DF82D
:102AE000190001208DF8120000208DF8100003203D
:102AF0008DF8150001208DF8140000208DF81700C6
:102B00008DF8160001A9104800F074F8012000F0BB
:102B100025F905210F4800F02DF900220E490A4839
:102B200000F039F80121084800F028F801221021AE
:102B3000054800F09DF80121034800F009F907B0AD
:102B400000BD000015003000106002403008002079
:102B50004C200140406102408C1000200021418146
:102B600001740172C174817441600175C173417354
:102B700001604175817301734174704731B102681E
:102B800022F4802202F58022026003E0026822F42F
:102B900080220260704732B1036823F4002303F5FA
:102BA0000023036003E0036823F400230360016152
:102BB00070470000B0F1005F04D920F07041034A73
:102BC000D16001E001498860704700000060024068
:102BD0000146B1F1005F02D90548426801E00448AE
:102BE000026802EA010008B1012070470020FCE7FA
:102BF000006002400B7A026863F3871202600B7B6D
:102C0000026863F3492202604B7B026863F38A2205
:102C100002608B7B026863F3CC220260CB7B02688C
:102C200063F34E3202600B7C026863F30822026099
:102C30004B7C026863F3114202600B7D026863F310
:102C4000D85202604B7D026863F3565202608B7C5F
:102C5000426963F382024261CB7C426963F3010201
:102C600042614A8942600A6882604A68C26070476D
:102C700001F080034BB122B1436943F0800343610B
:102C800003E0436923F080034361802907D01AB130
:102C900003680B43036002E003688B4303607047E3
:102CA000016821F001010160002101604160816043
:102CB000C160016121214161234A811A904228D0DB
:102CC00009DC2249014469B1182910D0302914D0F7
:102CD000482935D117E0182920D0302924D0482997
:102CE0002ED127E03D21184A703A916029E04FF437
:102CF0007461154A703A916023E04FF47411124ADE
:102D0000703A91601DE04FF074610F4A703A916023
:102D100017E03D210C4A703AD16012E04FF4746123
:102D2000094A703AD1600CE04FF47411064A703AC7
:102D3000D16006E04FF07461034A703AD16000E060
:102D400000BF00BF7047000070600240F09FFDBFF1
:102D5000026861F3000202607047000003490968DD
:102D600060F30001024AC2F83C1170473C61024026
:102D700000600240026861F30602026070470000D2
:102D800010B5002400BF28E015480088154901EB64
:102D900004110988884208D011484088114901EB84
:102DA00004114988884200D015E00D48008C0D4977
:102DB00001EB0411098988420CD10948808809492E
:102DC00001EB04118988884204D1064901EB041102
:102DD000C868804700BF601CC4B2032CD4DB10BDA0
:102DE000F0070020A004002001490860704700009F
:102DF000143C014070B504460D4600BF80210748D1
:102E000001F0B2F80028F9D0A1B2044801F0A0F80E
:102E1000002003490880204670BD000000100140DA
:102E20003007002030B5054628883C4951F820007D
:102E3000698850F82100A98830F81100C0EBC00063
:102E4000374901EB4004374801880088401C354A67
:102E50001080A088814207DA00201146088032489D
:102E60000088401C30490880A0886188484364215C
:102E700090FBF1F02B49098888421FDD95F824006A
:102E800000F00100B0B1B5F9280000F061F9E88C5C
:102E9000022804D1A07925490870E0794870E88CAF
:102EA00001282BD1A07921490870E0794870207A57
:102EB000887023E0A01D00F08FFB1FE095F8240030
:102EC00000F00200B0B1B5F9280000F041F9E88C3B
:102ED000022804D1A07A15490870E07A4870E88C7D
:102EE00001280BD1A07A11490870E07A4870207B44
:102EF000887003E004F10A0000F06EFB20880028CF
:102F00000BDD208808490988884206DC0020064934
:102F10000880A88C40F00400A88430BD8C040020F8
:102F200062000020980400209A0400205400002031
:102F300010B5024800F04CF810BD00002406002037
:102F40004FF6FF7101600021817101714171012112
:102F5000C171704770B50A4600211488A3B233E0EE
:102F600003F001046CB304684E000325B540AC4384
:102F7000046094794D00AC4005682C4304604468BB
:102F800001258D40AC434460446815798D402C4345
:102F9000446084684E000325B540AC438460D47916
:102FA0004D00AC4085682C438460C4684E00032506
:102FB000B540AC43C46054794D00AC40C5682C4367
:102FC000C4605B104C1CA1B2002BC9DC70BD0000BA
:102FD0007CB5044600256846FFF7B2FF7EE0424913
:102FE0006068884207D1012D05D001214FF44010BF
:102FF000FFF7FAFB01253D496068884206D1022DA2
:1030000004D001213A48FFF7EFFB022539496068F7
:10301000884207D1032D05D001213548401CFFF718
:10302000E3FB032534496068884207D1042D05D0AD
:1030300001212F48801CFFF7D7FB0425A06870B939
:1030400000208DF806002178012088400090207B28
:103050008DF8050069466068FFF77CFF3DE0A068D9
:10306000012812D18DF80700207B8DF80400012083
:103070008DF80600217888400090207C8DF80500AE
:1030800069466068FFF766FF27E0A068022817D14D
:103090008DF80600217801208840009000208DF8EE
:1030A00004008DF8050001208DF80700694660686E
:1030B000FFF750FF227C2178606800F028F80CE0D0
:1030C000A068032809D18DF80600217801208840E6
:1030D000009069466068FFF73DFF14342068FF28C0
:1030E0007FF47DAF7CBD0000000002400004024080
:1030F0000100300000080240000C0240024600209F
:1031000013690B408B4200D000E001207047F0B5FE
:10311000002300244D07ED0E02FA05F3CD105DB13A
:10312000456A4E07F70E0F26BE40B5434562456A15
:1031300045EA030444620AE0056A4E07F70E0F26CB
:10314000BE40B5430562056A45EA03040462F0BD6A
:1031500030B50246104600210023002802DA44421E
:1031600020B201234FF47A7490FBF4F420B240B9FA
:10317000012B11D11C4C247844F040041A4D2C70C2
:103180000AE01A4C245C184D2C70012B04D12C46FB
:10319000247844F080042C704FF47A7490FBF4F59A
:1031A00004FB1501642491FBF4F420B20F4C245C61
:1031B0000D4D6C70642491FBF4F504FB15110A2489
:1031C00091FBF4F420B2094C245C44F08004064DD9
:1031D000AC700A2491FBF4F504FB15110846034C6E
:1031E000245C014DEC7030BD5400002058000020DC
:1031F00000B5094A0948007800F0040050B1518830
:10320000481C50803C2902DD0120507002E010462D
:10321000FFF7C0F900BD0000DC050020BA05002062
:1032200000B50E4A0E48007800F0040040B1508806
:1032300044F62061884210DA5088401C50800CE02F
:103240009188481C90803C2907DD002050700120A7
:10325000044908801046FFF79DF900BDDC050020F9
:10326000BA050020B805002000B5094A09480078D1
:1032700000F0080050B15188481C50803C2902DD04
:103280000120507002E01046FFF784F900BD0000F5
:10329000EC050020BA05002000B50F4A0F48007861
:1032A00000F0080040B1508844F62061884211DAED
:1032B0005088401C50800DE05188481C50803C29AB
:1032C00008DD002050704FF48070054908801046DA
:1032D000FFF760F900BD0000EC050020BA050020F2
:1032E000B805002010B500240A48007810B9012064
:1032F0000849087000F014F807490880002401E02C
:10330000601CC4B2042CFBDB00F0F0F90348008819
:1033100010BD00000D060020BA050020B8050020F1
:103320001CB500200190009000F0FCFA00909DF880
:10333000000000F0010020B19DF8040040F0010001
:1033400001909DF8000000F0020020B19DF80400FB
:1033500040F0020001909DF8000000F0040020B150
:103360009DF8040040F00400019000F0D1FA0090B4
:103370009DF8000020B99DF8040040F0080001907D
:103380001CBD000000B5094A0948007800F00100A2
:1033900050B15188481C50803C2902DD01205070FA
:1033A00002E01046FFF7F6F800BD0000BC05002063
:1033B000BA05002000B50E4A0E48007800F0010062
:1033C00040B1508844F62061884210DA5088401C91
:1033D00050800CE05188481C50803C2907DD0020BB
:1033E00050700420044908801046FFF7D3F800BD50
:1033F000BC050020BA050020B805002000B5094A28
:103400000948007800F0020050B15188481C5080F3
:103410003C2902DD0120507002E01046FFF7BAF8A7
:1034200000BD0000CC050020BA05002000B50E4A02
:103430000E48007800F0020040B1508844F6206148
:10344000884210DA5088401C50800CE05188481C9B
:1034500050803C2907DD002050700220044908807C
:103460001046FFF797F800BDCC050020BA050020F4
:10347000B805002010B5FFF75BFD00F085FBFFF7F6
:1034800009FBFEF771FD40F6FF300449088108464C
:10349000406840F00200486010BD0000F81C0020A9
:1034A0007047704700F0A8FA00F004F801E0FFF759
:1034B00027FAFCE710B5FFF7DDFFFFF777FA0020EA
:1034C0000949088048808880C88008810021064812
:1034D00041818181C181018241828182C1820183D6
:1034E00041838183C18310BDF00700200146002283
:1034F00036480078364B1B78984200D0012233487A
:103500008078334B5B78984200D001222F480079B5
:103510002F4B9B78984200D001222C4880792C4B6D
:10352000DB78984200D001222848007A294B1B788A
:10353000984200D0012226480078244B1870244875
:10354000407898702248807818712148C078987126
:103550000020187291F8380000F0010020B11846E0
:10356000007A40F00100187291F8380000F0020073
:1035700028B11648007A40F00200144B187291F8F6
:10358000380000F0040028B11048007A40F0040030
:103590000E4B187291F8380000F0080028B10B4863
:1035A000007A40F00800094B187291F8380000F0DA
:1035B000100028B10548007A40F01000034B187243
:1035C0000248007A034B187000207047E40700207F
:1035D000540000209C04002010F8011B054A1170C3
:1035E00010F8011B517010F8011B917010F8011BAD
:1035F000D1707047540000202DE9F0470B46144667
:103600004FF0000C00BF2C4A1268C2F302211D4685
:1036100026460A46C2F10709B9F1040F02D94FF054
:10362000040901E0C2F10709C84602F10409B9F131
:10363000070F02D24FF0000901E0A2F103094F4643
:103640004FF0010909FA08F9A9F1010909EA050988
:1036500009FA07F94FF0010A0AFA07FAAAF1010A72
:103660000AEA060A49EA0A09CC46014662460029E6
:1036700004DB15072E0E114D6E5407E015072F0EB3
:103680000D4D0C3501F00F06361FAF5500BF01463A
:1036900000290DDB00BF00BF01F01F050122AA4079
:1036A0004D09AD0005F1E025C5F8002100BF00BFC0
:1036B00000BFBDE8F08700000CED00E000E400E092
:1036C00000BF00F00702064B19684FF6FF031940D0
:1036D000044B0B4343EA0221014B196000BF7047C2
:1036E0000CED00E00000FA057047704708B50020B7
:1036F000009055484078012804D19DF8000040F022
:10370000010000905048407C012804D19DF8000041
:1037100040F0020000904C4890F82100012804D1AC
:103720009DF8000040F0040000909DF8000018B9DA
:1037300000204649087008BD44480078012800D19F
:10374000F9E741484088B0F57A7F0DDB9DF800002D
:10375000012809D13E48008840F080003C4908809B
:1037600001203A490870E6E73748408C40F6B83106
:1037700088420DDB9DF80000042809D134480088F8
:1037800040F0080032490880012030490870D2E733
:103790002D48408840F6B831884217DB2A48408CD3
:1037A000884213DB9DF80000042801D1012000E0CD
:1037B000002040F0010048B12548008840F010008A
:1037C00023490880012021490870B4E71E48408839
:1037D00040F6B831884217DB1B48408A884213DB29
:1037E0009DF80000022801D1012000E0002040F0F7
:1037F000010048B11648008840F0200014490880B4
:1038000001201249087096E70F48408C40F6B83105
:10381000884216DB0C48408A884212DB9DF8000083
:10382000022801D1012000E00020001D48B1084815
:10383000008840F0400006490880012003490870D4
:1038400079E700BF77E70000BC0500200C060020E8
:10385000B80500207047000010B5002400BF0DE03F
:1038600008484088084931F83410884204D1064994
:1038700001EBC40148688047601CC4B2082CEFDB30
:1038800010BD0000F00700202005002000B5002238
:1038900000231D4800681C481430006840F4807004
:1038A0001949143108601948006800201749086058
:1038B00000BF1DE014481430006800201249143184
:1038C00008600320FFF76CF80F481430006840F4DC
:1038D00080700D49143108600320FFF761F8580625
:1038E000030E43F001030320FFF75AF8501CC2B245
:1038F000082ADFDB0548006840F4005003490860EF
:103900000148006800BD00000004024014080240A5
:1039100010B510210248FFF7F1FB0446204610BD08
:10392000000402400CB5002000900190452000F0FA
:1039300011FCFFF7ABFF8DF80000FFF7A7FF8DF834
:103940000100FFF7A3FF8DF80200FFF79FFF8DF83E
:103950000300FFF79BFF8DF804009DF804000CBDE9
:1039600010B5002400BF0DE008480088084931F870
:103970003410884204D1064901EBC40148688047ED
:10398000601CC4B2082CEFDB10BD0000F007002063
:103990007805002010B50E4801880088401C0C4AAC
:1039A0001080032912DD0020114608800948008894
:1039B00000280BDD074800880749088000200549DA
:1039C0000880054801880548FCF77EFD10BD000011
:1039D000AC07002030070020AA070020041D0020AB
:1039E000704770477047704770477047704770471F
:1039F000704770477047000010B501212248FEF75C
:103A0000F3FE2248006920F00700401C1F490861AE
:103A10001F48006820F00300401C1D490860FEF7A5
:103A200023FF01210846FEF7F3FD00BFFEF7C4FEA9
:103A30000028FBD001231A4648211846FEF7FAFE5B
:103A400001210220FEF7E4FD00BF1920FEF79CFED5
:103A50000128FAD10020FEF7A9FD0420FEF7BAFDE7
:103A60000420FEF7ADFD0120FEF7BEFD0220FEF7AB
:103A700035FF00BFFEF73CFF0228FBD10020FEF718
:103A8000B3FD00F007F810BD1C00400000700040BE
:103A9000603C02402DE9FC5F002400250026A14681
:103AA000A246A34600200190FEF722FF0090009856
:103AB00020B1012814D0022841D115E02B4800681C
:103AC000C0F3803040B129480068C0F3003018B11D
:103AD00027482849086002E027482649086032E064
:103AE0002548244908602EE020489C380068C0F32F
:103AF00080591E489C380068C0F388141B489C38C5
:103B0000006800F00F0519489C380068C0F30240B7
:103B10001A490E5CB9F1000F02D1DFF85CA001E098
:103B2000DFF854A005FB06FCAAFB047001466246C0
:103B300000233846FCF751FC0E49086003E00E48AC
:103B40000C49086000BF00BF084898380068C0F3FF
:103B5000031B0B4810F80B00019006480068019900
:103B6000C84004490860BDE8FC9F0000A03802403E
:103B7000006CDC02E007002000127A0034420008EA
:103B8000244200087047000010B586B00020009065
:103B90000190029003906846FEF76EFD01214FF4FC
:103BA0008800FEF721FE2B490098B0FBF1F0441E7F
:103BB00022461D21284800F089F80021264800F0FF
:103BC000D9F80021244800F0D0F804A800F07CF9CE
:103BD00006208DF8100000208DF8130001208DF8CC
:103BE000150000208DF8110004AA00211A4800F0E9
:103BF000E3F80F220021184800F0A0F8012200216C
:103C0000154800F06BF804AA0621134800F0D4F818
:103C10000F220621104800F091F8012206210E48DB
:103C200000F05CF801210C4800F057F90122402116
:103C3000094800F0B5F80320FFF742FD00220221F9
:103C40001A20FFF7D9FC0121034800F098F806B0CC
:103C500010BD00000048E801000001401FB5002031
:103C600000900190029003900320FFF729FD0022AD
:103C700001211D20FFF7C0FC6846FEF7FDFC012175
:103C80000F48FEF7B1FD0F490098B0FBF1F0441E5C
:103C9000224640F2E7310C4800F018F800210A48AB
:103CA00000F068F80021084800F05FF80122114692
:103CB000054800F075F80121034800F060F81FBDC9
:103CC0000100400040420F0000040040C1628262D7
:103CD000436923F001035B1C4361704710B50B4639
:103CE000072B28D2DFE803F004090E13181D220069
:103CF000046A62F3000404621EE0046A62F3820450
:103D0000046219E0046A62F30414046214E0046AB1
:103D100062F3861404620FE0046A62F3082404620A
:103D20000AE0046A62F38A24046205E0046A62F32A
:103D30000C34046200E000BF00BF10BD10B50B469C
:103D4000082B0FD2DFE803F0040E060E080E0A0C53
:103D5000426308E0826306E0C26304E0026402E0BA
:103D6000426700E000BF00BF10BD026861F3092296
:103D700002607047026861F30612026070470268D1
:103D800061F3000202607047CA4302617047024655
:103D9000002013690B400BB1012000E000207047A8
:103DA000012A03D1C3680B43C36003E012B9C3689F
:103DB0008B43C36070470000F0B50023002400254A
:103DC000567801F10807BE40B3B296787F1CBE401A
:103DD000B4B23B4EB04202D03A4EB04205D1466832
:103DE000A643466046682643466046689E43466052
:103DF00046681E4346600D46082D23D2DFE805F0D5
:103E000004220A221022161C1778866967F3061608
:103E1000866118E01778866967F30E36866112E0CE
:103E20001778C66967F30616C6610CE01778C6698D
:103E300067F30E36C66106E01778066F67F306165D
:103E4000066700E000BF00BFD678012707EB4107F7
:103E5000BE40B3B21679032707EB4107BE40B4B2A8
:103E6000174EB04202D0174EB04205D1066AA643A3
:103E70000662066A26430662066A9E430662066A70
:103E80001E43066256794F00BE40B3B296790227B0
:103E900007EB4107BE40B4B2094EB04202D0094E12
:103EA000B04205D1066AA6430662066A2643066248
:103EB000066A9E430662066A1E430662F0BD000063
:103EC0000000014000040140002101704170817038
:103ED000C1700171417181717047426C61F3CF32E1
:103EE0004264704710B504460320FFF7E9FB002247
:103EF00011462520FFF780FB01210F48FEF774FCD7
:103F00000E48FFF765F80023012221460C4800F017
:103F100033F801210A4800F0AFF80121084800F009
:103F2000A6F801220749064800F086F80121044856
:103F300000F012F810BD0000040044003407002017
:103F40000010014005000C000146486880B270472F
:103F5000C1F3080242607047C26861F34D32C2602B
:103F60007047CA430260704702461068084008B1B3
:103F7000012070470020FCE72DE9FF4704468846F2
:103F8000164699466846FEF777FB2748844208D0D4
:103F90002648844205D02648844202D025488442DF
:103FA00001D1029F00E0039F07EB87004000B0FBB8
:103FB000F8F50A20B5FBF0F100FB1150052803D2FB
:103FC0000A20B5FBF0F503E00A20B5FBF0F0451C34
:103FD000A06865F30F00A06056B9E06820F080503B
:103FE00000F18050E060E06820F48050E06014E070
:103FF000012E08D1E06820F08050E060E06820F4F5
:104000008050E06009E0E06820F08050E060E06807
:1040100020F4805000F58050E060206969F30D3095
:104020002061BDE8FF87000000100140001401403E
:1040300000780040007C004030B5012A0BD100EB35
:1040400011431B6801F01F050124AC40234300EB22
:10405000114423600AE000EB11431B6801F01F05C7
:104060000124AC40A34300EB1144236030BDC2687F
:1040700061F38202C2607047C26861F3C302C2602A
:104080007047000010B502460024134600BF31E01F
:104090001A4800680020194908600320FEF780FCD8
:1040A00003F0010090B11548006840F40070134916
:1040B00008600320FEF774FC1048006840F480702C
:1040C0000E4908600320FEF76BFC10E00B48006807
:1040D00000200A4908600320FEF762FC07480068D8
:1040E00040F48070054908600320FEF759FC5B101E
:1040F000601CC4B2082CCBDB10BD000014040240CD
:1041000070B504460D4600261048006840F48070E3
:104110000E4908600E48006800200D49086000BF85
:1041200005E014F8010BFFF7ADFF701CC6B2AE42FC
:10413000F7DB0648006840F48070044908600448D2
:10414000006840F400500249086070BD1404024049
:104150001408024010B504460C48006840F4807012
:104160000A4908600A48006800200949086020469A
:10417000FFF788FF0548006840F480700349086035
:104180000348006800200249086010BD1404024082
:10419000140802407047704710B500290AD008780B
:1041A000002807D005487844FDF758F8002801D0CA
:1041B000002010BD0248784410BD00008A010000B4
:1041C0008201000010B500290AD00878002807D025
:1041D00005487844FDF742F8002801D0002010BDC2
:1041E0000248784410BD00007A010000720100000E
:1041F0004FF04070E1EE100A7047FCF79FBD0000E1
:104200000000000000000102030406070809000086
:104210000000010203040000000001020304010287
:104220000408102000000000000000000102030448
:104230000607080901020408102004000008000015
:10424000000000000002000100001000000000005B
:1042500000000000303132333435363738394142CE
:1042600043444546403058003031323334353637D8
:10427000383961626364656640307800024000004E
:10428000000000A00000000005400000000000C881
:10429000000000000C4000000000409C00000000F6
:1042A000194000000020BCBE0000000034400000A7
:1042B000BFC91B8E00000004B5400000504BCFD09A
:1042C0006607E2CF010000006C4100003E8251AA67
:1042D000DFEEA73401000000D9420000DCB5A0E207
:1042E0003A301F97FFFFFFFFB4450000FD25A0C82F
:1042F000E9A3C14FFFFFFFFFFF3F00000000008068
:1043000000000000FF3F00000000008000000000EF
:104310005C44000800000020E40700004802000898
:10432000CC470008E4070020C41B0000A4020008DA
:104330001C00000043000000F8FFFFFF0C0000001D
:104340000E0000000F0000002E0000001001000011
:1043500043000000F8FFFFFF004040404040404065
:104360004040414141414140404040404040404048
:1043700040404040404040404005020202020202EC
:10438000020202020202020202202020202020203B
:10439000202020020202020202029090909090904F
:1043A000101010101010101010101010101010100D
:1043B0001010101002020202020288888888888881
:1043C000080808080808080808080808080808086D
:1043D0000808080802020202400000000000000075
:1043E00000000000000000000000000000000000CD
:1043F00000000000000000000000000000000000BD
:1044000000000000000000000000000000000000AC
:10441000000000000000000000000000000000009C
:10442000000000000000000000000000000000008C
:10443000000000000000000000000000000000007C
:10444000000000000000000000000000000000006C
:104450000000000000000000000000003201420DDA
:104460002C0802400C814208CA04140A11091402E3
:1044700017FF600B3F061B4F663F7D077F6F5A405B
:104480000121123243E803BD784CB4860EBA9B0E6C
:10449000BACF0E3BE6030E456F5C5C4E490E9CB6F0
:1044A00001500E657D5066061A140E634E803A0365
:1044B0000EA1292A2D06806D3804490E1A1B0A29DF
:1044C00004490E8D735C79792A11BC7380B60E4253
:1044D0007C3A050EBD384C5C4A0E3938490E118CB9
:1044E000385C4C382D6D737D4E04490E2DB6D06D61
:1044F0005C0459543C6D784E04390E2D79016D7869
:1045000004591C3C38804E0449622C805C4A0449A2
:104510000E1A4E0A290459622C7D4A6D04490E2D4B
:104520000880010104590E2C77088604790E2A9B15
:1045300004790E2ACF045954112B080104690E2B5B
:10454000013804490E2D01DC3E7804490E1A1C0A7C
:104550002904490E1A060A290459B63CB6666D04A8
:10456000490E41790E2D064A737804490E2D3F6D90
:104570007D7804490E2D787D4CB60479EE2A7904B5
:10458000591C2C50066F0459EE2C011C7D046962E5
:104590004B5C4A04390E3C5C79790449C42C7D3863
:1045A0006604591C1D4A5C4A4E04792A3A4E045945
:1045B0000E1A4A0E1904590E1A6D0E190449462C8A
:1045C000066D7304591C3C6D784E0459D22B1C7D2A
:1045D00004490E2D5C796D7804490E2DB65C384E79
:1045E0000409129AD9B63C7D4C5C04091F2A2D504F
:1045F0006D7D7804691C1A4A342904390E3C667DA5
:104600006D04111207120212057A06063A03088198
:10461000121212131214121512161217121812195E
:10462000121A121B121C121D121E121F122012210E
:1046300012221223122412251226122712281229BE
:10464000122A122B122C122D122E122F12301A3166
:104650006C123312341235123612371238123912E4
:104660003A123B123C123D323E13D8031B20DE04AB
:104670001AE4041AD4041AF4041AFC041302041BE6
:104680002010041A16041A1A041A2A041A34041AD6
:104690003C041A42041A48041A5C041A50041A60B2
:1046A000040110320413A11D820832018B9B2410D7
:1046B000DA021029418BE936102A10408A34102979
:1046C000098B55381032809A974032404B954110F3
:1046D00013F3392A08701AE10829681AEF0832031F
:1046E0001AF10829981AE50832051AE70832061A5D
:1046F000F50832071AE30829411AE90832091AEBCA
:1047000008320A1AED08414B853B581AA3D829589C
:104710001A9D8029581AEBB829581A978029581AD7
:10472000A3B829581A992029589A59B839481233E8
:104730001B08B504294C411AFD0C1A2D342954418B
:1047400013F1314C0821325C411A690C1A990402A8
:104750002DFF6B02404041496CC914490CC9142912
:10476000B82914699C4129C46914690449ACC3027D
:104770004049E56B0240C82928420ACA0450511931
:1047800014C1420DCA0C280A110E140A110F14028A
:104790001FFF39E01970699829D039E8D9149A04B3
:1047A00098696009185C1A040229265A08085A0CEC
:1047B000085A1008B119B07904122012402A8094C6
:0C47C0007A300481393613127A000000B0
:040000050800020DE0
:00000001FF
